{
	"contracts/CallAnything.sol": {
		"CallAnything": {
			"abi": [
				{
					"inputs": [
						{
							"internalType": "address",
							"name": "someAddress",
							"type": "address"
						},
						{
							"internalType": "uint256",
							"name": "amount",
							"type": "uint256"
						}
					],
					"name": "callTransferFunctionDirectlySelector",
					"outputs": [
						{
							"internalType": "bytes4",
							"name": "",
							"type": "bytes4"
						},
						{
							"internalType": "bool",
							"name": "",
							"type": "bool"
						}
					],
					"stateMutability": "nonpayable",
					"type": "function"
				},
				{
					"inputs": [
						{
							"internalType": "address",
							"name": "someAddress",
							"type": "address"
						},
						{
							"internalType": "uint256",
							"name": "amount",
							"type": "uint256"
						}
					],
					"name": "callTransferFunctionDirectlySignature",
					"outputs": [
						{
							"internalType": "bytes4",
							"name": "",
							"type": "bytes4"
						},
						{
							"internalType": "bool",
							"name": "",
							"type": "bool"
						}
					],
					"stateMutability": "nonpayable",
					"type": "function"
				},
				{
					"inputs": [
						{
							"internalType": "address",
							"name": "someAddress",
							"type": "address"
						},
						{
							"internalType": "uint256",
							"name": "amount",
							"type": "uint256"
						}
					],
					"name": "getDataToCallTransfer",
					"outputs": [
						{
							"internalType": "bytes",
							"name": "",
							"type": "bytes"
						}
					],
					"stateMutability": "pure",
					"type": "function"
				},
				{
					"inputs": [],
					"name": "getSelectorOne",
					"outputs": [
						{
							"internalType": "bytes4",
							"name": "selector",
							"type": "bytes4"
						}
					],
					"stateMutability": "pure",
					"type": "function"
				},
				{
					"inputs": [],
					"name": "s_amount",
					"outputs": [
						{
							"internalType": "uint256",
							"name": "",
							"type": "uint256"
						}
					],
					"stateMutability": "view",
					"type": "function"
				},
				{
					"inputs": [],
					"name": "s_someAddress",
					"outputs": [
						{
							"internalType": "address",
							"name": "",
							"type": "address"
						}
					],
					"stateMutability": "view",
					"type": "function"
				},
				{
					"inputs": [
						{
							"internalType": "address",
							"name": "someAddress",
							"type": "address"
						},
						{
							"internalType": "uint256",
							"name": "amount",
							"type": "uint256"
						}
					],
					"name": "transfer",
					"outputs": [],
					"stateMutability": "nonpayable",
					"type": "function"
				}
			],
			"devdoc": {
				"kind": "dev",
				"methods": {},
				"version": 1
			},
			"evm": {
				"assembly": "    /* \"contracts/CallAnything.sol\":61:1273  contract CallAnything {... */\n  mstore(0x40, 0x80)\n  callvalue\n  dup1\n  iszero\n  tag_1\n  jumpi\n  revert(0x00, 0x00)\ntag_1:\n  pop\n  dataSize(sub_0)\n  dup1\n  dataOffset(sub_0)\n  0x00\n  codecopy\n  0x00\n  return\nstop\n\nsub_0: assembly {\n        /* \"contracts/CallAnything.sol\":61:1273  contract CallAnything {... */\n      mstore(0x40, 0x80)\n      callvalue\n      dup1\n      iszero\n      tag_1\n      jumpi\n      revert(0x00, 0x00)\n    tag_1:\n      pop\n      jumpi(tag_2, lt(calldatasize, 0x04))\n      shr(0xe0, calldataload(0x00))\n      dup1\n      0x9a41d3ad\n      gt\n      tag_10\n      jumpi\n      dup1\n      0x9a41d3ad\n      eq\n      tag_6\n      jumpi\n      dup1\n      0xa9059cbb\n      eq\n      tag_7\n      jumpi\n      dup1\n      0xaad229d5\n      eq\n      tag_8\n      jumpi\n      dup1\n      0xc6e93bad\n      eq\n      tag_9\n      jumpi\n      jump(tag_2)\n    tag_10:\n      dup1\n      0x1a7496bf\n      eq\n      tag_3\n      jumpi\n      dup1\n      0x2a69e0e5\n      eq\n      tag_4\n      jumpi\n      dup1\n      0x7c0c5f23\n      eq\n      tag_5\n      jumpi\n    tag_2:\n      revert(0x00, 0x00)\n        /* \"contracts/CallAnything.sol\":958:1270  function callTransferFunctionDirectlySignature(address someAddress, uint256 amount) public returns (bytes4, bool) {... */\n    tag_3:\n      tag_11\n      0x04\n      dup1\n      calldatasize\n      sub\n      dup2\n      add\n      swap1\n      tag_12\n      swap2\n      swap1\n      tag_13\n      jump\t// in\n    tag_12:\n      tag_14\n      jump\t// in\n    tag_11:\n      mload(0x40)\n      tag_15\n      swap3\n      swap2\n      swap1\n      tag_16\n      jump\t// in\n    tag_15:\n      mload(0x40)\n      dup1\n      swap2\n      sub\n      swap1\n      return\n        /* \"contracts/CallAnything.sol\":651:950  function callTransferFunctionDirectlySelector(address someAddress, uint256 amount) public returns (bytes4, bool) {... */\n    tag_4:\n      tag_17\n      0x04\n      dup1\n      calldatasize\n      sub\n      dup2\n      add\n      swap1\n      tag_18\n      swap2\n      swap1\n      tag_13\n      jump\t// in\n    tag_18:\n      tag_19\n      jump\t// in\n    tag_17:\n      mload(0x40)\n      tag_20\n      swap3\n      swap2\n      swap1\n      tag_16\n      jump\t// in\n    tag_20:\n      mload(0x40)\n      dup1\n      swap2\n      sub\n      swap1\n      return\n        /* \"contracts/CallAnything.sol\":455:643  function getDataToCallTransfer(address someAddress, uint256 amount) public pure returns (bytes memory) {... */\n    tag_5:\n      tag_21\n      0x04\n      dup1\n      calldatasize\n      sub\n      dup2\n      add\n      swap1\n      tag_22\n      swap2\n      swap1\n      tag_13\n      jump\t// in\n    tag_22:\n      tag_23\n      jump\t// in\n    tag_21:\n      mload(0x40)\n      tag_24\n      swap2\n      swap1\n      tag_25\n      jump\t// in\n    tag_24:\n      mload(0x40)\n      dup1\n      swap2\n      sub\n      swap1\n      return\n        /* \"contracts/CallAnything.sol\":301:447  function getSelectorOne() public pure returns(bytes4 selector) {... */\n    tag_6:\n      tag_26\n      tag_27\n      jump\t// in\n    tag_26:\n      mload(0x40)\n      tag_28\n      swap2\n      swap1\n      tag_29\n      jump\t// in\n    tag_28:\n      mload(0x40)\n      dup1\n      swap2\n      sub\n      swap1\n      return\n        /* \"contracts/CallAnything.sol\":157:293  function transfer(address someAddress, uint256 amount) public {... */\n    tag_7:\n      tag_30\n      0x04\n      dup1\n      calldatasize\n      sub\n      dup2\n      add\n      swap1\n      tag_31\n      swap2\n      swap1\n      tag_13\n      jump\t// in\n    tag_31:\n      tag_32\n      jump\t// in\n    tag_30:\n      stop\n        /* \"contracts/CallAnything.sol\":90:118  address public s_someAddress */\n    tag_8:\n      tag_33\n      tag_34\n      jump\t// in\n    tag_33:\n      mload(0x40)\n      tag_35\n      swap2\n      swap1\n      tag_36\n      jump\t// in\n    tag_35:\n      mload(0x40)\n      dup1\n      swap2\n      sub\n      swap1\n      return\n        /* \"contracts/CallAnything.sol\":125:148  uint256 public s_amount */\n    tag_9:\n      tag_37\n      tag_38\n      jump\t// in\n    tag_37:\n      mload(0x40)\n      tag_39\n      swap2\n      swap1\n      tag_40\n      jump\t// in\n    tag_39:\n      mload(0x40)\n      dup1\n      swap2\n      sub\n      swap1\n      return\n        /* \"contracts/CallAnything.sol\":958:1270  function callTransferFunctionDirectlySignature(address someAddress, uint256 amount) public returns (bytes4, bool) {... */\n    tag_14:\n        /* \"contracts/CallAnything.sol\":1058:1064  bytes4 */\n      0x00\n        /* \"contracts/CallAnything.sol\":1066:1070  bool */\n      0x00\n        /* \"contracts/CallAnything.sol\":1084:1096  bool success */\n      0x00\n        /* \"contracts/CallAnything.sol\":1098:1121  bytes memory returnData */\n      0x00\n        /* \"contracts/CallAnything.sol\":1133:1137  this */\n      address\n        /* \"contracts/CallAnything.sol\":1125:1143  address(this).call */\n      0xffffffffffffffffffffffffffffffffffffffff\n      and\n        /* \"contracts/CallAnything.sol\":1196:1207  someAddress */\n      dup7\n        /* \"contracts/CallAnything.sol\":1208:1214  amount */\n      dup7\n        /* \"contracts/CallAnything.sol\":1144:1215  abi.encodeWithSignature(\"transfer(address,uint256)\",someAddress,amount) */\n      add(0x24, mload(0x40))\n      tag_42\n      swap3\n      swap2\n      swap1\n      tag_43\n      jump\t// in\n    tag_42:\n      mload(0x40)\n      0x20\n      dup2\n      dup4\n      sub\n      sub\n      dup2\n      mstore\n      swap1\n      0x40\n      mstore\n      and(not(0xffffffffffffffffffffffffffffffffffffffffffffffffffffffff), 0xa9059cbb00000000000000000000000000000000000000000000000000000000)\n      0x20\n      dup3\n      add\n      dup1\n      mload\n      0xffffffffffffffffffffffffffffffffffffffffffffffffffffffff\n      dup4\n      dup2\n      dup4\n      and\n      or\n      dup4\n      mstore\n      pop\n      pop\n      pop\n      pop\n        /* \"contracts/CallAnything.sol\":1125:1216  address(this).call(abi.encodeWithSignature(\"transfer(address,uint256)\",someAddress,amount)) */\n      mload(0x40)\n      tag_44\n      swap2\n      swap1\n      tag_45\n      jump\t// in\n    tag_44:\n      0x00\n      mload(0x40)\n      dup1\n      dup4\n      sub\n      dup2\n      0x00\n      dup7\n      gas\n      call\n      swap2\n      pop\n      pop\n      returndatasize\n      dup1\n      0x00\n      dup2\n      eq\n      tag_48\n      jumpi\n      mload(0x40)\n      swap2\n      pop\n      and(add(returndatasize, 0x3f), not(0x1f))\n      dup3\n      add\n      0x40\n      mstore\n      returndatasize\n      dup3\n      mstore\n      returndatasize\n      0x00\n      0x20\n      dup5\n      add\n      returndatacopy\n      jump(tag_47)\n    tag_48:\n      0x60\n      swap2\n      pop\n    tag_47:\n      pop\n        /* \"contracts/CallAnything.sol\":1083:1216  (bool success, bytes memory returnData) = address(this).call(abi.encodeWithSignature(\"transfer(address,uint256)\",someAddress,amount)) */\n      swap2\n      pop\n      swap2\n      pop\n        /* \"contracts/CallAnything.sol\":1242:1252  returnData */\n      dup1\n        /* \"contracts/CallAnything.sol\":1235:1253  bytes4(returnData) */\n      tag_49\n      swap1\n      tag_50\n      jump\t// in\n    tag_49:\n        /* \"contracts/CallAnything.sol\":1254:1261  success */\n      dup3\n        /* \"contracts/CallAnything.sol\":1227:1262  return (bytes4(returnData),success) */\n      swap4\n      pop\n      swap4\n      pop\n      pop\n      pop\n        /* \"contracts/CallAnything.sol\":958:1270  function callTransferFunctionDirectlySignature(address someAddress, uint256 amount) public returns (bytes4, bool) {... */\n      swap3\n      pop\n      swap3\n      swap1\n      pop\n      jump\t// out\n        /* \"contracts/CallAnything.sol\":651:950  function callTransferFunctionDirectlySelector(address someAddress, uint256 amount) public returns (bytes4, bool) {... */\n    tag_19:\n        /* \"contracts/CallAnything.sol\":750:756  bytes4 */\n      0x00\n        /* \"contracts/CallAnything.sol\":758:762  bool */\n      0x00\n        /* \"contracts/CallAnything.sol\":776:788  bool success */\n      0x00\n        /* \"contracts/CallAnything.sol\":790:813  bytes memory returnData */\n      0x00\n        /* \"contracts/CallAnything.sol\":825:829  this */\n      address\n        /* \"contracts/CallAnything.sol\":817:835  address(this).call */\n      0xffffffffffffffffffffffffffffffffffffffff\n      and\n        /* \"contracts/CallAnything.sol\":859:875  getSelectorOne() */\n      tag_52\n        /* \"contracts/CallAnything.sol\":859:873  getSelectorOne */\n      tag_27\n        /* \"contracts/CallAnything.sol\":859:875  getSelectorOne() */\n      jump\t// in\n    tag_52:\n        /* \"contracts/CallAnything.sol\":876:887  someAddress */\n      dup8\n        /* \"contracts/CallAnything.sol\":888:894  amount */\n      dup8\n        /* \"contracts/CallAnything.sol\":836:895  abi.encodeWithSelector(getSelectorOne(),someAddress,amount) */\n      add(0x24, mload(0x40))\n      tag_53\n      swap3\n      swap2\n      swap1\n      tag_43\n      jump\t// in\n    tag_53:\n      mload(0x40)\n      0x20\n      dup2\n      dup4\n      sub\n      sub\n      dup2\n      mstore\n      swap1\n      0x40\n      mstore\n      swap1\n      not(0xffffffffffffffffffffffffffffffffffffffffffffffffffffffff)\n      and\n      0x20\n      dup3\n      add\n      dup1\n      mload\n      0xffffffffffffffffffffffffffffffffffffffffffffffffffffffff\n      dup4\n      dup2\n      dup4\n      and\n      or\n      dup4\n      mstore\n      pop\n      pop\n      pop\n      pop\n        /* \"contracts/CallAnything.sol\":817:896  address(this).call(abi.encodeWithSelector(getSelectorOne(),someAddress,amount)) */\n      mload(0x40)\n      tag_54\n      swap2\n      swap1\n      tag_45\n      jump\t// in\n    tag_54:\n      0x00\n      mload(0x40)\n      dup1\n      dup4\n      sub\n      dup2\n      0x00\n      dup7\n      gas\n      call\n      swap2\n      pop\n      pop\n      returndatasize\n      dup1\n      0x00\n      dup2\n      eq\n      tag_57\n      jumpi\n      mload(0x40)\n      swap2\n      pop\n      and(add(returndatasize, 0x3f), not(0x1f))\n      dup3\n      add\n      0x40\n      mstore\n      returndatasize\n      dup3\n      mstore\n      returndatasize\n      0x00\n      0x20\n      dup5\n      add\n      returndatacopy\n      jump(tag_56)\n    tag_57:\n      0x60\n      swap2\n      pop\n    tag_56:\n      pop\n        /* \"contracts/CallAnything.sol\":775:896  (bool success, bytes memory returnData) = address(this).call(abi.encodeWithSelector(getSelectorOne(),someAddress,amount)) */\n      swap2\n      pop\n      swap2\n      pop\n        /* \"contracts/CallAnything.sol\":922:932  returnData */\n      dup1\n        /* \"contracts/CallAnything.sol\":915:933  bytes4(returnData) */\n      tag_58\n      swap1\n      tag_50\n      jump\t// in\n    tag_58:\n        /* \"contracts/CallAnything.sol\":934:941  success */\n      dup3\n        /* \"contracts/CallAnything.sol\":907:942  return (bytes4(returnData),success) */\n      swap4\n      pop\n      swap4\n      pop\n      pop\n      pop\n        /* \"contracts/CallAnything.sol\":651:950  function callTransferFunctionDirectlySelector(address someAddress, uint256 amount) public returns (bytes4, bool) {... */\n      swap3\n      pop\n      swap3\n      swap1\n      pop\n      jump\t// out\n        /* \"contracts/CallAnything.sol\":455:643  function getDataToCallTransfer(address someAddress, uint256 amount) public pure returns (bytes memory) {... */\n    tag_23:\n        /* \"contracts/CallAnything.sol\":544:556  bytes memory */\n      0x60\n        /* \"contracts/CallAnything.sol\":599:615  getSelectorOne() */\n      tag_60\n        /* \"contracts/CallAnything.sol\":599:613  getSelectorOne */\n      tag_27\n        /* \"contracts/CallAnything.sol\":599:615  getSelectorOne() */\n      jump\t// in\n    tag_60:\n        /* \"contracts/CallAnything.sol\":616:627  someAddress */\n      dup4\n        /* \"contracts/CallAnything.sol\":628:634  amount */\n      dup4\n        /* \"contracts/CallAnything.sol\":576:635  abi.encodeWithSelector(getSelectorOne(),someAddress,amount) */\n      add(0x24, mload(0x40))\n      tag_61\n      swap3\n      swap2\n      swap1\n      tag_43\n      jump\t// in\n    tag_61:\n      mload(0x40)\n      0x20\n      dup2\n      dup4\n      sub\n      sub\n      dup2\n      mstore\n      swap1\n      0x40\n      mstore\n      swap1\n      not(0xffffffffffffffffffffffffffffffffffffffffffffffffffffffff)\n      and\n      0x20\n      dup3\n      add\n      dup1\n      mload\n      0xffffffffffffffffffffffffffffffffffffffffffffffffffffffff\n      dup4\n      dup2\n      dup4\n      and\n      or\n      dup4\n      mstore\n      pop\n      pop\n      pop\n      pop\n        /* \"contracts/CallAnything.sol\":569:635  return abi.encodeWithSelector(getSelectorOne(),someAddress,amount) */\n      swap1\n      pop\n        /* \"contracts/CallAnything.sol\":455:643  function getDataToCallTransfer(address someAddress, uint256 amount) public pure returns (bytes memory) {... */\n      swap3\n      swap2\n      pop\n      pop\n      jump\t// out\n        /* \"contracts/CallAnything.sol\":301:447  function getSelectorOne() public pure returns(bytes4 selector) {... */\n    tag_27:\n        /* \"contracts/CallAnything.sol\":347:362  bytes4 selector */\n      0x00\n        /* \"contracts/CallAnything.sol\":403:437  bytes(\"transfer(address,uint256)\") */\n      mload(0x40)\n      dup1\n      0x40\n      add\n      0x40\n      mstore\n      dup1\n      0x19\n      dup2\n      mstore\n      0x20\n      add\n      0x7472616e7366657228616464726573732c75696e743235362900000000000000\n      dup2\n      mstore\n      pop\n        /* \"contracts/CallAnything.sol\":393:438  keccak256(bytes(\"transfer(address,uint256)\")) */\n      dup1\n      mload\n      swap1\n      0x20\n      add\n      keccak256\n        /* \"contracts/CallAnything.sol\":375:439  selector = bytes4(keccak256(bytes(\"transfer(address,uint256)\"))) */\n      swap1\n      pop\n        /* \"contracts/CallAnything.sol\":301:447  function getSelectorOne() public pure returns(bytes4 selector) {... */\n      swap1\n      jump\t// out\n        /* \"contracts/CallAnything.sol\":157:293  function transfer(address someAddress, uint256 amount) public {... */\n    tag_32:\n        /* \"contracts/CallAnything.sol\":246:257  someAddress */\n      dup2\n        /* \"contracts/CallAnything.sol\":230:243  s_someAddress */\n      0x00\n      0x00\n        /* \"contracts/CallAnything.sol\":230:257  s_someAddress = someAddress */\n      0x0100\n      exp\n      dup2\n      sload\n      dup2\n      0xffffffffffffffffffffffffffffffffffffffff\n      mul\n      not\n      and\n      swap1\n      dup4\n      0xffffffffffffffffffffffffffffffffffffffff\n      and\n      mul\n      or\n      swap1\n      sstore\n      pop\n        /* \"contracts/CallAnything.sol\":279:285  amount */\n      dup1\n        /* \"contracts/CallAnything.sol\":268:276  s_amount */\n      0x01\n        /* \"contracts/CallAnything.sol\":268:285  s_amount = amount */\n      dup2\n      swap1\n      sstore\n      pop\n        /* \"contracts/CallAnything.sol\":157:293  function transfer(address someAddress, uint256 amount) public {... */\n      pop\n      pop\n      jump\t// out\n        /* \"contracts/CallAnything.sol\":90:118  address public s_someAddress */\n    tag_34:\n      0x00\n      0x00\n      swap1\n      sload\n      swap1\n      0x0100\n      exp\n      swap1\n      div\n      0xffffffffffffffffffffffffffffffffffffffff\n      and\n      dup2\n      jump\t// out\n        /* \"contracts/CallAnything.sol\":125:148  uint256 public s_amount */\n    tag_38:\n      sload(0x01)\n      dup2\n      jump\t// out\n        /* \"#utility.yul\":88:205   */\n    tag_65:\n        /* \"#utility.yul\":197:198   */\n      0x00\n        /* \"#utility.yul\":194:195   */\n      0x00\n        /* \"#utility.yul\":187:199   */\n      revert\n        /* \"#utility.yul\":334:460   */\n    tag_67:\n        /* \"#utility.yul\":371:378   */\n      0x00\n        /* \"#utility.yul\":411:453   */\n      0xffffffffffffffffffffffffffffffffffffffff\n        /* \"#utility.yul\":404:409   */\n      dup3\n        /* \"#utility.yul\":400:454   */\n      and\n        /* \"#utility.yul\":389:454   */\n      swap1\n      pop\n        /* \"#utility.yul\":334:460   */\n      swap2\n      swap1\n      pop\n      jump\t// out\n        /* \"#utility.yul\":466:562   */\n    tag_68:\n        /* \"#utility.yul\":503:510   */\n      0x00\n        /* \"#utility.yul\":532:556   */\n      tag_96\n        /* \"#utility.yul\":550:555   */\n      dup3\n        /* \"#utility.yul\":532:556   */\n      tag_67\n      jump\t// in\n    tag_96:\n        /* \"#utility.yul\":521:556   */\n      swap1\n      pop\n        /* \"#utility.yul\":466:562   */\n      swap2\n      swap1\n      pop\n      jump\t// out\n        /* \"#utility.yul\":568:690   */\n    tag_69:\n        /* \"#utility.yul\":641:665   */\n      tag_98\n        /* \"#utility.yul\":659:664   */\n      dup2\n        /* \"#utility.yul\":641:665   */\n      tag_68\n      jump\t// in\n    tag_98:\n        /* \"#utility.yul\":634:639   */\n      dup2\n        /* \"#utility.yul\":631:666   */\n      eq\n        /* \"#utility.yul\":621:684   */\n      tag_99\n      jumpi\n        /* \"#utility.yul\":680:681   */\n      0x00\n        /* \"#utility.yul\":677:678   */\n      0x00\n        /* \"#utility.yul\":670:682   */\n      revert\n        /* \"#utility.yul\":621:684   */\n    tag_99:\n        /* \"#utility.yul\":568:690   */\n      pop\n      jump\t// out\n        /* \"#utility.yul\":696:835   */\n    tag_70:\n        /* \"#utility.yul\":742:747   */\n      0x00\n        /* \"#utility.yul\":780:786   */\n      dup2\n        /* \"#utility.yul\":767:787   */\n      calldataload\n        /* \"#utility.yul\":758:787   */\n      swap1\n      pop\n        /* \"#utility.yul\":796:829   */\n      tag_101\n        /* \"#utility.yul\":823:828   */\n      dup2\n        /* \"#utility.yul\":796:829   */\n      tag_69\n      jump\t// in\n    tag_101:\n        /* \"#utility.yul\":696:835   */\n      swap3\n      swap2\n      pop\n      pop\n      jump\t// out\n        /* \"#utility.yul\":841:918   */\n    tag_71:\n        /* \"#utility.yul\":878:885   */\n      0x00\n        /* \"#utility.yul\":907:912   */\n      dup2\n        /* \"#utility.yul\":896:912   */\n      swap1\n      pop\n        /* \"#utility.yul\":841:918   */\n      swap2\n      swap1\n      pop\n      jump\t// out\n        /* \"#utility.yul\":924:1046   */\n    tag_72:\n        /* \"#utility.yul\":997:1021   */\n      tag_104\n        /* \"#utility.yul\":1015:1020   */\n      dup2\n        /* \"#utility.yul\":997:1021   */\n      tag_71\n      jump\t// in\n    tag_104:\n        /* \"#utility.yul\":990:995   */\n      dup2\n        /* \"#utility.yul\":987:1022   */\n      eq\n        /* \"#utility.yul\":977:1040   */\n      tag_105\n      jumpi\n        /* \"#utility.yul\":1036:1037   */\n      0x00\n        /* \"#utility.yul\":1033:1034   */\n      0x00\n        /* \"#utility.yul\":1026:1038   */\n      revert\n        /* \"#utility.yul\":977:1040   */\n    tag_105:\n        /* \"#utility.yul\":924:1046   */\n      pop\n      jump\t// out\n        /* \"#utility.yul\":1052:1191   */\n    tag_73:\n        /* \"#utility.yul\":1098:1103   */\n      0x00\n        /* \"#utility.yul\":1136:1142   */\n      dup2\n        /* \"#utility.yul\":1123:1143   */\n      calldataload\n        /* \"#utility.yul\":1114:1143   */\n      swap1\n      pop\n        /* \"#utility.yul\":1152:1185   */\n      tag_107\n        /* \"#utility.yul\":1179:1184   */\n      dup2\n        /* \"#utility.yul\":1152:1185   */\n      tag_72\n      jump\t// in\n    tag_107:\n        /* \"#utility.yul\":1052:1191   */\n      swap3\n      swap2\n      pop\n      pop\n      jump\t// out\n        /* \"#utility.yul\":1197:1671   */\n    tag_13:\n        /* \"#utility.yul\":1265:1271   */\n      0x00\n        /* \"#utility.yul\":1273:1279   */\n      0x00\n        /* \"#utility.yul\":1322:1324   */\n      0x40\n        /* \"#utility.yul\":1310:1319   */\n      dup4\n        /* \"#utility.yul\":1301:1308   */\n      dup6\n        /* \"#utility.yul\":1297:1320   */\n      sub\n        /* \"#utility.yul\":1293:1325   */\n      slt\n        /* \"#utility.yul\":1290:1409   */\n      iszero\n      tag_109\n      jumpi\n        /* \"#utility.yul\":1328:1407   */\n      tag_110\n      tag_65\n      jump\t// in\n    tag_110:\n        /* \"#utility.yul\":1290:1409   */\n    tag_109:\n        /* \"#utility.yul\":1448:1449   */\n      0x00\n        /* \"#utility.yul\":1473:1526   */\n      tag_111\n        /* \"#utility.yul\":1518:1525   */\n      dup6\n        /* \"#utility.yul\":1509:1515   */\n      dup3\n        /* \"#utility.yul\":1498:1507   */\n      dup7\n        /* \"#utility.yul\":1494:1516   */\n      add\n        /* \"#utility.yul\":1473:1526   */\n      tag_70\n      jump\t// in\n    tag_111:\n        /* \"#utility.yul\":1463:1526   */\n      swap3\n      pop\n        /* \"#utility.yul\":1419:1536   */\n      pop\n        /* \"#utility.yul\":1575:1577   */\n      0x20\n        /* \"#utility.yul\":1601:1654   */\n      tag_112\n        /* \"#utility.yul\":1646:1653   */\n      dup6\n        /* \"#utility.yul\":1637:1643   */\n      dup3\n        /* \"#utility.yul\":1626:1635   */\n      dup7\n        /* \"#utility.yul\":1622:1644   */\n      add\n        /* \"#utility.yul\":1601:1654   */\n      tag_73\n      jump\t// in\n    tag_112:\n        /* \"#utility.yul\":1591:1654   */\n      swap2\n      pop\n        /* \"#utility.yul\":1546:1664   */\n      pop\n        /* \"#utility.yul\":1197:1671   */\n      swap3\n      pop\n      swap3\n      swap1\n      pop\n      jump\t// out\n        /* \"#utility.yul\":1677:1826   */\n    tag_74:\n        /* \"#utility.yul\":1713:1720   */\n      0x00\n        /* \"#utility.yul\":1753:1819   */\n      0xffffffff00000000000000000000000000000000000000000000000000000000\n        /* \"#utility.yul\":1746:1751   */\n      dup3\n        /* \"#utility.yul\":1742:1820   */\n      and\n        /* \"#utility.yul\":1731:1820   */\n      swap1\n      pop\n        /* \"#utility.yul\":1677:1826   */\n      swap2\n      swap1\n      pop\n      jump\t// out\n        /* \"#utility.yul\":1832:1947   */\n    tag_75:\n        /* \"#utility.yul\":1917:1940   */\n      tag_115\n        /* \"#utility.yul\":1934:1939   */\n      dup2\n        /* \"#utility.yul\":1917:1940   */\n      tag_74\n      jump\t// in\n    tag_115:\n        /* \"#utility.yul\":1912:1915   */\n      dup3\n        /* \"#utility.yul\":1905:1941   */\n      mstore\n        /* \"#utility.yul\":1832:1947   */\n      pop\n      pop\n      jump\t// out\n        /* \"#utility.yul\":1953:2043   */\n    tag_76:\n        /* \"#utility.yul\":1987:1994   */\n      0x00\n        /* \"#utility.yul\":2030:2035   */\n      dup2\n        /* \"#utility.yul\":2023:2036   */\n      iszero\n        /* \"#utility.yul\":2016:2037   */\n      iszero\n        /* \"#utility.yul\":2005:2037   */\n      swap1\n      pop\n        /* \"#utility.yul\":1953:2043   */\n      swap2\n      swap1\n      pop\n      jump\t// out\n        /* \"#utility.yul\":2049:2158   */\n    tag_77:\n        /* \"#utility.yul\":2130:2151   */\n      tag_118\n        /* \"#utility.yul\":2145:2150   */\n      dup2\n        /* \"#utility.yul\":2130:2151   */\n      tag_76\n      jump\t// in\n    tag_118:\n        /* \"#utility.yul\":2125:2128   */\n      dup3\n        /* \"#utility.yul\":2118:2152   */\n      mstore\n        /* \"#utility.yul\":2049:2158   */\n      pop\n      pop\n      jump\t// out\n        /* \"#utility.yul\":2164:2480   */\n    tag_16:\n        /* \"#utility.yul\":2277:2281   */\n      0x00\n        /* \"#utility.yul\":2315:2317   */\n      0x40\n        /* \"#utility.yul\":2304:2313   */\n      dup3\n        /* \"#utility.yul\":2300:2318   */\n      add\n        /* \"#utility.yul\":2292:2318   */\n      swap1\n      pop\n        /* \"#utility.yul\":2328:2397   */\n      tag_120\n        /* \"#utility.yul\":2394:2395   */\n      0x00\n        /* \"#utility.yul\":2383:2392   */\n      dup4\n        /* \"#utility.yul\":2379:2396   */\n      add\n        /* \"#utility.yul\":2370:2376   */\n      dup6\n        /* \"#utility.yul\":2328:2397   */\n      tag_75\n      jump\t// in\n    tag_120:\n        /* \"#utility.yul\":2407:2473   */\n      tag_121\n        /* \"#utility.yul\":2469:2471   */\n      0x20\n        /* \"#utility.yul\":2458:2467   */\n      dup4\n        /* \"#utility.yul\":2454:2472   */\n      add\n        /* \"#utility.yul\":2445:2451   */\n      dup5\n        /* \"#utility.yul\":2407:2473   */\n      tag_77\n      jump\t// in\n    tag_121:\n        /* \"#utility.yul\":2164:2480   */\n      swap4\n      swap3\n      pop\n      pop\n      pop\n      jump\t// out\n        /* \"#utility.yul\":2486:2584   */\n    tag_78:\n        /* \"#utility.yul\":2537:2543   */\n      0x00\n        /* \"#utility.yul\":2571:2576   */\n      dup2\n        /* \"#utility.yul\":2565:2577   */\n      mload\n        /* \"#utility.yul\":2555:2577   */\n      swap1\n      pop\n        /* \"#utility.yul\":2486:2584   */\n      swap2\n      swap1\n      pop\n      jump\t// out\n        /* \"#utility.yul\":2590:2758   */\n    tag_79:\n        /* \"#utility.yul\":2673:2684   */\n      0x00\n        /* \"#utility.yul\":2707:2713   */\n      dup3\n        /* \"#utility.yul\":2702:2705   */\n      dup3\n        /* \"#utility.yul\":2695:2714   */\n      mstore\n        /* \"#utility.yul\":2747:2751   */\n      0x20\n        /* \"#utility.yul\":2742:2745   */\n      dup3\n        /* \"#utility.yul\":2738:2752   */\n      add\n        /* \"#utility.yul\":2723:2752   */\n      swap1\n      pop\n        /* \"#utility.yul\":2590:2758   */\n      swap3\n      swap2\n      pop\n      pop\n      jump\t// out\n        /* \"#utility.yul\":2764:2903   */\n    tag_80:\n        /* \"#utility.yul\":2853:2859   */\n      dup3\n        /* \"#utility.yul\":2848:2851   */\n      dup2\n        /* \"#utility.yul\":2843:2846   */\n      dup4\n        /* \"#utility.yul\":2837:2860   */\n      mcopy\n        /* \"#utility.yul\":2894:2895   */\n      0x00\n        /* \"#utility.yul\":2885:2891   */\n      dup4\n        /* \"#utility.yul\":2880:2883   */\n      dup4\n        /* \"#utility.yul\":2876:2892   */\n      add\n        /* \"#utility.yul\":2869:2896   */\n      mstore\n        /* \"#utility.yul\":2764:2903   */\n      pop\n      pop\n      pop\n      jump\t// out\n        /* \"#utility.yul\":2909:3011   */\n    tag_81:\n        /* \"#utility.yul\":2950:2956   */\n      0x00\n        /* \"#utility.yul\":3001:3003   */\n      0x1f\n        /* \"#utility.yul\":2997:3004   */\n      not\n        /* \"#utility.yul\":2992:2994   */\n      0x1f\n        /* \"#utility.yul\":2985:2990   */\n      dup4\n        /* \"#utility.yul\":2981:2995   */\n      add\n        /* \"#utility.yul\":2977:3005   */\n      and\n        /* \"#utility.yul\":2967:3005   */\n      swap1\n      pop\n        /* \"#utility.yul\":2909:3011   */\n      swap2\n      swap1\n      pop\n      jump\t// out\n        /* \"#utility.yul\":3017:3390   */\n    tag_82:\n        /* \"#utility.yul\":3103:3106   */\n      0x00\n        /* \"#utility.yul\":3131:3169   */\n      tag_127\n        /* \"#utility.yul\":3163:3168   */\n      dup3\n        /* \"#utility.yul\":3131:3169   */\n      tag_78\n      jump\t// in\n    tag_127:\n        /* \"#utility.yul\":3185:3255   */\n      tag_128\n        /* \"#utility.yul\":3248:3254   */\n      dup2\n        /* \"#utility.yul\":3243:3246   */\n      dup6\n        /* \"#utility.yul\":3185:3255   */\n      tag_79\n      jump\t// in\n    tag_128:\n        /* \"#utility.yul\":3178:3255   */\n      swap4\n      pop\n        /* \"#utility.yul\":3264:3329   */\n      tag_129\n        /* \"#utility.yul\":3322:3328   */\n      dup2\n        /* \"#utility.yul\":3317:3320   */\n      dup6\n        /* \"#utility.yul\":3310:3314   */\n      0x20\n        /* \"#utility.yul\":3303:3308   */\n      dup7\n        /* \"#utility.yul\":3299:3315   */\n      add\n        /* \"#utility.yul\":3264:3329   */\n      tag_80\n      jump\t// in\n    tag_129:\n        /* \"#utility.yul\":3354:3383   */\n      tag_130\n        /* \"#utility.yul\":3376:3382   */\n      dup2\n        /* \"#utility.yul\":3354:3383   */\n      tag_81\n      jump\t// in\n    tag_130:\n        /* \"#utility.yul\":3349:3352   */\n      dup5\n        /* \"#utility.yul\":3345:3384   */\n      add\n        /* \"#utility.yul\":3338:3384   */\n      swap2\n      pop\n        /* \"#utility.yul\":3107:3390   */\n      pop\n        /* \"#utility.yul\":3017:3390   */\n      swap3\n      swap2\n      pop\n      pop\n      jump\t// out\n        /* \"#utility.yul\":3396:3705   */\n    tag_25:\n        /* \"#utility.yul\":3507:3511   */\n      0x00\n        /* \"#utility.yul\":3545:3547   */\n      0x20\n        /* \"#utility.yul\":3534:3543   */\n      dup3\n        /* \"#utility.yul\":3530:3548   */\n      add\n        /* \"#utility.yul\":3522:3548   */\n      swap1\n      pop\n        /* \"#utility.yul\":3594:3603   */\n      dup2\n        /* \"#utility.yul\":3588:3592   */\n      dup2\n        /* \"#utility.yul\":3584:3604   */\n      sub\n        /* \"#utility.yul\":3580:3581   */\n      0x00\n        /* \"#utility.yul\":3569:3578   */\n      dup4\n        /* \"#utility.yul\":3565:3582   */\n      add\n        /* \"#utility.yul\":3558:3605   */\n      mstore\n        /* \"#utility.yul\":3622:3698   */\n      tag_132\n        /* \"#utility.yul\":3693:3697   */\n      dup2\n        /* \"#utility.yul\":3684:3690   */\n      dup5\n        /* \"#utility.yul\":3622:3698   */\n      tag_82\n      jump\t// in\n    tag_132:\n        /* \"#utility.yul\":3614:3698   */\n      swap1\n      pop\n        /* \"#utility.yul\":3396:3705   */\n      swap3\n      swap2\n      pop\n      pop\n      jump\t// out\n        /* \"#utility.yul\":3711:3929   */\n    tag_29:\n        /* \"#utility.yul\":3802:3806   */\n      0x00\n        /* \"#utility.yul\":3840:3842   */\n      0x20\n        /* \"#utility.yul\":3829:3838   */\n      dup3\n        /* \"#utility.yul\":3825:3843   */\n      add\n        /* \"#utility.yul\":3817:3843   */\n      swap1\n      pop\n        /* \"#utility.yul\":3853:3922   */\n      tag_134\n        /* \"#utility.yul\":3919:3920   */\n      0x00\n        /* \"#utility.yul\":3908:3917   */\n      dup4\n        /* \"#utility.yul\":3904:3921   */\n      add\n        /* \"#utility.yul\":3895:3901   */\n      dup5\n        /* \"#utility.yul\":3853:3922   */\n      tag_75\n      jump\t// in\n    tag_134:\n        /* \"#utility.yul\":3711:3929   */\n      swap3\n      swap2\n      pop\n      pop\n      jump\t// out\n        /* \"#utility.yul\":3935:4053   */\n    tag_83:\n        /* \"#utility.yul\":4022:4046   */\n      tag_136\n        /* \"#utility.yul\":4040:4045   */\n      dup2\n        /* \"#utility.yul\":4022:4046   */\n      tag_68\n      jump\t// in\n    tag_136:\n        /* \"#utility.yul\":4017:4020   */\n      dup3\n        /* \"#utility.yul\":4010:4047   */\n      mstore\n        /* \"#utility.yul\":3935:4053   */\n      pop\n      pop\n      jump\t// out\n        /* \"#utility.yul\":4059:4281   */\n    tag_36:\n        /* \"#utility.yul\":4152:4156   */\n      0x00\n        /* \"#utility.yul\":4190:4192   */\n      0x20\n        /* \"#utility.yul\":4179:4188   */\n      dup3\n        /* \"#utility.yul\":4175:4193   */\n      add\n        /* \"#utility.yul\":4167:4193   */\n      swap1\n      pop\n        /* \"#utility.yul\":4203:4274   */\n      tag_138\n        /* \"#utility.yul\":4271:4272   */\n      0x00\n        /* \"#utility.yul\":4260:4269   */\n      dup4\n        /* \"#utility.yul\":4256:4273   */\n      add\n        /* \"#utility.yul\":4247:4253   */\n      dup5\n        /* \"#utility.yul\":4203:4274   */\n      tag_83\n      jump\t// in\n    tag_138:\n        /* \"#utility.yul\":4059:4281   */\n      swap3\n      swap2\n      pop\n      pop\n      jump\t// out\n        /* \"#utility.yul\":4287:4405   */\n    tag_84:\n        /* \"#utility.yul\":4374:4398   */\n      tag_140\n        /* \"#utility.yul\":4392:4397   */\n      dup2\n        /* \"#utility.yul\":4374:4398   */\n      tag_71\n      jump\t// in\n    tag_140:\n        /* \"#utility.yul\":4369:4372   */\n      dup3\n        /* \"#utility.yul\":4362:4399   */\n      mstore\n        /* \"#utility.yul\":4287:4405   */\n      pop\n      pop\n      jump\t// out\n        /* \"#utility.yul\":4411:4633   */\n    tag_40:\n        /* \"#utility.yul\":4504:4508   */\n      0x00\n        /* \"#utility.yul\":4542:4544   */\n      0x20\n        /* \"#utility.yul\":4531:4540   */\n      dup3\n        /* \"#utility.yul\":4527:4545   */\n      add\n        /* \"#utility.yul\":4519:4545   */\n      swap1\n      pop\n        /* \"#utility.yul\":4555:4626   */\n      tag_142\n        /* \"#utility.yul\":4623:4624   */\n      0x00\n        /* \"#utility.yul\":4612:4621   */\n      dup4\n        /* \"#utility.yul\":4608:4625   */\n      add\n        /* \"#utility.yul\":4599:4605   */\n      dup5\n        /* \"#utility.yul\":4555:4626   */\n      tag_84\n      jump\t// in\n    tag_142:\n        /* \"#utility.yul\":4411:4633   */\n      swap3\n      swap2\n      pop\n      pop\n      jump\t// out\n        /* \"#utility.yul\":4639:4971   */\n    tag_43:\n        /* \"#utility.yul\":4760:4764   */\n      0x00\n        /* \"#utility.yul\":4798:4800   */\n      0x40\n        /* \"#utility.yul\":4787:4796   */\n      dup3\n        /* \"#utility.yul\":4783:4801   */\n      add\n        /* \"#utility.yul\":4775:4801   */\n      swap1\n      pop\n        /* \"#utility.yul\":4811:4882   */\n      tag_144\n        /* \"#utility.yul\":4879:4880   */\n      0x00\n        /* \"#utility.yul\":4868:4877   */\n      dup4\n        /* \"#utility.yul\":4864:4881   */\n      add\n        /* \"#utility.yul\":4855:4861   */\n      dup6\n        /* \"#utility.yul\":4811:4882   */\n      tag_83\n      jump\t// in\n    tag_144:\n        /* \"#utility.yul\":4892:4964   */\n      tag_145\n        /* \"#utility.yul\":4960:4962   */\n      0x20\n        /* \"#utility.yul\":4949:4958   */\n      dup4\n        /* \"#utility.yul\":4945:4963   */\n      add\n        /* \"#utility.yul\":4936:4942   */\n      dup5\n        /* \"#utility.yul\":4892:4964   */\n      tag_84\n      jump\t// in\n    tag_145:\n        /* \"#utility.yul\":4639:4971   */\n      swap4\n      swap3\n      pop\n      pop\n      pop\n      jump\t// out\n        /* \"#utility.yul\":4977:5124   */\n    tag_85:\n        /* \"#utility.yul\":5078:5089   */\n      0x00\n        /* \"#utility.yul\":5115:5118   */\n      dup2\n        /* \"#utility.yul\":5100:5118   */\n      swap1\n      pop\n        /* \"#utility.yul\":4977:5124   */\n      swap3\n      swap2\n      pop\n      pop\n      jump\t// out\n        /* \"#utility.yul\":5130:5516   */\n    tag_86:\n        /* \"#utility.yul\":5234:5237   */\n      0x00\n        /* \"#utility.yul\":5262:5300   */\n      tag_148\n        /* \"#utility.yul\":5294:5299   */\n      dup3\n        /* \"#utility.yul\":5262:5300   */\n      tag_78\n      jump\t// in\n    tag_148:\n        /* \"#utility.yul\":5316:5404   */\n      tag_149\n        /* \"#utility.yul\":5397:5403   */\n      dup2\n        /* \"#utility.yul\":5392:5395   */\n      dup6\n        /* \"#utility.yul\":5316:5404   */\n      tag_85\n      jump\t// in\n    tag_149:\n        /* \"#utility.yul\":5309:5404   */\n      swap4\n      pop\n        /* \"#utility.yul\":5413:5478   */\n      tag_150\n        /* \"#utility.yul\":5471:5477   */\n      dup2\n        /* \"#utility.yul\":5466:5469   */\n      dup6\n        /* \"#utility.yul\":5459:5463   */\n      0x20\n        /* \"#utility.yul\":5452:5457   */\n      dup7\n        /* \"#utility.yul\":5448:5464   */\n      add\n        /* \"#utility.yul\":5413:5478   */\n      tag_80\n      jump\t// in\n    tag_150:\n        /* \"#utility.yul\":5503:5509   */\n      dup1\n        /* \"#utility.yul\":5498:5501   */\n      dup5\n        /* \"#utility.yul\":5494:5510   */\n      add\n        /* \"#utility.yul\":5487:5510   */\n      swap2\n      pop\n        /* \"#utility.yul\":5238:5516   */\n      pop\n        /* \"#utility.yul\":5130:5516   */\n      swap3\n      swap2\n      pop\n      pop\n      jump\t// out\n        /* \"#utility.yul\":5522:5793   */\n    tag_45:\n        /* \"#utility.yul\":5652:5655   */\n      0x00\n        /* \"#utility.yul\":5674:5767   */\n      tag_152\n        /* \"#utility.yul\":5763:5766   */\n      dup3\n        /* \"#utility.yul\":5754:5760   */\n      dup5\n        /* \"#utility.yul\":5674:5767   */\n      tag_86\n      jump\t// in\n    tag_152:\n        /* \"#utility.yul\":5667:5767   */\n      swap2\n      pop\n        /* \"#utility.yul\":5784:5787   */\n      dup2\n        /* \"#utility.yul\":5777:5787   */\n      swap1\n      pop\n        /* \"#utility.yul\":5522:5793   */\n      swap3\n      swap2\n      pop\n      pop\n      jump\t// out\n        /* \"#utility.yul\":5799:5915   */\n    tag_87:\n        /* \"#utility.yul\":5850:5854   */\n      0x00\n        /* \"#utility.yul\":5873:5876   */\n      dup2\n        /* \"#utility.yul\":5865:5876   */\n      swap1\n      pop\n        /* \"#utility.yul\":5903:5907   */\n      0x20\n        /* \"#utility.yul\":5898:5901   */\n      dup3\n        /* \"#utility.yul\":5894:5908   */\n      add\n        /* \"#utility.yul\":5886:5908   */\n      swap1\n      pop\n        /* \"#utility.yul\":5799:5915   */\n      swap2\n      swap1\n      pop\n      jump\t// out\n        /* \"#utility.yul\":5921:6073   */\n    tag_88:\n        /* \"#utility.yul\":5963:5974   */\n      0x00\n        /* \"#utility.yul\":5999:6027   */\n      tag_155\n        /* \"#utility.yul\":6022:6025   */\n      dup3\n        /* \"#utility.yul\":6016:6026   */\n      mload\n        /* \"#utility.yul\":5999:6027   */\n      tag_74\n      jump\t// in\n    tag_155:\n        /* \"#utility.yul\":6061:6066   */\n      dup1\n        /* \"#utility.yul\":6037:6066   */\n      swap2\n      pop\n        /* \"#utility.yul\":5975:6073   */\n      pop\n        /* \"#utility.yul\":5921:6073   */\n      swap2\n      swap1\n      pop\n      jump\t// out\n        /* \"#utility.yul\":6079:6186   */\n    tag_89:\n        /* \"#utility.yul\":6123:6131   */\n      0x00\n        /* \"#utility.yul\":6173:6178   */\n      dup3\n        /* \"#utility.yul\":6167:6171   */\n      dup3\n        /* \"#utility.yul\":6163:6179   */\n      shl\n        /* \"#utility.yul\":6142:6179   */\n      swap1\n      pop\n        /* \"#utility.yul\":6079:6186   */\n      swap3\n      swap2\n      pop\n      pop\n      jump\t// out\n        /* \"#utility.yul\":6192:6782   */\n    tag_50:\n        /* \"#utility.yul\":6275:6280   */\n      0x00\n        /* \"#utility.yul\":6306:6344   */\n      tag_158\n        /* \"#utility.yul\":6338:6343   */\n      dup3\n        /* \"#utility.yul\":6306:6344   */\n      tag_78\n      jump\t// in\n    tag_158:\n        /* \"#utility.yul\":6369:6374   */\n      dup3\n        /* \"#utility.yul\":6396:6436   */\n      tag_159\n        /* \"#utility.yul\":6430:6435   */\n      dup5\n        /* \"#utility.yul\":6396:6436   */\n      tag_87\n      jump\t// in\n    tag_159:\n        /* \"#utility.yul\":6384:6436   */\n      swap1\n      pop\n        /* \"#utility.yul\":6455:6489   */\n      tag_160\n        /* \"#utility.yul\":6480:6488   */\n      dup2\n        /* \"#utility.yul\":6455:6489   */\n      tag_88\n      jump\t// in\n    tag_160:\n        /* \"#utility.yul\":6446:6489   */\n      swap3\n      pop\n        /* \"#utility.yul\":6513:6514   */\n      0x04\n        /* \"#utility.yul\":6505:6511   */\n      dup3\n        /* \"#utility.yul\":6502:6515   */\n      lt\n        /* \"#utility.yul\":6499:6775   */\n      iszero\n      tag_161\n      jumpi\n        /* \"#utility.yul\":6583:6751   */\n      tag_162\n        /* \"#utility.yul\":6667:6733   */\n      0xffffffff00000000000000000000000000000000000000000000000000000000\n        /* \"#utility.yul\":6637:6643   */\n      dup4\n        /* \"#utility.yul\":6634:6635   */\n      0x04\n        /* \"#utility.yul\":6630:6644   */\n      sub\n        /* \"#utility.yul\":6627:6628   */\n      0x08\n        /* \"#utility.yul\":6623:6645   */\n      mul\n        /* \"#utility.yul\":6583:6751   */\n      tag_89\n      jump\t// in\n    tag_162:\n        /* \"#utility.yul\":6560:6565   */\n      dup4\n        /* \"#utility.yul\":6539:6765   */\n      and\n        /* \"#utility.yul\":6530:6765   */\n      swap3\n      pop\n        /* \"#utility.yul\":6499:6775   */\n    tag_161:\n        /* \"#utility.yul\":6281:6782   */\n      pop\n      pop\n        /* \"#utility.yul\":6192:6782   */\n      swap2\n      swap1\n      pop\n      jump\t// out\n\n    auxdata: 0xa264697066735822122081f3e679f60a9a65c29de7a139d519bb5c6a6814381f2f93d0c5e12964f984b464736f6c634300081f0033\n}\n",
				"bytecode": {
					"linkReferences": {},
					"object": "6080604052348015600e575f5ffd5b506108538061001c5f395ff3fe608060405234801561000f575f5ffd5b506004361061007b575f3560e01c80639a41d3ad116100595780639a41d3ad14610111578063a9059cbb1461012f578063aad229d51461014b578063c6e93bad146101695761007b565b80631a7496bf1461007f5780632a69e0e5146100b05780637c0c5f23146100e1575b5f5ffd5b6100996004803603810190610094919061055f565b610187565b6040516100a79291906105f1565b60405180910390f35b6100ca60048036038101906100c5919061055f565b61029a565b6040516100d89291906105f1565b60405180910390f35b6100fb60048036038101906100f6919061055f565b610395565b6040516101089190610688565b60405180910390f35b610119610417565b60405161012691906106a8565b60405180910390f35b6101496004803603810190610144919061055f565b61045a565b005b6101536104a4565b60405161016091906106d0565b60405180910390f35b6101716104c8565b60405161017e91906106f8565b60405180910390f35b5f5f5f5f3073ffffffffffffffffffffffffffffffffffffffff1686866040516024016101b5929190610711565b6040516020818303038152906040527fa9059cbb000000000000000000000000000000000000000000000000000000007bffffffffffffffffffffffffffffffffffffffffffffffffffffffff19166020820180517bffffffffffffffffffffffffffffffffffffffffffffffffffffffff838183161783525050505060405161023f9190610772565b5f604051808303815f865af19150503d805f8114610278576040519150601f19603f3d011682016040523d82523d5f602084013e61027d565b606091505b50915091508061028c906107b7565b829350935050509250929050565b5f5f5f5f3073ffffffffffffffffffffffffffffffffffffffff166102bd610417565b87876040516024016102d0929190610711565b604051602081830303815290604052907bffffffffffffffffffffffffffffffffffffffffffffffffffffffff19166020820180517bffffffffffffffffffffffffffffffffffffffffffffffffffffffff838183161783525050505060405161033a9190610772565b5f604051808303815f865af19150503d805f8114610373576040519150601f19603f3d011682016040523d82523d5f602084013e610378565b606091505b509150915080610387906107b7565b829350935050509250929050565b606061039f610417565b83836040516024016103b2929190610711565b604051602081830303815290604052907bffffffffffffffffffffffffffffffffffffffffffffffffffffffff19166020820180517bffffffffffffffffffffffffffffffffffffffffffffffffffffffff8381831617835250505050905092915050565b5f6040518060400160405280601981526020017f7472616e7366657228616464726573732c75696e74323536290000000000000081525080519060200120905090565b815f5f6101000a81548173ffffffffffffffffffffffffffffffffffffffff021916908373ffffffffffffffffffffffffffffffffffffffff160217905550806001819055505050565b5f5f9054906101000a900473ffffffffffffffffffffffffffffffffffffffff1681565b60015481565b5f5ffd5b5f73ffffffffffffffffffffffffffffffffffffffff82169050919050565b5f6104fb826104d2565b9050919050565b61050b816104f1565b8114610515575f5ffd5b50565b5f8135905061052681610502565b92915050565b5f819050919050565b61053e8161052c565b8114610548575f5ffd5b50565b5f8135905061055981610535565b92915050565b5f5f60408385031215610575576105746104ce565b5b5f61058285828601610518565b92505060206105938582860161054b565b9150509250929050565b5f7fffffffff0000000000000000000000000000000000000000000000000000000082169050919050565b6105d18161059d565b82525050565b5f8115159050919050565b6105eb816105d7565b82525050565b5f6040820190506106045f8301856105c8565b61061160208301846105e2565b9392505050565b5f81519050919050565b5f82825260208201905092915050565b8281835e5f83830152505050565b5f601f19601f8301169050919050565b5f61065a82610618565b6106648185610622565b9350610674818560208601610632565b61067d81610640565b840191505092915050565b5f6020820190508181035f8301526106a08184610650565b905092915050565b5f6020820190506106bb5f8301846105c8565b92915050565b6106ca816104f1565b82525050565b5f6020820190506106e35f8301846106c1565b92915050565b6106f28161052c565b82525050565b5f60208201905061070b5f8301846106e9565b92915050565b5f6040820190506107245f8301856106c1565b61073160208301846106e9565b9392505050565b5f81905092915050565b5f61074c82610618565b6107568185610738565b9350610766818560208601610632565b80840191505092915050565b5f61077d8284610742565b915081905092915050565b5f819050602082019050919050565b5f6107a2825161059d565b80915050919050565b5f82821b905092915050565b5f6107c182610618565b826107cb84610788565b90506107d681610797565b92506004821015610816576108117fffffffff00000000000000000000000000000000000000000000000000000000836004036008026107ab565b831692505b505091905056fea264697066735822122081f3e679f60a9a65c29de7a139d519bb5c6a6814381f2f93d0c5e12964f984b464736f6c634300081f0033",
					"opcodes": "PUSH1 0x80 PUSH1 0x40 MSTORE CALLVALUE DUP1 ISZERO PUSH1 0xE JUMPI PUSH0 PUSH0 REVERT JUMPDEST POP PUSH2 0x853 DUP1 PUSH2 0x1C PUSH0 CODECOPY PUSH0 RETURN INVALID PUSH1 0x80 PUSH1 0x40 MSTORE CALLVALUE DUP1 ISZERO PUSH2 0xF JUMPI PUSH0 PUSH0 REVERT JUMPDEST POP PUSH1 0x4 CALLDATASIZE LT PUSH2 0x7B JUMPI PUSH0 CALLDATALOAD PUSH1 0xE0 SHR DUP1 PUSH4 0x9A41D3AD GT PUSH2 0x59 JUMPI DUP1 PUSH4 0x9A41D3AD EQ PUSH2 0x111 JUMPI DUP1 PUSH4 0xA9059CBB EQ PUSH2 0x12F JUMPI DUP1 PUSH4 0xAAD229D5 EQ PUSH2 0x14B JUMPI DUP1 PUSH4 0xC6E93BAD EQ PUSH2 0x169 JUMPI PUSH2 0x7B JUMP JUMPDEST DUP1 PUSH4 0x1A7496BF EQ PUSH2 0x7F JUMPI DUP1 PUSH4 0x2A69E0E5 EQ PUSH2 0xB0 JUMPI DUP1 PUSH4 0x7C0C5F23 EQ PUSH2 0xE1 JUMPI JUMPDEST PUSH0 PUSH0 REVERT JUMPDEST PUSH2 0x99 PUSH1 0x4 DUP1 CALLDATASIZE SUB DUP2 ADD SWAP1 PUSH2 0x94 SWAP2 SWAP1 PUSH2 0x55F JUMP JUMPDEST PUSH2 0x187 JUMP JUMPDEST PUSH1 0x40 MLOAD PUSH2 0xA7 SWAP3 SWAP2 SWAP1 PUSH2 0x5F1 JUMP JUMPDEST PUSH1 0x40 MLOAD DUP1 SWAP2 SUB SWAP1 RETURN JUMPDEST PUSH2 0xCA PUSH1 0x4 DUP1 CALLDATASIZE SUB DUP2 ADD SWAP1 PUSH2 0xC5 SWAP2 SWAP1 PUSH2 0x55F JUMP JUMPDEST PUSH2 0x29A JUMP JUMPDEST PUSH1 0x40 MLOAD PUSH2 0xD8 SWAP3 SWAP2 SWAP1 PUSH2 0x5F1 JUMP JUMPDEST PUSH1 0x40 MLOAD DUP1 SWAP2 SUB SWAP1 RETURN JUMPDEST PUSH2 0xFB PUSH1 0x4 DUP1 CALLDATASIZE SUB DUP2 ADD SWAP1 PUSH2 0xF6 SWAP2 SWAP1 PUSH2 0x55F JUMP JUMPDEST PUSH2 0x395 JUMP JUMPDEST PUSH1 0x40 MLOAD PUSH2 0x108 SWAP2 SWAP1 PUSH2 0x688 JUMP JUMPDEST PUSH1 0x40 MLOAD DUP1 SWAP2 SUB SWAP1 RETURN JUMPDEST PUSH2 0x119 PUSH2 0x417 JUMP JUMPDEST PUSH1 0x40 MLOAD PUSH2 0x126 SWAP2 SWAP1 PUSH2 0x6A8 JUMP JUMPDEST PUSH1 0x40 MLOAD DUP1 SWAP2 SUB SWAP1 RETURN JUMPDEST PUSH2 0x149 PUSH1 0x4 DUP1 CALLDATASIZE SUB DUP2 ADD SWAP1 PUSH2 0x144 SWAP2 SWAP1 PUSH2 0x55F JUMP JUMPDEST PUSH2 0x45A JUMP JUMPDEST STOP JUMPDEST PUSH2 0x153 PUSH2 0x4A4 JUMP JUMPDEST PUSH1 0x40 MLOAD PUSH2 0x160 SWAP2 SWAP1 PUSH2 0x6D0 JUMP JUMPDEST PUSH1 0x40 MLOAD DUP1 SWAP2 SUB SWAP1 RETURN JUMPDEST PUSH2 0x171 PUSH2 0x4C8 JUMP JUMPDEST PUSH1 0x40 MLOAD PUSH2 0x17E SWAP2 SWAP1 PUSH2 0x6F8 JUMP JUMPDEST PUSH1 0x40 MLOAD DUP1 SWAP2 SUB SWAP1 RETURN JUMPDEST PUSH0 PUSH0 PUSH0 PUSH0 ADDRESS PUSH20 0xFFFFFFFFFFFFFFFFFFFFFFFFFFFFFFFFFFFFFFFF AND DUP7 DUP7 PUSH1 0x40 MLOAD PUSH1 0x24 ADD PUSH2 0x1B5 SWAP3 SWAP2 SWAP1 PUSH2 0x711 JUMP JUMPDEST PUSH1 0x40 MLOAD PUSH1 0x20 DUP2 DUP4 SUB SUB DUP2 MSTORE SWAP1 PUSH1 0x40 MSTORE PUSH32 0xA9059CBB00000000000000000000000000000000000000000000000000000000 PUSH28 0xFFFFFFFFFFFFFFFFFFFFFFFFFFFFFFFFFFFFFFFFFFFFFFFFFFFFFFFF NOT AND PUSH1 0x20 DUP3 ADD DUP1 MLOAD PUSH28 0xFFFFFFFFFFFFFFFFFFFFFFFFFFFFFFFFFFFFFFFFFFFFFFFFFFFFFFFF DUP4 DUP2 DUP4 AND OR DUP4 MSTORE POP POP POP POP PUSH1 0x40 MLOAD PUSH2 0x23F SWAP2 SWAP1 PUSH2 0x772 JUMP JUMPDEST PUSH0 PUSH1 0x40 MLOAD DUP1 DUP4 SUB DUP2 PUSH0 DUP7 GAS CALL SWAP2 POP POP RETURNDATASIZE DUP1 PUSH0 DUP2 EQ PUSH2 0x278 JUMPI PUSH1 0x40 MLOAD SWAP2 POP PUSH1 0x1F NOT PUSH1 0x3F RETURNDATASIZE ADD AND DUP3 ADD PUSH1 0x40 MSTORE RETURNDATASIZE DUP3 MSTORE RETURNDATASIZE PUSH0 PUSH1 0x20 DUP5 ADD RETURNDATACOPY PUSH2 0x27D JUMP JUMPDEST PUSH1 0x60 SWAP2 POP JUMPDEST POP SWAP2 POP SWAP2 POP DUP1 PUSH2 0x28C SWAP1 PUSH2 0x7B7 JUMP JUMPDEST DUP3 SWAP4 POP SWAP4 POP POP POP SWAP3 POP SWAP3 SWAP1 POP JUMP JUMPDEST PUSH0 PUSH0 PUSH0 PUSH0 ADDRESS PUSH20 0xFFFFFFFFFFFFFFFFFFFFFFFFFFFFFFFFFFFFFFFF AND PUSH2 0x2BD PUSH2 0x417 JUMP JUMPDEST DUP8 DUP8 PUSH1 0x40 MLOAD PUSH1 0x24 ADD PUSH2 0x2D0 SWAP3 SWAP2 SWAP1 PUSH2 0x711 JUMP JUMPDEST PUSH1 0x40 MLOAD PUSH1 0x20 DUP2 DUP4 SUB SUB DUP2 MSTORE SWAP1 PUSH1 0x40 MSTORE SWAP1 PUSH28 0xFFFFFFFFFFFFFFFFFFFFFFFFFFFFFFFFFFFFFFFFFFFFFFFFFFFFFFFF NOT AND PUSH1 0x20 DUP3 ADD DUP1 MLOAD PUSH28 0xFFFFFFFFFFFFFFFFFFFFFFFFFFFFFFFFFFFFFFFFFFFFFFFFFFFFFFFF DUP4 DUP2 DUP4 AND OR DUP4 MSTORE POP POP POP POP PUSH1 0x40 MLOAD PUSH2 0x33A SWAP2 SWAP1 PUSH2 0x772 JUMP JUMPDEST PUSH0 PUSH1 0x40 MLOAD DUP1 DUP4 SUB DUP2 PUSH0 DUP7 GAS CALL SWAP2 POP POP RETURNDATASIZE DUP1 PUSH0 DUP2 EQ PUSH2 0x373 JUMPI PUSH1 0x40 MLOAD SWAP2 POP PUSH1 0x1F NOT PUSH1 0x3F RETURNDATASIZE ADD AND DUP3 ADD PUSH1 0x40 MSTORE RETURNDATASIZE DUP3 MSTORE RETURNDATASIZE PUSH0 PUSH1 0x20 DUP5 ADD RETURNDATACOPY PUSH2 0x378 JUMP JUMPDEST PUSH1 0x60 SWAP2 POP JUMPDEST POP SWAP2 POP SWAP2 POP DUP1 PUSH2 0x387 SWAP1 PUSH2 0x7B7 JUMP JUMPDEST DUP3 SWAP4 POP SWAP4 POP POP POP SWAP3 POP SWAP3 SWAP1 POP JUMP JUMPDEST PUSH1 0x60 PUSH2 0x39F PUSH2 0x417 JUMP JUMPDEST DUP4 DUP4 PUSH1 0x40 MLOAD PUSH1 0x24 ADD PUSH2 0x3B2 SWAP3 SWAP2 SWAP1 PUSH2 0x711 JUMP JUMPDEST PUSH1 0x40 MLOAD PUSH1 0x20 DUP2 DUP4 SUB SUB DUP2 MSTORE SWAP1 PUSH1 0x40 MSTORE SWAP1 PUSH28 0xFFFFFFFFFFFFFFFFFFFFFFFFFFFFFFFFFFFFFFFFFFFFFFFFFFFFFFFF NOT AND PUSH1 0x20 DUP3 ADD DUP1 MLOAD PUSH28 0xFFFFFFFFFFFFFFFFFFFFFFFFFFFFFFFFFFFFFFFFFFFFFFFFFFFFFFFF DUP4 DUP2 DUP4 AND OR DUP4 MSTORE POP POP POP POP SWAP1 POP SWAP3 SWAP2 POP POP JUMP JUMPDEST PUSH0 PUSH1 0x40 MLOAD DUP1 PUSH1 0x40 ADD PUSH1 0x40 MSTORE DUP1 PUSH1 0x19 DUP2 MSTORE PUSH1 0x20 ADD PUSH32 0x7472616E7366657228616464726573732C75696E743235362900000000000000 DUP2 MSTORE POP DUP1 MLOAD SWAP1 PUSH1 0x20 ADD KECCAK256 SWAP1 POP SWAP1 JUMP JUMPDEST DUP2 PUSH0 PUSH0 PUSH2 0x100 EXP DUP2 SLOAD DUP2 PUSH20 0xFFFFFFFFFFFFFFFFFFFFFFFFFFFFFFFFFFFFFFFF MUL NOT AND SWAP1 DUP4 PUSH20 0xFFFFFFFFFFFFFFFFFFFFFFFFFFFFFFFFFFFFFFFF AND MUL OR SWAP1 SSTORE POP DUP1 PUSH1 0x1 DUP2 SWAP1 SSTORE POP POP POP JUMP JUMPDEST PUSH0 PUSH0 SWAP1 SLOAD SWAP1 PUSH2 0x100 EXP SWAP1 DIV PUSH20 0xFFFFFFFFFFFFFFFFFFFFFFFFFFFFFFFFFFFFFFFF AND DUP2 JUMP JUMPDEST PUSH1 0x1 SLOAD DUP2 JUMP JUMPDEST PUSH0 PUSH0 REVERT JUMPDEST PUSH0 PUSH20 0xFFFFFFFFFFFFFFFFFFFFFFFFFFFFFFFFFFFFFFFF DUP3 AND SWAP1 POP SWAP2 SWAP1 POP JUMP JUMPDEST PUSH0 PUSH2 0x4FB DUP3 PUSH2 0x4D2 JUMP JUMPDEST SWAP1 POP SWAP2 SWAP1 POP JUMP JUMPDEST PUSH2 0x50B DUP2 PUSH2 0x4F1 JUMP JUMPDEST DUP2 EQ PUSH2 0x515 JUMPI PUSH0 PUSH0 REVERT JUMPDEST POP JUMP JUMPDEST PUSH0 DUP2 CALLDATALOAD SWAP1 POP PUSH2 0x526 DUP2 PUSH2 0x502 JUMP JUMPDEST SWAP3 SWAP2 POP POP JUMP JUMPDEST PUSH0 DUP2 SWAP1 POP SWAP2 SWAP1 POP JUMP JUMPDEST PUSH2 0x53E DUP2 PUSH2 0x52C JUMP JUMPDEST DUP2 EQ PUSH2 0x548 JUMPI PUSH0 PUSH0 REVERT JUMPDEST POP JUMP JUMPDEST PUSH0 DUP2 CALLDATALOAD SWAP1 POP PUSH2 0x559 DUP2 PUSH2 0x535 JUMP JUMPDEST SWAP3 SWAP2 POP POP JUMP JUMPDEST PUSH0 PUSH0 PUSH1 0x40 DUP4 DUP6 SUB SLT ISZERO PUSH2 0x575 JUMPI PUSH2 0x574 PUSH2 0x4CE JUMP JUMPDEST JUMPDEST PUSH0 PUSH2 0x582 DUP6 DUP3 DUP7 ADD PUSH2 0x518 JUMP JUMPDEST SWAP3 POP POP PUSH1 0x20 PUSH2 0x593 DUP6 DUP3 DUP7 ADD PUSH2 0x54B JUMP JUMPDEST SWAP2 POP POP SWAP3 POP SWAP3 SWAP1 POP JUMP JUMPDEST PUSH0 PUSH32 0xFFFFFFFF00000000000000000000000000000000000000000000000000000000 DUP3 AND SWAP1 POP SWAP2 SWAP1 POP JUMP JUMPDEST PUSH2 0x5D1 DUP2 PUSH2 0x59D JUMP JUMPDEST DUP3 MSTORE POP POP JUMP JUMPDEST PUSH0 DUP2 ISZERO ISZERO SWAP1 POP SWAP2 SWAP1 POP JUMP JUMPDEST PUSH2 0x5EB DUP2 PUSH2 0x5D7 JUMP JUMPDEST DUP3 MSTORE POP POP JUMP JUMPDEST PUSH0 PUSH1 0x40 DUP3 ADD SWAP1 POP PUSH2 0x604 PUSH0 DUP4 ADD DUP6 PUSH2 0x5C8 JUMP JUMPDEST PUSH2 0x611 PUSH1 0x20 DUP4 ADD DUP5 PUSH2 0x5E2 JUMP JUMPDEST SWAP4 SWAP3 POP POP POP JUMP JUMPDEST PUSH0 DUP2 MLOAD SWAP1 POP SWAP2 SWAP1 POP JUMP JUMPDEST PUSH0 DUP3 DUP3 MSTORE PUSH1 0x20 DUP3 ADD SWAP1 POP SWAP3 SWAP2 POP POP JUMP JUMPDEST DUP3 DUP2 DUP4 MCOPY PUSH0 DUP4 DUP4 ADD MSTORE POP POP POP JUMP JUMPDEST PUSH0 PUSH1 0x1F NOT PUSH1 0x1F DUP4 ADD AND SWAP1 POP SWAP2 SWAP1 POP JUMP JUMPDEST PUSH0 PUSH2 0x65A DUP3 PUSH2 0x618 JUMP JUMPDEST PUSH2 0x664 DUP2 DUP6 PUSH2 0x622 JUMP JUMPDEST SWAP4 POP PUSH2 0x674 DUP2 DUP6 PUSH1 0x20 DUP7 ADD PUSH2 0x632 JUMP JUMPDEST PUSH2 0x67D DUP2 PUSH2 0x640 JUMP JUMPDEST DUP5 ADD SWAP2 POP POP SWAP3 SWAP2 POP POP JUMP JUMPDEST PUSH0 PUSH1 0x20 DUP3 ADD SWAP1 POP DUP2 DUP2 SUB PUSH0 DUP4 ADD MSTORE PUSH2 0x6A0 DUP2 DUP5 PUSH2 0x650 JUMP JUMPDEST SWAP1 POP SWAP3 SWAP2 POP POP JUMP JUMPDEST PUSH0 PUSH1 0x20 DUP3 ADD SWAP1 POP PUSH2 0x6BB PUSH0 DUP4 ADD DUP5 PUSH2 0x5C8 JUMP JUMPDEST SWAP3 SWAP2 POP POP JUMP JUMPDEST PUSH2 0x6CA DUP2 PUSH2 0x4F1 JUMP JUMPDEST DUP3 MSTORE POP POP JUMP JUMPDEST PUSH0 PUSH1 0x20 DUP3 ADD SWAP1 POP PUSH2 0x6E3 PUSH0 DUP4 ADD DUP5 PUSH2 0x6C1 JUMP JUMPDEST SWAP3 SWAP2 POP POP JUMP JUMPDEST PUSH2 0x6F2 DUP2 PUSH2 0x52C JUMP JUMPDEST DUP3 MSTORE POP POP JUMP JUMPDEST PUSH0 PUSH1 0x20 DUP3 ADD SWAP1 POP PUSH2 0x70B PUSH0 DUP4 ADD DUP5 PUSH2 0x6E9 JUMP JUMPDEST SWAP3 SWAP2 POP POP JUMP JUMPDEST PUSH0 PUSH1 0x40 DUP3 ADD SWAP1 POP PUSH2 0x724 PUSH0 DUP4 ADD DUP6 PUSH2 0x6C1 JUMP JUMPDEST PUSH2 0x731 PUSH1 0x20 DUP4 ADD DUP5 PUSH2 0x6E9 JUMP JUMPDEST SWAP4 SWAP3 POP POP POP JUMP JUMPDEST PUSH0 DUP2 SWAP1 POP SWAP3 SWAP2 POP POP JUMP JUMPDEST PUSH0 PUSH2 0x74C DUP3 PUSH2 0x618 JUMP JUMPDEST PUSH2 0x756 DUP2 DUP6 PUSH2 0x738 JUMP JUMPDEST SWAP4 POP PUSH2 0x766 DUP2 DUP6 PUSH1 0x20 DUP7 ADD PUSH2 0x632 JUMP JUMPDEST DUP1 DUP5 ADD SWAP2 POP POP SWAP3 SWAP2 POP POP JUMP JUMPDEST PUSH0 PUSH2 0x77D DUP3 DUP5 PUSH2 0x742 JUMP JUMPDEST SWAP2 POP DUP2 SWAP1 POP SWAP3 SWAP2 POP POP JUMP JUMPDEST PUSH0 DUP2 SWAP1 POP PUSH1 0x20 DUP3 ADD SWAP1 POP SWAP2 SWAP1 POP JUMP JUMPDEST PUSH0 PUSH2 0x7A2 DUP3 MLOAD PUSH2 0x59D JUMP JUMPDEST DUP1 SWAP2 POP POP SWAP2 SWAP1 POP JUMP JUMPDEST PUSH0 DUP3 DUP3 SHL SWAP1 POP SWAP3 SWAP2 POP POP JUMP JUMPDEST PUSH0 PUSH2 0x7C1 DUP3 PUSH2 0x618 JUMP JUMPDEST DUP3 PUSH2 0x7CB DUP5 PUSH2 0x788 JUMP JUMPDEST SWAP1 POP PUSH2 0x7D6 DUP2 PUSH2 0x797 JUMP JUMPDEST SWAP3 POP PUSH1 0x4 DUP3 LT ISZERO PUSH2 0x816 JUMPI PUSH2 0x811 PUSH32 0xFFFFFFFF00000000000000000000000000000000000000000000000000000000 DUP4 PUSH1 0x4 SUB PUSH1 0x8 MUL PUSH2 0x7AB JUMP JUMPDEST DUP4 AND SWAP3 POP JUMPDEST POP POP SWAP2 SWAP1 POP JUMP INVALID LOG2 PUSH5 0x6970667358 0x22 SLT KECCAK256 DUP2 RETURN DUPN 0x79 0xF6 EXP SWAP11 PUSH6 0xC29DE7A139D5 NOT 0xBB TLOAD PUSH11 0x6814381F2F93D0C5E12964 EXTDELEGATECALL DUP5 0xB4 PUSH5 0x736F6C6343 STOP ADDMOD 0x1F STOP CALLER "
				},
				"gasEstimates": {
					"creation": {
						"codeDepositCost": "426200",
						"executionCost": "459",
						"totalCost": "426659"
					},
					"external": {
						"callTransferFunctionDirectlySelector(address,uint256)": "infinite",
						"callTransferFunctionDirectlySignature(address,uint256)": "infinite",
						"getDataToCallTransfer(address,uint256)": "infinite",
						"getSelectorOne()": "442",
						"s_amount()": "2491",
						"s_someAddress()": "2551",
						"transfer(address,uint256)": "47020"
					}
				},
				"methodIdentifiers": {
					"callTransferFunctionDirectlySelector(address,uint256)": "2a69e0e5",
					"callTransferFunctionDirectlySignature(address,uint256)": "1a7496bf",
					"getDataToCallTransfer(address,uint256)": "7c0c5f23",
					"getSelectorOne()": "9a41d3ad",
					"s_amount()": "c6e93bad",
					"s_someAddress()": "aad229d5",
					"transfer(address,uint256)": "a9059cbb"
				}
			},
			"storageLayout": {
				"storage": [
					{
						"astId": 3,
						"contract": "contracts/CallAnything.sol:CallAnything",
						"label": "s_someAddress",
						"offset": 0,
						"slot": "0",
						"type": "t_address"
					},
					{
						"astId": 5,
						"contract": "contracts/CallAnything.sol:CallAnything",
						"label": "s_amount",
						"offset": 0,
						"slot": "1",
						"type": "t_uint256"
					}
				],
				"types": {
					"t_address": {
						"encoding": "inplace",
						"label": "address",
						"numberOfBytes": "20"
					},
					"t_uint256": {
						"encoding": "inplace",
						"label": "uint256",
						"numberOfBytes": "32"
					}
				}
			},
			"userdoc": {
				"kind": "user",
				"methods": {},
				"version": 1
			}
		}
	}
}