{
	"contracts/CCIP/CCIP chainlink local/MessageSender.sol": {
		"MessageSender": {
			"abi": [
				{
					"inputs": [
						{
							"internalType": "address",
							"name": "_router",
							"type": "address"
						},
						{
							"internalType": "address",
							"name": "_link",
							"type": "address"
						}
					],
					"stateMutability": "nonpayable",
					"type": "constructor"
				},
				{
					"inputs": [
						{
							"internalType": "uint256",
							"name": "currentBalance",
							"type": "uint256"
						},
						{
							"internalType": "uint256",
							"name": "calculatedFees",
							"type": "uint256"
						}
					],
					"name": "NotEnoughBalance",
					"type": "error"
				},
				{
					"inputs": [
						{
							"internalType": "address",
							"name": "owner",
							"type": "address"
						}
					],
					"name": "OwnableInvalidOwner",
					"type": "error"
				},
				{
					"inputs": [
						{
							"internalType": "address",
							"name": "account",
							"type": "address"
						}
					],
					"name": "OwnableUnauthorizedAccount",
					"type": "error"
				},
				{
					"anonymous": false,
					"inputs": [
						{
							"indexed": true,
							"internalType": "bytes32",
							"name": "messageId",
							"type": "bytes32"
						},
						{
							"indexed": true,
							"internalType": "uint64",
							"name": "destinationChainSelector",
							"type": "uint64"
						},
						{
							"indexed": false,
							"internalType": "address",
							"name": "receiver",
							"type": "address"
						},
						{
							"indexed": false,
							"internalType": "string",
							"name": "text",
							"type": "string"
						},
						{
							"indexed": false,
							"internalType": "address",
							"name": "feeToken",
							"type": "address"
						},
						{
							"indexed": false,
							"internalType": "uint256",
							"name": "fees",
							"type": "uint256"
						}
					],
					"name": "MessageSent",
					"type": "event"
				},
				{
					"anonymous": false,
					"inputs": [
						{
							"indexed": true,
							"internalType": "address",
							"name": "previousOwner",
							"type": "address"
						},
						{
							"indexed": true,
							"internalType": "address",
							"name": "newOwner",
							"type": "address"
						}
					],
					"name": "OwnershipTransferred",
					"type": "event"
				},
				{
					"inputs": [],
					"name": "owner",
					"outputs": [
						{
							"internalType": "address",
							"name": "",
							"type": "address"
						}
					],
					"stateMutability": "view",
					"type": "function"
				},
				{
					"inputs": [],
					"name": "renounceOwnership",
					"outputs": [],
					"stateMutability": "nonpayable",
					"type": "function"
				},
				{
					"inputs": [
						{
							"internalType": "uint64",
							"name": "destinationChainSelector",
							"type": "uint64"
						},
						{
							"internalType": "address",
							"name": "receiver",
							"type": "address"
						}
					],
					"name": "sendMessage",
					"outputs": [
						{
							"internalType": "bytes32",
							"name": "messageId",
							"type": "bytes32"
						}
					],
					"stateMutability": "nonpayable",
					"type": "function"
				},
				{
					"inputs": [
						{
							"internalType": "address",
							"name": "newOwner",
							"type": "address"
						}
					],
					"name": "transferOwnership",
					"outputs": [],
					"stateMutability": "nonpayable",
					"type": "function"
				}
			],
			"devdoc": {
				"errors": {
					"OwnableInvalidOwner(address)": [
						{
							"details": "The owner is not a valid owner account. (eg. `address(0)`)"
						}
					],
					"OwnableUnauthorizedAccount(address)": [
						{
							"details": "The caller account is not authorized to perform an operation."
						}
					]
				},
				"kind": "dev",
				"methods": {
					"constructor": {
						"params": {
							"_link": "The address of the link contract.",
							"_router": "The address of the router contract."
						}
					},
					"owner()": {
						"details": "Returns the address of the current owner."
					},
					"renounceOwnership()": {
						"details": "Leaves the contract without owner. It will not be possible to call `onlyOwner` functions. Can only be called by the current owner. NOTE: Renouncing ownership will leave the contract without an owner, thereby disabling any functionality that is only available to the owner."
					},
					"sendMessage(uint64,address)": {
						"details": "Assumes your contract has sufficient LINK.",
						"params": {
							"destinationChainSelector": "The identifier (aka selector) for the destination blockchain.",
							"receiver": "The address of the recipient on the destination blockchain."
						},
						"returns": {
							"messageId": "The ID of the message that was sent."
						}
					},
					"transferOwnership(address)": {
						"details": "Transfers ownership of the contract to a new account (`newOwner`). Can only be called by the current owner."
					}
				},
				"title": "- A simple contract for sending string data across chains.",
				"version": 1
			},
			"evm": {
				"assembly": "    /* \"contracts/CCIP/CCIP chainlink local/MessageSender.sol\":711:4186  contract MessageSender is Ownable {... */\n  mstore(0x40, 0x80)\n    /* \"contracts/CCIP/CCIP chainlink local/MessageSender.sol\":1756:1910  constructor(address _router, address _link) Ownable(msg.sender) {... */\n  callvalue\n  dup1\n  iszero\n  tag_1\n  jumpi\n  revert(0x00, 0x00)\ntag_1:\n  pop\n  mload(0x40)\n  sub(codesize, bytecodeSize)\n  dup1\n  bytecodeSize\n  dup4\n  codecopy\n  dup2\n  dup2\n  add\n  0x40\n  mstore\n  dup2\n  add\n  swap1\n  tag_2\n  swap2\n  swap1\n  tag_3\n  jump\t// in\ntag_2:\n    /* \"contracts/CCIP/CCIP chainlink local/MessageSender.sol\":1808:1818  msg.sender */\n  caller\n    /* \"@openzeppelin/contracts@5.2.0/access/Ownable.sol\":1297:1298  0 */\n  0x00\n    /* \"@openzeppelin/contracts@5.2.0/access/Ownable.sol\":1273:1299  initialOwner == address(0) */\n  0xffffffffffffffffffffffffffffffffffffffff\n  and\n    /* \"@openzeppelin/contracts@5.2.0/access/Ownable.sol\":1273:1285  initialOwner */\n  dup2\n    /* \"@openzeppelin/contracts@5.2.0/access/Ownable.sol\":1273:1299  initialOwner == address(0) */\n  0xffffffffffffffffffffffffffffffffffffffff\n  and\n  sub\n    /* \"@openzeppelin/contracts@5.2.0/access/Ownable.sol\":1269:1364  if (initialOwner == address(0)) {... */\n  tag_7\n  jumpi\n    /* \"@openzeppelin/contracts@5.2.0/access/Ownable.sol\":1350:1351  0 */\n  0x00\n    /* \"@openzeppelin/contracts@5.2.0/access/Ownable.sol\":1322:1353  OwnableInvalidOwner(address(0)) */\n  mload(0x40)\n  0x1e4fbdf700000000000000000000000000000000000000000000000000000000\n  dup2\n  mstore\n  0x04\n  add\n  tag_8\n  swap2\n  swap1\n  tag_9\n  jump\t// in\ntag_8:\n  mload(0x40)\n  dup1\n  swap2\n  sub\n  swap1\n  revert\n    /* \"@openzeppelin/contracts@5.2.0/access/Ownable.sol\":1269:1364  if (initialOwner == address(0)) {... */\ntag_7:\n    /* \"@openzeppelin/contracts@5.2.0/access/Ownable.sol\":1373:1405  _transferOwnership(initialOwner) */\n  tag_10\n    /* \"@openzeppelin/contracts@5.2.0/access/Ownable.sol\":1392:1404  initialOwner */\n  dup2\n    /* \"@openzeppelin/contracts@5.2.0/access/Ownable.sol\":1373:1391  _transferOwnership */\n  shl(0x20, tag_11)\n    /* \"@openzeppelin/contracts@5.2.0/access/Ownable.sol\":1373:1405  _transferOwnership(initialOwner) */\n  0x20\n  shr\n  jump\t// in\ntag_10:\n    /* \"@openzeppelin/contracts@5.2.0/access/Ownable.sol\":1225:1412  constructor(address initialOwner) {... */\n  pop\n    /* \"contracts/CCIP/CCIP chainlink local/MessageSender.sol\":1856:1863  _router */\n  dup2\n    /* \"contracts/CCIP/CCIP chainlink local/MessageSender.sol\":1831:1839  s_router */\n  0x01\n  0x00\n    /* \"contracts/CCIP/CCIP chainlink local/MessageSender.sol\":1831:1864  s_router = IRouterClient(_router) */\n  0x0100\n  exp\n  dup2\n  sload\n  dup2\n  0xffffffffffffffffffffffffffffffffffffffff\n  mul\n  not\n  and\n  swap1\n  dup4\n  0xffffffffffffffffffffffffffffffffffffffff\n  and\n  mul\n  or\n  swap1\n  sstore\n  pop\n    /* \"contracts/CCIP/CCIP chainlink local/MessageSender.sol\":1896:1901  _link */\n  dup1\n    /* \"contracts/CCIP/CCIP chainlink local/MessageSender.sol\":1875:1886  s_linkToken */\n  0x02\n  0x00\n    /* \"contracts/CCIP/CCIP chainlink local/MessageSender.sol\":1875:1902  s_linkToken = IERC20(_link) */\n  0x0100\n  exp\n  dup2\n  sload\n  dup2\n  0xffffffffffffffffffffffffffffffffffffffff\n  mul\n  not\n  and\n  swap1\n  dup4\n  0xffffffffffffffffffffffffffffffffffffffff\n  and\n  mul\n  or\n  swap1\n  sstore\n  pop\n    /* \"contracts/CCIP/CCIP chainlink local/MessageSender.sol\":1756:1910  constructor(address _router, address _link) Ownable(msg.sender) {... */\n  pop\n  pop\n    /* \"contracts/CCIP/CCIP chainlink local/MessageSender.sol\":711:4186  contract MessageSender is Ownable {... */\n  jump(tag_13)\n    /* \"@openzeppelin/contracts@5.2.0/access/Ownable.sol\":2912:3099  function _transferOwnership(address newOwner) internal virtual {... */\ntag_11:\n    /* \"@openzeppelin/contracts@5.2.0/access/Ownable.sol\":2985:3001  address oldOwner */\n  0x00\n    /* \"@openzeppelin/contracts@5.2.0/access/Ownable.sol\":3004:3010  _owner */\n  0x00\n  0x00\n  swap1\n  sload\n  swap1\n  0x0100\n  exp\n  swap1\n  div\n  0xffffffffffffffffffffffffffffffffffffffff\n  and\n    /* \"@openzeppelin/contracts@5.2.0/access/Ownable.sol\":2985:3010  address oldOwner = _owner */\n  swap1\n  pop\n    /* \"@openzeppelin/contracts@5.2.0/access/Ownable.sol\":3029:3037  newOwner */\n  dup2\n    /* \"@openzeppelin/contracts@5.2.0/access/Ownable.sol\":3020:3026  _owner */\n  0x00\n  0x00\n    /* \"@openzeppelin/contracts@5.2.0/access/Ownable.sol\":3020:3037  _owner = newOwner */\n  0x0100\n  exp\n  dup2\n  sload\n  dup2\n  0xffffffffffffffffffffffffffffffffffffffff\n  mul\n  not\n  and\n  swap1\n  dup4\n  0xffffffffffffffffffffffffffffffffffffffff\n  and\n  mul\n  or\n  swap1\n  sstore\n  pop\n    /* \"@openzeppelin/contracts@5.2.0/access/Ownable.sol\":3083:3091  newOwner */\n  dup2\n    /* \"@openzeppelin/contracts@5.2.0/access/Ownable.sol\":3052:3092  OwnershipTransferred(oldOwner, newOwner) */\n  0xffffffffffffffffffffffffffffffffffffffff\n  and\n    /* \"@openzeppelin/contracts@5.2.0/access/Ownable.sol\":3073:3081  oldOwner */\n  dup2\n    /* \"@openzeppelin/contracts@5.2.0/access/Ownable.sol\":3052:3092  OwnershipTransferred(oldOwner, newOwner) */\n  0xffffffffffffffffffffffffffffffffffffffff\n  and\n  0x8be0079c531659141344cd1fd0a4f28419497f9722a3daafe3b4186f6b6457e0\n  mload(0x40)\n  mload(0x40)\n  dup1\n  swap2\n  sub\n  swap1\n  log3\n    /* \"@openzeppelin/contracts@5.2.0/access/Ownable.sol\":2975:3099  {... */\n  pop\n    /* \"@openzeppelin/contracts@5.2.0/access/Ownable.sol\":2912:3099  function _transferOwnership(address newOwner) internal virtual {... */\n  pop\n  jump\t// out\n    /* \"#utility.yul\":88:205   */\ntag_16:\n    /* \"#utility.yul\":197:198   */\n  0x00\n    /* \"#utility.yul\":194:195   */\n  0x00\n    /* \"#utility.yul\":187:199   */\n  revert\n    /* \"#utility.yul\":334:460   */\ntag_18:\n    /* \"#utility.yul\":371:378   */\n  0x00\n    /* \"#utility.yul\":411:453   */\n  0xffffffffffffffffffffffffffffffffffffffff\n    /* \"#utility.yul\":404:409   */\n  dup3\n    /* \"#utility.yul\":400:454   */\n  and\n    /* \"#utility.yul\":389:454   */\n  swap1\n  pop\n    /* \"#utility.yul\":334:460   */\n  swap2\n  swap1\n  pop\n  jump\t// out\n    /* \"#utility.yul\":466:562   */\ntag_19:\n    /* \"#utility.yul\":503:510   */\n  0x00\n    /* \"#utility.yul\":532:556   */\n  tag_29\n    /* \"#utility.yul\":550:555   */\n  dup3\n    /* \"#utility.yul\":532:556   */\n  tag_18\n  jump\t// in\ntag_29:\n    /* \"#utility.yul\":521:556   */\n  swap1\n  pop\n    /* \"#utility.yul\":466:562   */\n  swap2\n  swap1\n  pop\n  jump\t// out\n    /* \"#utility.yul\":568:690   */\ntag_20:\n    /* \"#utility.yul\":641:665   */\n  tag_31\n    /* \"#utility.yul\":659:664   */\n  dup2\n    /* \"#utility.yul\":641:665   */\n  tag_19\n  jump\t// in\ntag_31:\n    /* \"#utility.yul\":634:639   */\n  dup2\n    /* \"#utility.yul\":631:666   */\n  eq\n    /* \"#utility.yul\":621:684   */\n  tag_32\n  jumpi\n    /* \"#utility.yul\":680:681   */\n  0x00\n    /* \"#utility.yul\":677:678   */\n  0x00\n    /* \"#utility.yul\":670:682   */\n  revert\n    /* \"#utility.yul\":621:684   */\ntag_32:\n    /* \"#utility.yul\":568:690   */\n  pop\n  jump\t// out\n    /* \"#utility.yul\":696:839   */\ntag_21:\n    /* \"#utility.yul\":753:758   */\n  0x00\n    /* \"#utility.yul\":784:790   */\n  dup2\n    /* \"#utility.yul\":778:791   */\n  mload\n    /* \"#utility.yul\":769:791   */\n  swap1\n  pop\n    /* \"#utility.yul\":800:833   */\n  tag_34\n    /* \"#utility.yul\":827:832   */\n  dup2\n    /* \"#utility.yul\":800:833   */\n  tag_20\n  jump\t// in\ntag_34:\n    /* \"#utility.yul\":696:839   */\n  swap3\n  swap2\n  pop\n  pop\n  jump\t// out\n    /* \"#utility.yul\":845:1352   */\ntag_3:\n    /* \"#utility.yul\":924:930   */\n  0x00\n    /* \"#utility.yul\":932:938   */\n  0x00\n    /* \"#utility.yul\":981:983   */\n  0x40\n    /* \"#utility.yul\":969:978   */\n  dup4\n    /* \"#utility.yul\":960:967   */\n  dup6\n    /* \"#utility.yul\":956:979   */\n  sub\n    /* \"#utility.yul\":952:984   */\n  slt\n    /* \"#utility.yul\":949:1068   */\n  iszero\n  tag_36\n  jumpi\n    /* \"#utility.yul\":987:1066   */\n  tag_37\n  tag_16\n  jump\t// in\ntag_37:\n    /* \"#utility.yul\":949:1068   */\ntag_36:\n    /* \"#utility.yul\":1107:1108   */\n  0x00\n    /* \"#utility.yul\":1132:1196   */\n  tag_38\n    /* \"#utility.yul\":1188:1195   */\n  dup6\n    /* \"#utility.yul\":1179:1185   */\n  dup3\n    /* \"#utility.yul\":1168:1177   */\n  dup7\n    /* \"#utility.yul\":1164:1186   */\n  add\n    /* \"#utility.yul\":1132:1196   */\n  tag_21\n  jump\t// in\ntag_38:\n    /* \"#utility.yul\":1122:1196   */\n  swap3\n  pop\n    /* \"#utility.yul\":1078:1206   */\n  pop\n    /* \"#utility.yul\":1245:1247   */\n  0x20\n    /* \"#utility.yul\":1271:1335   */\n  tag_39\n    /* \"#utility.yul\":1327:1334   */\n  dup6\n    /* \"#utility.yul\":1318:1324   */\n  dup3\n    /* \"#utility.yul\":1307:1316   */\n  dup7\n    /* \"#utility.yul\":1303:1325   */\n  add\n    /* \"#utility.yul\":1271:1335   */\n  tag_21\n  jump\t// in\ntag_39:\n    /* \"#utility.yul\":1261:1335   */\n  swap2\n  pop\n    /* \"#utility.yul\":1216:1345   */\n  pop\n    /* \"#utility.yul\":845:1352   */\n  swap3\n  pop\n  swap3\n  swap1\n  pop\n  jump\t// out\n    /* \"#utility.yul\":1358:1476   */\ntag_22:\n    /* \"#utility.yul\":1445:1469   */\n  tag_41\n    /* \"#utility.yul\":1463:1468   */\n  dup2\n    /* \"#utility.yul\":1445:1469   */\n  tag_19\n  jump\t// in\ntag_41:\n    /* \"#utility.yul\":1440:1443   */\n  dup3\n    /* \"#utility.yul\":1433:1470   */\n  mstore\n    /* \"#utility.yul\":1358:1476   */\n  pop\n  pop\n  jump\t// out\n    /* \"#utility.yul\":1482:1704   */\ntag_9:\n    /* \"#utility.yul\":1575:1579   */\n  0x00\n    /* \"#utility.yul\":1613:1615   */\n  0x20\n    /* \"#utility.yul\":1602:1611   */\n  dup3\n    /* \"#utility.yul\":1598:1616   */\n  add\n    /* \"#utility.yul\":1590:1616   */\n  swap1\n  pop\n    /* \"#utility.yul\":1626:1697   */\n  tag_43\n    /* \"#utility.yul\":1694:1695   */\n  0x00\n    /* \"#utility.yul\":1683:1692   */\n  dup4\n    /* \"#utility.yul\":1679:1696   */\n  add\n    /* \"#utility.yul\":1670:1676   */\n  dup5\n    /* \"#utility.yul\":1626:1697   */\n  tag_22\n  jump\t// in\ntag_43:\n    /* \"#utility.yul\":1482:1704   */\n  swap3\n  swap2\n  pop\n  pop\n  jump\t// out\n    /* \"contracts/CCIP/CCIP chainlink local/MessageSender.sol\":711:4186  contract MessageSender is Ownable {... */\ntag_13:\n  dataSize(sub_0)\n  dup1\n  dataOffset(sub_0)\n  0x00\n  codecopy\n  0x00\n  return\nstop\n\nsub_0: assembly {\n        /* \"contracts/CCIP/CCIP chainlink local/MessageSender.sol\":711:4186  contract MessageSender is Ownable {... */\n      mstore(0x40, 0x80)\n      callvalue\n      dup1\n      iszero\n      tag_1\n      jumpi\n      revert(0x00, 0x00)\n    tag_1:\n      pop\n      jumpi(tag_2, lt(calldatasize, 0x04))\n      shr(0xe0, calldataload(0x00))\n      dup1\n      0x715018a6\n      eq\n      tag_3\n      jumpi\n      dup1\n      0x8da5cb5b\n      eq\n      tag_4\n      jumpi\n      dup1\n      0xa723269d\n      eq\n      tag_5\n      jumpi\n      dup1\n      0xf2fde38b\n      eq\n      tag_6\n      jumpi\n    tag_2:\n      revert(0x00, 0x00)\n        /* \"@openzeppelin/contracts@5.2.0/access/Ownable.sol\":2293:2394  function renounceOwnership() public virtual onlyOwner {... */\n    tag_3:\n      tag_7\n      tag_8\n      jump\t// in\n    tag_7:\n      stop\n        /* \"@openzeppelin/contracts@5.2.0/access/Ownable.sol\":1638:1723  function owner() public view virtual returns (address) {... */\n    tag_4:\n      tag_9\n      tag_10\n      jump\t// in\n    tag_9:\n      mload(0x40)\n      tag_11\n      swap2\n      swap1\n      tag_12\n      jump\t// in\n    tag_11:\n      mload(0x40)\n      dup1\n      swap2\n      sub\n      swap1\n      return\n        /* \"contracts/CCIP/CCIP chainlink local/MessageSender.sol\":2293:4183  function sendMessage(... */\n    tag_5:\n      tag_13\n      0x04\n      dup1\n      calldatasize\n      sub\n      dup2\n      add\n      swap1\n      tag_14\n      swap2\n      swap1\n      tag_15\n      jump\t// in\n    tag_14:\n      tag_16\n      jump\t// in\n    tag_13:\n      mload(0x40)\n      tag_17\n      swap2\n      swap1\n      tag_18\n      jump\t// in\n    tag_17:\n      mload(0x40)\n      dup1\n      swap2\n      sub\n      swap1\n      return\n        /* \"@openzeppelin/contracts@5.2.0/access/Ownable.sol\":2543:2758  function transferOwnership(address newOwner) public virtual onlyOwner {... */\n    tag_6:\n      tag_19\n      0x04\n      dup1\n      calldatasize\n      sub\n      dup2\n      add\n      swap1\n      tag_20\n      swap2\n      swap1\n      tag_21\n      jump\t// in\n    tag_20:\n      tag_22\n      jump\t// in\n    tag_19:\n      stop\n        /* \"@openzeppelin/contracts@5.2.0/access/Ownable.sol\":2293:2394  function renounceOwnership() public virtual onlyOwner {... */\n    tag_8:\n        /* \"@openzeppelin/contracts@5.2.0/access/Ownable.sol\":1531:1544  _checkOwner() */\n      tag_24\n        /* \"@openzeppelin/contracts@5.2.0/access/Ownable.sol\":1531:1542  _checkOwner */\n      tag_25\n        /* \"@openzeppelin/contracts@5.2.0/access/Ownable.sol\":1531:1544  _checkOwner() */\n      jump\t// in\n    tag_24:\n        /* \"@openzeppelin/contracts@5.2.0/access/Ownable.sol\":2357:2387  _transferOwnership(address(0)) */\n      tag_27\n        /* \"@openzeppelin/contracts@5.2.0/access/Ownable.sol\":2384:2385  0 */\n      0x00\n        /* \"@openzeppelin/contracts@5.2.0/access/Ownable.sol\":2357:2375  _transferOwnership */\n      tag_28\n        /* \"@openzeppelin/contracts@5.2.0/access/Ownable.sol\":2357:2387  _transferOwnership(address(0)) */\n      jump\t// in\n    tag_27:\n        /* \"@openzeppelin/contracts@5.2.0/access/Ownable.sol\":2293:2394  function renounceOwnership() public virtual onlyOwner {... */\n      jump\t// out\n        /* \"@openzeppelin/contracts@5.2.0/access/Ownable.sol\":1638:1723  function owner() public view virtual returns (address) {... */\n    tag_10:\n        /* \"@openzeppelin/contracts@5.2.0/access/Ownable.sol\":1684:1691  address */\n      0x00\n        /* \"@openzeppelin/contracts@5.2.0/access/Ownable.sol\":1710:1716  _owner */\n      0x00\n      0x00\n      swap1\n      sload\n      swap1\n      0x0100\n      exp\n      swap1\n      div\n      0xffffffffffffffffffffffffffffffffffffffff\n      and\n        /* \"@openzeppelin/contracts@5.2.0/access/Ownable.sol\":1703:1716  return _owner */\n      swap1\n      pop\n        /* \"@openzeppelin/contracts@5.2.0/access/Ownable.sol\":1638:1723  function owner() public view virtual returns (address) {... */\n      swap1\n      jump\t// out\n        /* \"contracts/CCIP/CCIP chainlink local/MessageSender.sol\":2293:4183  function sendMessage(... */\n    tag_16:\n        /* \"contracts/CCIP/CCIP chainlink local/MessageSender.sol\":2418:2435  bytes32 messageId */\n      0x00\n        /* \"@openzeppelin/contracts@5.2.0/access/Ownable.sol\":1531:1544  _checkOwner() */\n      tag_31\n        /* \"@openzeppelin/contracts@5.2.0/access/Ownable.sol\":1531:1542  _checkOwner */\n      tag_25\n        /* \"@openzeppelin/contracts@5.2.0/access/Ownable.sol\":1531:1544  _checkOwner() */\n      jump\t// in\n    tag_31:\n        /* \"contracts/CCIP/CCIP chainlink local/MessageSender.sol\":2563:2606  Client.EVM2AnyMessage memory evm2AnyMessage */\n      0x00\n        /* \"contracts/CCIP/CCIP chainlink local/MessageSender.sol\":2609:3210  Client.EVM2AnyMessage({... */\n      mload(0x40)\n      dup1\n      0xa0\n      add\n      0x40\n      mstore\n      dup1\n        /* \"contracts/CCIP/CCIP chainlink local/MessageSender.sol\":2667:2675  receiver */\n      dup5\n        /* \"contracts/CCIP/CCIP chainlink local/MessageSender.sol\":2656:2676  abi.encode(receiver) */\n      add(0x20, mload(0x40))\n      tag_33\n      swap2\n      swap1\n      tag_12\n      jump\t// in\n    tag_33:\n      mload(0x40)\n      0x20\n      dup2\n      dup4\n      sub\n      sub\n      dup2\n      mstore\n      swap1\n      0x40\n      mstore\n        /* \"contracts/CCIP/CCIP chainlink local/MessageSender.sol\":2609:3210  Client.EVM2AnyMessage({... */\n      dup2\n      mstore\n      0x20\n      add\n        /* \"contracts/CCIP/CCIP chainlink local/MessageSender.sol\":2729:2768  abi.encode(\"Hey there! I am Sudhanshu\") */\n      add(0x20, mload(0x40))\n      tag_34\n      swap1\n      tag_35\n      jump\t// in\n    tag_34:\n      mload(0x40)\n      0x20\n      dup2\n      dup4\n      sub\n      sub\n      dup2\n      mstore\n      swap1\n      0x40\n      mstore\n        /* \"contracts/CCIP/CCIP chainlink local/MessageSender.sol\":2609:3210  Client.EVM2AnyMessage({... */\n      dup2\n      mstore\n      0x20\n      add\n        /* \"contracts/CCIP/CCIP chainlink local/MessageSender.sol\":2847:2848  0 */\n      0x00\n        /* \"contracts/CCIP/CCIP chainlink local/MessageSender.sol\":2819:2849  new Client.EVMTokenAmount[](0) */\n      0xffffffffffffffff\n      dup2\n      gt\n      iszero\n      tag_36\n      jumpi\n      tag_37\n      tag_38\n      jump\t// in\n    tag_37:\n    tag_36:\n      mload(0x40)\n      swap1\n      dup1\n      dup3\n      mstore\n      dup1\n      0x20\n      mul\n      0x20\n      add\n      dup3\n      add\n      0x40\n      mstore\n      dup1\n      iszero\n      tag_39\n      jumpi\n      dup2\n      0x20\n      add\n    tag_40:\n      tag_41\n      tag_42\n      jump\t// in\n    tag_41:\n      dup2\n      mstore\n      0x20\n      add\n      swap1\n      0x01\n      swap1\n      sub\n      swap1\n      dup2\n      tag_40\n      jumpi\n      swap1\n      pop\n    tag_39:\n      pop\n        /* \"contracts/CCIP/CCIP chainlink local/MessageSender.sol\":2609:3210  Client.EVM2AnyMessage({... */\n      dup2\n      mstore\n      0x20\n      add\n        /* \"contracts/CCIP/CCIP chainlink local/MessageSender.sol\":3186:3197  s_linkToken */\n      0x02\n      0x00\n      swap1\n      sload\n      swap1\n      0x0100\n      exp\n      swap1\n      div\n      0xffffffffffffffffffffffffffffffffffffffff\n      and\n        /* \"contracts/CCIP/CCIP chainlink local/MessageSender.sol\":2609:3210  Client.EVM2AnyMessage({... */\n      0xffffffffffffffffffffffffffffffffffffffff\n      and\n      dup2\n      mstore\n      0x20\n      add\n        /* \"contracts/CCIP/CCIP chainlink local/MessageSender.sol\":2926:3072  Client._argsToBytes(... */\n      tag_43\n        /* \"contracts/CCIP/CCIP chainlink local/MessageSender.sol\":2964:3005  Client.EVMExtraArgsV1({gasLimit: 200000}) */\n      mload(0x40)\n      dup1\n      0x20\n      add\n      0x40\n      mstore\n      dup1\n        /* \"contracts/CCIP/CCIP chainlink local/MessageSender.sol\":2997:3003  200000 */\n      0x030d40\n        /* \"contracts/CCIP/CCIP chainlink local/MessageSender.sol\":2964:3005  Client.EVMExtraArgsV1({gasLimit: 200000}) */\n      dup2\n      mstore\n      pop\n        /* \"contracts/CCIP/CCIP chainlink local/MessageSender.sol\":2926:2945  Client._argsToBytes */\n      tag_44\n        /* \"contracts/CCIP/CCIP chainlink local/MessageSender.sol\":2926:3072  Client._argsToBytes(... */\n      jump\t// in\n    tag_43:\n        /* \"contracts/CCIP/CCIP chainlink local/MessageSender.sol\":2609:3210  Client.EVM2AnyMessage({... */\n      dup2\n      mstore\n      pop\n        /* \"contracts/CCIP/CCIP chainlink local/MessageSender.sol\":2563:3210  Client.EVM2AnyMessage memory evm2AnyMessage = Client.EVM2AnyMessage({... */\n      swap1\n      pop\n        /* \"contracts/CCIP/CCIP chainlink local/MessageSender.sol\":3276:3288  uint256 fees */\n      0x00\n        /* \"contracts/CCIP/CCIP chainlink local/MessageSender.sol\":3291:3299  s_router */\n      0x01\n      0x00\n      swap1\n      sload\n      swap1\n      0x0100\n      exp\n      swap1\n      div\n      0xffffffffffffffffffffffffffffffffffffffff\n      and\n        /* \"contracts/CCIP/CCIP chainlink local/MessageSender.sol\":3291:3306  s_router.getFee */\n      0xffffffffffffffffffffffffffffffffffffffff\n      and\n      0x20487ded\n        /* \"contracts/CCIP/CCIP chainlink local/MessageSender.sol\":3321:3345  destinationChainSelector */\n      dup7\n        /* \"contracts/CCIP/CCIP chainlink local/MessageSender.sol\":3360:3374  evm2AnyMessage */\n      dup5\n        /* \"contracts/CCIP/CCIP chainlink local/MessageSender.sol\":3291:3385  s_router.getFee(... */\n      mload(0x40)\n      dup4\n      0xffffffff\n      and\n      0xe0\n      shl\n      dup2\n      mstore\n      0x04\n      add\n      tag_45\n      swap3\n      swap2\n      swap1\n      tag_46\n      jump\t// in\n    tag_45:\n      0x20\n      mload(0x40)\n      dup1\n      dup4\n      sub\n      dup2\n      dup7\n      gas\n      staticcall\n      iszero\n      dup1\n      iszero\n      tag_48\n      jumpi\n      returndatacopy(0x00, 0x00, returndatasize)\n      revert(0x00, returndatasize)\n    tag_48:\n      pop\n      pop\n      pop\n      pop\n      mload(0x40)\n      returndatasize\n      not(0x1f)\n      0x1f\n      dup3\n      add\n      and\n      dup3\n      add\n      dup1\n      0x40\n      mstore\n      pop\n      dup2\n      add\n      swap1\n      tag_49\n      swap2\n      swap1\n      tag_50\n      jump\t// in\n    tag_49:\n        /* \"contracts/CCIP/CCIP chainlink local/MessageSender.sol\":3276:3385  uint256 fees = s_router.getFee(... */\n      swap1\n      pop\n        /* \"contracts/CCIP/CCIP chainlink local/MessageSender.sol\":3409:3420  s_linkToken */\n      0x02\n      0x00\n      swap1\n      sload\n      swap1\n      0x0100\n      exp\n      swap1\n      div\n      0xffffffffffffffffffffffffffffffffffffffff\n      and\n        /* \"contracts/CCIP/CCIP chainlink local/MessageSender.sol\":3409:3430  s_linkToken.balanceOf */\n      0xffffffffffffffffffffffffffffffffffffffff\n      and\n      0x70a08231\n        /* \"contracts/CCIP/CCIP chainlink local/MessageSender.sol\":3439:3443  this */\n      address\n        /* \"contracts/CCIP/CCIP chainlink local/MessageSender.sol\":3409:3445  s_linkToken.balanceOf(address(this)) */\n      mload(0x40)\n      dup3\n      0xffffffff\n      and\n      0xe0\n      shl\n      dup2\n      mstore\n      0x04\n      add\n      tag_51\n      swap2\n      swap1\n      tag_12\n      jump\t// in\n    tag_51:\n      0x20\n      mload(0x40)\n      dup1\n      dup4\n      sub\n      dup2\n      dup7\n      gas\n      staticcall\n      iszero\n      dup1\n      iszero\n      tag_53\n      jumpi\n      returndatacopy(0x00, 0x00, returndatasize)\n      revert(0x00, returndatasize)\n    tag_53:\n      pop\n      pop\n      pop\n      pop\n      mload(0x40)\n      returndatasize\n      not(0x1f)\n      0x1f\n      dup3\n      add\n      and\n      dup3\n      add\n      dup1\n      0x40\n      mstore\n      pop\n      dup2\n      add\n      swap1\n      tag_54\n      swap2\n      swap1\n      tag_50\n      jump\t// in\n    tag_54:\n        /* \"contracts/CCIP/CCIP chainlink local/MessageSender.sol\":3402:3406  fees */\n      dup2\n        /* \"contracts/CCIP/CCIP chainlink local/MessageSender.sol\":3402:3445  fees > s_linkToken.balanceOf(address(this)) */\n      gt\n        /* \"contracts/CCIP/CCIP chainlink local/MessageSender.sol\":3398:3527  if (fees > s_linkToken.balanceOf(address(this)))... */\n      iszero\n      tag_55\n      jumpi\n        /* \"contracts/CCIP/CCIP chainlink local/MessageSender.sol\":3484:3495  s_linkToken */\n      0x02\n      0x00\n      swap1\n      sload\n      swap1\n      0x0100\n      exp\n      swap1\n      div\n      0xffffffffffffffffffffffffffffffffffffffff\n      and\n        /* \"contracts/CCIP/CCIP chainlink local/MessageSender.sol\":3484:3505  s_linkToken.balanceOf */\n      0xffffffffffffffffffffffffffffffffffffffff\n      and\n      0x70a08231\n        /* \"contracts/CCIP/CCIP chainlink local/MessageSender.sol\":3514:3518  this */\n      address\n        /* \"contracts/CCIP/CCIP chainlink local/MessageSender.sol\":3484:3520  s_linkToken.balanceOf(address(this)) */\n      mload(0x40)\n      dup3\n      0xffffffff\n      and\n      0xe0\n      shl\n      dup2\n      mstore\n      0x04\n      add\n      tag_56\n      swap2\n      swap1\n      tag_12\n      jump\t// in\n    tag_56:\n      0x20\n      mload(0x40)\n      dup1\n      dup4\n      sub\n      dup2\n      dup7\n      gas\n      staticcall\n      iszero\n      dup1\n      iszero\n      tag_58\n      jumpi\n      returndatacopy(0x00, 0x00, returndatasize)\n      revert(0x00, returndatasize)\n    tag_58:\n      pop\n      pop\n      pop\n      pop\n      mload(0x40)\n      returndatasize\n      not(0x1f)\n      0x1f\n      dup3\n      add\n      and\n      dup3\n      add\n      dup1\n      0x40\n      mstore\n      pop\n      dup2\n      add\n      swap1\n      tag_59\n      swap2\n      swap1\n      tag_50\n      jump\t// in\n    tag_59:\n        /* \"contracts/CCIP/CCIP chainlink local/MessageSender.sol\":3522:3526  fees */\n      dup2\n        /* \"contracts/CCIP/CCIP chainlink local/MessageSender.sol\":3467:3527  NotEnoughBalance(s_linkToken.balanceOf(address(this)), fees) */\n      mload(0x40)\n      0x8f0f420600000000000000000000000000000000000000000000000000000000\n      dup2\n      mstore\n      0x04\n      add\n      tag_60\n      swap3\n      swap2\n      swap1\n      tag_61\n      jump\t// in\n    tag_60:\n      mload(0x40)\n      dup1\n      swap2\n      sub\n      swap1\n      revert\n        /* \"contracts/CCIP/CCIP chainlink local/MessageSender.sol\":3398:3527  if (fees > s_linkToken.balanceOf(address(this)))... */\n    tag_55:\n        /* \"contracts/CCIP/CCIP chainlink local/MessageSender.sol\":3648:3659  s_linkToken */\n      0x02\n      0x00\n      swap1\n      sload\n      swap1\n      0x0100\n      exp\n      swap1\n      div\n      0xffffffffffffffffffffffffffffffffffffffff\n      and\n        /* \"contracts/CCIP/CCIP chainlink local/MessageSender.sol\":3648:3667  s_linkToken.approve */\n      0xffffffffffffffffffffffffffffffffffffffff\n      and\n      0x095ea7b3\n        /* \"contracts/CCIP/CCIP chainlink local/MessageSender.sol\":3676:3684  s_router */\n      0x01\n      0x00\n      swap1\n      sload\n      swap1\n      0x0100\n      exp\n      swap1\n      div\n      0xffffffffffffffffffffffffffffffffffffffff\n      and\n        /* \"contracts/CCIP/CCIP chainlink local/MessageSender.sol\":3687:3691  fees */\n      dup4\n        /* \"contracts/CCIP/CCIP chainlink local/MessageSender.sol\":3648:3692  s_linkToken.approve(address(s_router), fees) */\n      mload(0x40)\n      dup4\n      0xffffffff\n      and\n      0xe0\n      shl\n      dup2\n      mstore\n      0x04\n      add\n      tag_62\n      swap3\n      swap2\n      swap1\n      tag_63\n      jump\t// in\n    tag_62:\n      0x20\n      mload(0x40)\n      dup1\n      dup4\n      sub\n      dup2\n      0x00\n      dup8\n      gas\n      call\n      iszero\n      dup1\n      iszero\n      tag_65\n      jumpi\n      returndatacopy(0x00, 0x00, returndatasize)\n      revert(0x00, returndatasize)\n    tag_65:\n      pop\n      pop\n      pop\n      pop\n      mload(0x40)\n      returndatasize\n      not(0x1f)\n      0x1f\n      dup3\n      add\n      and\n      dup3\n      add\n      dup1\n      0x40\n      mstore\n      pop\n      dup2\n      add\n      swap1\n      tag_66\n      swap2\n      swap1\n      tag_67\n      jump\t// in\n    tag_66:\n      pop\n        /* \"contracts/CCIP/CCIP chainlink local/MessageSender.sol\":3799:3807  s_router */\n      0x01\n      0x00\n      swap1\n      sload\n      swap1\n      0x0100\n      exp\n      swap1\n      div\n      0xffffffffffffffffffffffffffffffffffffffff\n      and\n        /* \"contracts/CCIP/CCIP chainlink local/MessageSender.sol\":3799:3816  s_router.ccipSend */\n      0xffffffffffffffffffffffffffffffffffffffff\n      and\n      0x96f4e9f9\n        /* \"contracts/CCIP/CCIP chainlink local/MessageSender.sol\":3817:3841  destinationChainSelector */\n      dup7\n        /* \"contracts/CCIP/CCIP chainlink local/MessageSender.sol\":3843:3857  evm2AnyMessage */\n      dup5\n        /* \"contracts/CCIP/CCIP chainlink local/MessageSender.sol\":3799:3858  s_router.ccipSend(destinationChainSelector, evm2AnyMessage) */\n      mload(0x40)\n      dup4\n      0xffffffff\n      and\n      0xe0\n      shl\n      dup2\n      mstore\n      0x04\n      add\n      tag_68\n      swap3\n      swap2\n      swap1\n      tag_46\n      jump\t// in\n    tag_68:\n      0x20\n      mload(0x40)\n      dup1\n      dup4\n      sub\n      dup2\n      0x00\n      dup8\n      gas\n      call\n      iszero\n      dup1\n      iszero\n      tag_70\n      jumpi\n      returndatacopy(0x00, 0x00, returndatasize)\n      revert(0x00, returndatasize)\n    tag_70:\n      pop\n      pop\n      pop\n      pop\n      mload(0x40)\n      returndatasize\n      not(0x1f)\n      0x1f\n      dup3\n      add\n      and\n      dup3\n      add\n      dup1\n      0x40\n      mstore\n      pop\n      dup2\n      add\n      swap1\n      tag_71\n      swap2\n      swap1\n      tag_72\n      jump\t// in\n    tag_71:\n        /* \"contracts/CCIP/CCIP chainlink local/MessageSender.sol\":3787:3858  messageId = s_router.ccipSend(destinationChainSelector, evm2AnyMessage) */\n      swap3\n      pop\n        /* \"contracts/CCIP/CCIP chainlink local/MessageSender.sol\":3973:3997  destinationChainSelector */\n      dup5\n        /* \"contracts/CCIP/CCIP chainlink local/MessageSender.sol\":3923:4112  MessageSent(... */\n      0xffffffffffffffff\n      and\n        /* \"contracts/CCIP/CCIP chainlink local/MessageSender.sol\":3949:3958  messageId */\n      dup4\n        /* \"contracts/CCIP/CCIP chainlink local/MessageSender.sol\":3923:4112  MessageSent(... */\n      0xd36445359b3c6e26c120659aef090ce0f2eb005cf9af450d11aa1225609b4f4d\n        /* \"contracts/CCIP/CCIP chainlink local/MessageSender.sol\":4012:4020  receiver */\n      dup7\n        /* \"contracts/CCIP/CCIP chainlink local/MessageSender.sol\":4070:4081  s_linkToken */\n      0x02\n      0x00\n      swap1\n      sload\n      swap1\n      0x0100\n      exp\n      swap1\n      div\n      0xffffffffffffffffffffffffffffffffffffffff\n      and\n        /* \"contracts/CCIP/CCIP chainlink local/MessageSender.sol\":4097:4101  fees */\n      dup6\n        /* \"contracts/CCIP/CCIP chainlink local/MessageSender.sol\":3923:4112  MessageSent(... */\n      mload(0x40)\n      tag_73\n      swap4\n      swap3\n      swap2\n      swap1\n      tag_74\n      jump\t// in\n    tag_73:\n      mload(0x40)\n      dup1\n      swap2\n      sub\n      swap1\n      log3\n        /* \"contracts/CCIP/CCIP chainlink local/MessageSender.sol\":4159:4175  return messageId */\n      pop\n      pop\n        /* \"contracts/CCIP/CCIP chainlink local/MessageSender.sol\":2293:4183  function sendMessage(... */\n      swap3\n      swap2\n      pop\n      pop\n      jump\t// out\n        /* \"@openzeppelin/contracts@5.2.0/access/Ownable.sol\":2543:2758  function transferOwnership(address newOwner) public virtual onlyOwner {... */\n    tag_22:\n        /* \"@openzeppelin/contracts@5.2.0/access/Ownable.sol\":1531:1544  _checkOwner() */\n      tag_76\n        /* \"@openzeppelin/contracts@5.2.0/access/Ownable.sol\":1531:1542  _checkOwner */\n      tag_25\n        /* \"@openzeppelin/contracts@5.2.0/access/Ownable.sol\":1531:1544  _checkOwner() */\n      jump\t// in\n    tag_76:\n        /* \"@openzeppelin/contracts@5.2.0/access/Ownable.sol\":2647:2648  0 */\n      0x00\n        /* \"@openzeppelin/contracts@5.2.0/access/Ownable.sol\":2627:2649  newOwner == address(0) */\n      0xffffffffffffffffffffffffffffffffffffffff\n      and\n        /* \"@openzeppelin/contracts@5.2.0/access/Ownable.sol\":2627:2635  newOwner */\n      dup2\n        /* \"@openzeppelin/contracts@5.2.0/access/Ownable.sol\":2627:2649  newOwner == address(0) */\n      0xffffffffffffffffffffffffffffffffffffffff\n      and\n      sub\n        /* \"@openzeppelin/contracts@5.2.0/access/Ownable.sol\":2623:2714  if (newOwner == address(0)) {... */\n      tag_78\n      jumpi\n        /* \"@openzeppelin/contracts@5.2.0/access/Ownable.sol\":2700:2701  0 */\n      0x00\n        /* \"@openzeppelin/contracts@5.2.0/access/Ownable.sol\":2672:2703  OwnableInvalidOwner(address(0)) */\n      mload(0x40)\n      0x1e4fbdf700000000000000000000000000000000000000000000000000000000\n      dup2\n      mstore\n      0x04\n      add\n      tag_79\n      swap2\n      swap1\n      tag_12\n      jump\t// in\n    tag_79:\n      mload(0x40)\n      dup1\n      swap2\n      sub\n      swap1\n      revert\n        /* \"@openzeppelin/contracts@5.2.0/access/Ownable.sol\":2623:2714  if (newOwner == address(0)) {... */\n    tag_78:\n        /* \"@openzeppelin/contracts@5.2.0/access/Ownable.sol\":2723:2751  _transferOwnership(newOwner) */\n      tag_80\n        /* \"@openzeppelin/contracts@5.2.0/access/Ownable.sol\":2742:2750  newOwner */\n      dup2\n        /* \"@openzeppelin/contracts@5.2.0/access/Ownable.sol\":2723:2741  _transferOwnership */\n      tag_28\n        /* \"@openzeppelin/contracts@5.2.0/access/Ownable.sol\":2723:2751  _transferOwnership(newOwner) */\n      jump\t// in\n    tag_80:\n        /* \"@openzeppelin/contracts@5.2.0/access/Ownable.sol\":2543:2758  function transferOwnership(address newOwner) public virtual onlyOwner {... */\n      pop\n      jump\t// out\n        /* \"@openzeppelin/contracts@5.2.0/access/Ownable.sol\":1796:1958  function _checkOwner() internal view virtual {... */\n    tag_25:\n        /* \"@openzeppelin/contracts@5.2.0/access/Ownable.sol\":1866:1878  _msgSender() */\n      tag_82\n        /* \"@openzeppelin/contracts@5.2.0/access/Ownable.sol\":1866:1876  _msgSender */\n      tag_83\n        /* \"@openzeppelin/contracts@5.2.0/access/Ownable.sol\":1866:1878  _msgSender() */\n      jump\t// in\n    tag_82:\n        /* \"@openzeppelin/contracts@5.2.0/access/Ownable.sol\":1855:1878  owner() != _msgSender() */\n      0xffffffffffffffffffffffffffffffffffffffff\n      and\n        /* \"@openzeppelin/contracts@5.2.0/access/Ownable.sol\":1855:1862  owner() */\n      tag_84\n        /* \"@openzeppelin/contracts@5.2.0/access/Ownable.sol\":1855:1860  owner */\n      tag_10\n        /* \"@openzeppelin/contracts@5.2.0/access/Ownable.sol\":1855:1862  owner() */\n      jump\t// in\n    tag_84:\n        /* \"@openzeppelin/contracts@5.2.0/access/Ownable.sol\":1855:1878  owner() != _msgSender() */\n      0xffffffffffffffffffffffffffffffffffffffff\n      and\n      eq\n        /* \"@openzeppelin/contracts@5.2.0/access/Ownable.sol\":1851:1952  if (owner() != _msgSender()) {... */\n      tag_85\n      jumpi\n        /* \"@openzeppelin/contracts@5.2.0/access/Ownable.sol\":1928:1940  _msgSender() */\n      tag_86\n        /* \"@openzeppelin/contracts@5.2.0/access/Ownable.sol\":1928:1938  _msgSender */\n      tag_83\n        /* \"@openzeppelin/contracts@5.2.0/access/Ownable.sol\":1928:1940  _msgSender() */\n      jump\t// in\n    tag_86:\n        /* \"@openzeppelin/contracts@5.2.0/access/Ownable.sol\":1901:1941  OwnableUnauthorizedAccount(_msgSender()) */\n      mload(0x40)\n      0x118cdaa700000000000000000000000000000000000000000000000000000000\n      dup2\n      mstore\n      0x04\n      add\n      tag_87\n      swap2\n      swap1\n      tag_12\n      jump\t// in\n    tag_87:\n      mload(0x40)\n      dup1\n      swap2\n      sub\n      swap1\n      revert\n        /* \"@openzeppelin/contracts@5.2.0/access/Ownable.sol\":1851:1952  if (owner() != _msgSender()) {... */\n    tag_85:\n        /* \"@openzeppelin/contracts@5.2.0/access/Ownable.sol\":1796:1958  function _checkOwner() internal view virtual {... */\n      jump\t// out\n        /* \"@openzeppelin/contracts@5.2.0/access/Ownable.sol\":2912:3099  function _transferOwnership(address newOwner) internal virtual {... */\n    tag_28:\n        /* \"@openzeppelin/contracts@5.2.0/access/Ownable.sol\":2985:3001  address oldOwner */\n      0x00\n        /* \"@openzeppelin/contracts@5.2.0/access/Ownable.sol\":3004:3010  _owner */\n      0x00\n      0x00\n      swap1\n      sload\n      swap1\n      0x0100\n      exp\n      swap1\n      div\n      0xffffffffffffffffffffffffffffffffffffffff\n      and\n        /* \"@openzeppelin/contracts@5.2.0/access/Ownable.sol\":2985:3010  address oldOwner = _owner */\n      swap1\n      pop\n        /* \"@openzeppelin/contracts@5.2.0/access/Ownable.sol\":3029:3037  newOwner */\n      dup2\n        /* \"@openzeppelin/contracts@5.2.0/access/Ownable.sol\":3020:3026  _owner */\n      0x00\n      0x00\n        /* \"@openzeppelin/contracts@5.2.0/access/Ownable.sol\":3020:3037  _owner = newOwner */\n      0x0100\n      exp\n      dup2\n      sload\n      dup2\n      0xffffffffffffffffffffffffffffffffffffffff\n      mul\n      not\n      and\n      swap1\n      dup4\n      0xffffffffffffffffffffffffffffffffffffffff\n      and\n      mul\n      or\n      swap1\n      sstore\n      pop\n        /* \"@openzeppelin/contracts@5.2.0/access/Ownable.sol\":3083:3091  newOwner */\n      dup2\n        /* \"@openzeppelin/contracts@5.2.0/access/Ownable.sol\":3052:3092  OwnershipTransferred(oldOwner, newOwner) */\n      0xffffffffffffffffffffffffffffffffffffffff\n      and\n        /* \"@openzeppelin/contracts@5.2.0/access/Ownable.sol\":3073:3081  oldOwner */\n      dup2\n        /* \"@openzeppelin/contracts@5.2.0/access/Ownable.sol\":3052:3092  OwnershipTransferred(oldOwner, newOwner) */\n      0xffffffffffffffffffffffffffffffffffffffff\n      and\n      0x8be0079c531659141344cd1fd0a4f28419497f9722a3daafe3b4186f6b6457e0\n      mload(0x40)\n      mload(0x40)\n      dup1\n      swap2\n      sub\n      swap1\n      log3\n        /* \"@openzeppelin/contracts@5.2.0/access/Ownable.sol\":2975:3099  {... */\n      pop\n        /* \"@openzeppelin/contracts@5.2.0/access/Ownable.sol\":2912:3099  function _transferOwnership(address newOwner) internal virtual {... */\n      pop\n      jump\t// out\n        /* \"@chainlink/contracts@1.3.0/src/v0.8/ccip/libraries/Client.sol\":1286:1464  function _argsToBytes(... */\n    tag_44:\n        /* \"@chainlink/contracts@1.3.0/src/v0.8/ccip/libraries/Client.sol\":1372:1388  bytes memory bts */\n      0x60\n        /* \"@chainlink/contracts@1.3.0/src/v0.8/ccip/libraries/Client.sol\":1218:1228  0x97a657c9 */\n      0x97a657c9\n        /* \"@chainlink/contracts@1.3.0/src/v0.8/ccip/libraries/Client.sol\":1426:1447  EVM_EXTRA_ARGS_V1_TAG */\n      0xe0\n      shl\n        /* \"@chainlink/contracts@1.3.0/src/v0.8/ccip/libraries/Client.sol\":1449:1458  extraArgs */\n      dup3\n        /* \"@chainlink/contracts@1.3.0/src/v0.8/ccip/libraries/Client.sol\":1403:1459  abi.encodeWithSelector(EVM_EXTRA_ARGS_V1_TAG, extraArgs) */\n      add(0x24, mload(0x40))\n      tag_90\n      swap2\n      swap1\n      tag_91\n      jump\t// in\n    tag_90:\n      mload(0x40)\n      0x20\n      dup2\n      dup4\n      sub\n      sub\n      dup2\n      mstore\n      swap1\n      0x40\n      mstore\n      swap1\n      not(0xffffffffffffffffffffffffffffffffffffffffffffffffffffffff)\n      and\n      0x20\n      dup3\n      add\n      dup1\n      mload\n      0xffffffffffffffffffffffffffffffffffffffffffffffffffffffff\n      dup4\n      dup2\n      dup4\n      and\n      or\n      dup4\n      mstore\n      pop\n      pop\n      pop\n      pop\n        /* \"@chainlink/contracts@1.3.0/src/v0.8/ccip/libraries/Client.sol\":1396:1459  return abi.encodeWithSelector(EVM_EXTRA_ARGS_V1_TAG, extraArgs) */\n      swap1\n      pop\n        /* \"@chainlink/contracts@1.3.0/src/v0.8/ccip/libraries/Client.sol\":1286:1464  function _argsToBytes(... */\n      swap2\n      swap1\n      pop\n      jump\t// out\n        /* \"@openzeppelin/contracts@5.2.0/utils/Context.sol\":656:752  function _msgSender() internal view virtual returns (address) {... */\n    tag_83:\n        /* \"@openzeppelin/contracts@5.2.0/utils/Context.sol\":709:716  address */\n      0x00\n        /* \"@openzeppelin/contracts@5.2.0/utils/Context.sol\":735:745  msg.sender */\n      caller\n        /* \"@openzeppelin/contracts@5.2.0/utils/Context.sol\":728:745  return msg.sender */\n      swap1\n      pop\n        /* \"@openzeppelin/contracts@5.2.0/utils/Context.sol\":656:752  function _msgSender() internal view virtual returns (address) {... */\n      swap1\n      jump\t// out\n    tag_42:\n      mload(0x40)\n      dup1\n      0x40\n      add\n      0x40\n      mstore\n      dup1\n      and(0xffffffffffffffffffffffffffffffffffffffff, 0x00)\n      dup2\n      mstore\n      0x20\n      add\n      0x00\n      dup2\n      mstore\n      pop\n      swap1\n      jump\t// out\n        /* \"#utility.yul\":7:133   */\n    tag_93:\n        /* \"#utility.yul\":44:51   */\n      0x00\n        /* \"#utility.yul\":84:126   */\n      0xffffffffffffffffffffffffffffffffffffffff\n        /* \"#utility.yul\":77:82   */\n      dup3\n        /* \"#utility.yul\":73:127   */\n      and\n        /* \"#utility.yul\":62:127   */\n      swap1\n      pop\n        /* \"#utility.yul\":7:133   */\n      swap2\n      swap1\n      pop\n      jump\t// out\n        /* \"#utility.yul\":139:235   */\n    tag_94:\n        /* \"#utility.yul\":176:183   */\n      0x00\n        /* \"#utility.yul\":205:229   */\n      tag_140\n        /* \"#utility.yul\":223:228   */\n      dup3\n        /* \"#utility.yul\":205:229   */\n      tag_93\n      jump\t// in\n    tag_140:\n        /* \"#utility.yul\":194:229   */\n      swap1\n      pop\n        /* \"#utility.yul\":139:235   */\n      swap2\n      swap1\n      pop\n      jump\t// out\n        /* \"#utility.yul\":241:359   */\n    tag_95:\n        /* \"#utility.yul\":328:352   */\n      tag_142\n        /* \"#utility.yul\":346:351   */\n      dup2\n        /* \"#utility.yul\":328:352   */\n      tag_94\n      jump\t// in\n    tag_142:\n        /* \"#utility.yul\":323:326   */\n      dup3\n        /* \"#utility.yul\":316:353   */\n      mstore\n        /* \"#utility.yul\":241:359   */\n      pop\n      pop\n      jump\t// out\n        /* \"#utility.yul\":365:587   */\n    tag_12:\n        /* \"#utility.yul\":458:462   */\n      0x00\n        /* \"#utility.yul\":496:498   */\n      0x20\n        /* \"#utility.yul\":485:494   */\n      dup3\n        /* \"#utility.yul\":481:499   */\n      add\n        /* \"#utility.yul\":473:499   */\n      swap1\n      pop\n        /* \"#utility.yul\":509:580   */\n      tag_144\n        /* \"#utility.yul\":577:578   */\n      0x00\n        /* \"#utility.yul\":566:575   */\n      dup4\n        /* \"#utility.yul\":562:579   */\n      add\n        /* \"#utility.yul\":553:559   */\n      dup5\n        /* \"#utility.yul\":509:580   */\n      tag_95\n      jump\t// in\n    tag_144:\n        /* \"#utility.yul\":365:587   */\n      swap3\n      swap2\n      pop\n      pop\n      jump\t// out\n        /* \"#utility.yul\":674:791   */\n    tag_97:\n        /* \"#utility.yul\":783:784   */\n      0x00\n        /* \"#utility.yul\":780:781   */\n      0x00\n        /* \"#utility.yul\":773:785   */\n      revert\n        /* \"#utility.yul\":920:1021   */\n    tag_99:\n        /* \"#utility.yul\":956:963   */\n      0x00\n        /* \"#utility.yul\":996:1014   */\n      0xffffffffffffffff\n        /* \"#utility.yul\":989:994   */\n      dup3\n        /* \"#utility.yul\":985:1015   */\n      and\n        /* \"#utility.yul\":974:1015   */\n      swap1\n      pop\n        /* \"#utility.yul\":920:1021   */\n      swap2\n      swap1\n      pop\n      jump\t// out\n        /* \"#utility.yul\":1027:1147   */\n    tag_100:\n        /* \"#utility.yul\":1099:1122   */\n      tag_150\n        /* \"#utility.yul\":1116:1121   */\n      dup2\n        /* \"#utility.yul\":1099:1122   */\n      tag_99\n      jump\t// in\n    tag_150:\n        /* \"#utility.yul\":1092:1097   */\n      dup2\n        /* \"#utility.yul\":1089:1123   */\n      eq\n        /* \"#utility.yul\":1079:1141   */\n      tag_151\n      jumpi\n        /* \"#utility.yul\":1137:1138   */\n      0x00\n        /* \"#utility.yul\":1134:1135   */\n      0x00\n        /* \"#utility.yul\":1127:1139   */\n      revert\n        /* \"#utility.yul\":1079:1141   */\n    tag_151:\n        /* \"#utility.yul\":1027:1147   */\n      pop\n      jump\t// out\n        /* \"#utility.yul\":1153:1290   */\n    tag_101:\n        /* \"#utility.yul\":1198:1203   */\n      0x00\n        /* \"#utility.yul\":1236:1242   */\n      dup2\n        /* \"#utility.yul\":1223:1243   */\n      calldataload\n        /* \"#utility.yul\":1214:1243   */\n      swap1\n      pop\n        /* \"#utility.yul\":1252:1284   */\n      tag_153\n        /* \"#utility.yul\":1278:1283   */\n      dup2\n        /* \"#utility.yul\":1252:1284   */\n      tag_100\n      jump\t// in\n    tag_153:\n        /* \"#utility.yul\":1153:1290   */\n      swap3\n      swap2\n      pop\n      pop\n      jump\t// out\n        /* \"#utility.yul\":1296:1418   */\n    tag_102:\n        /* \"#utility.yul\":1369:1393   */\n      tag_155\n        /* \"#utility.yul\":1387:1392   */\n      dup2\n        /* \"#utility.yul\":1369:1393   */\n      tag_94\n      jump\t// in\n    tag_155:\n        /* \"#utility.yul\":1362:1367   */\n      dup2\n        /* \"#utility.yul\":1359:1394   */\n      eq\n        /* \"#utility.yul\":1349:1412   */\n      tag_156\n      jumpi\n        /* \"#utility.yul\":1408:1409   */\n      0x00\n        /* \"#utility.yul\":1405:1406   */\n      0x00\n        /* \"#utility.yul\":1398:1410   */\n      revert\n        /* \"#utility.yul\":1349:1412   */\n    tag_156:\n        /* \"#utility.yul\":1296:1418   */\n      pop\n      jump\t// out\n        /* \"#utility.yul\":1424:1563   */\n    tag_103:\n        /* \"#utility.yul\":1470:1475   */\n      0x00\n        /* \"#utility.yul\":1508:1514   */\n      dup2\n        /* \"#utility.yul\":1495:1515   */\n      calldataload\n        /* \"#utility.yul\":1486:1515   */\n      swap1\n      pop\n        /* \"#utility.yul\":1524:1557   */\n      tag_158\n        /* \"#utility.yul\":1551:1556   */\n      dup2\n        /* \"#utility.yul\":1524:1557   */\n      tag_102\n      jump\t// in\n    tag_158:\n        /* \"#utility.yul\":1424:1563   */\n      swap3\n      swap2\n      pop\n      pop\n      jump\t// out\n        /* \"#utility.yul\":1569:2041   */\n    tag_15:\n        /* \"#utility.yul\":1636:1642   */\n      0x00\n        /* \"#utility.yul\":1644:1650   */\n      0x00\n        /* \"#utility.yul\":1693:1695   */\n      0x40\n        /* \"#utility.yul\":1681:1690   */\n      dup4\n        /* \"#utility.yul\":1672:1679   */\n      dup6\n        /* \"#utility.yul\":1668:1691   */\n      sub\n        /* \"#utility.yul\":1664:1696   */\n      slt\n        /* \"#utility.yul\":1661:1780   */\n      iszero\n      tag_160\n      jumpi\n        /* \"#utility.yul\":1699:1778   */\n      tag_161\n      tag_97\n      jump\t// in\n    tag_161:\n        /* \"#utility.yul\":1661:1780   */\n    tag_160:\n        /* \"#utility.yul\":1819:1820   */\n      0x00\n        /* \"#utility.yul\":1844:1896   */\n      tag_162\n        /* \"#utility.yul\":1888:1895   */\n      dup6\n        /* \"#utility.yul\":1879:1885   */\n      dup3\n        /* \"#utility.yul\":1868:1877   */\n      dup7\n        /* \"#utility.yul\":1864:1886   */\n      add\n        /* \"#utility.yul\":1844:1896   */\n      tag_101\n      jump\t// in\n    tag_162:\n        /* \"#utility.yul\":1834:1896   */\n      swap3\n      pop\n        /* \"#utility.yul\":1790:1906   */\n      pop\n        /* \"#utility.yul\":1945:1947   */\n      0x20\n        /* \"#utility.yul\":1971:2024   */\n      tag_163\n        /* \"#utility.yul\":2016:2023   */\n      dup6\n        /* \"#utility.yul\":2007:2013   */\n      dup3\n        /* \"#utility.yul\":1996:2005   */\n      dup7\n        /* \"#utility.yul\":1992:2014   */\n      add\n        /* \"#utility.yul\":1971:2024   */\n      tag_103\n      jump\t// in\n    tag_163:\n        /* \"#utility.yul\":1961:2024   */\n      swap2\n      pop\n        /* \"#utility.yul\":1916:2034   */\n      pop\n        /* \"#utility.yul\":1569:2041   */\n      swap3\n      pop\n      swap3\n      swap1\n      pop\n      jump\t// out\n        /* \"#utility.yul\":2047:2124   */\n    tag_104:\n        /* \"#utility.yul\":2084:2091   */\n      0x00\n        /* \"#utility.yul\":2113:2118   */\n      dup2\n        /* \"#utility.yul\":2102:2118   */\n      swap1\n      pop\n        /* \"#utility.yul\":2047:2124   */\n      swap2\n      swap1\n      pop\n      jump\t// out\n        /* \"#utility.yul\":2130:2248   */\n    tag_105:\n        /* \"#utility.yul\":2217:2241   */\n      tag_166\n        /* \"#utility.yul\":2235:2240   */\n      dup2\n        /* \"#utility.yul\":2217:2241   */\n      tag_104\n      jump\t// in\n    tag_166:\n        /* \"#utility.yul\":2212:2215   */\n      dup3\n        /* \"#utility.yul\":2205:2242   */\n      mstore\n        /* \"#utility.yul\":2130:2248   */\n      pop\n      pop\n      jump\t// out\n        /* \"#utility.yul\":2254:2476   */\n    tag_18:\n        /* \"#utility.yul\":2347:2351   */\n      0x00\n        /* \"#utility.yul\":2385:2387   */\n      0x20\n        /* \"#utility.yul\":2374:2383   */\n      dup3\n        /* \"#utility.yul\":2370:2388   */\n      add\n        /* \"#utility.yul\":2362:2388   */\n      swap1\n      pop\n        /* \"#utility.yul\":2398:2469   */\n      tag_168\n        /* \"#utility.yul\":2466:2467   */\n      0x00\n        /* \"#utility.yul\":2455:2464   */\n      dup4\n        /* \"#utility.yul\":2451:2468   */\n      add\n        /* \"#utility.yul\":2442:2448   */\n      dup5\n        /* \"#utility.yul\":2398:2469   */\n      tag_105\n      jump\t// in\n    tag_168:\n        /* \"#utility.yul\":2254:2476   */\n      swap3\n      swap2\n      pop\n      pop\n      jump\t// out\n        /* \"#utility.yul\":2482:2811   */\n    tag_21:\n        /* \"#utility.yul\":2541:2547   */\n      0x00\n        /* \"#utility.yul\":2590:2592   */\n      0x20\n        /* \"#utility.yul\":2578:2587   */\n      dup3\n        /* \"#utility.yul\":2569:2576   */\n      dup5\n        /* \"#utility.yul\":2565:2588   */\n      sub\n        /* \"#utility.yul\":2561:2593   */\n      slt\n        /* \"#utility.yul\":2558:2677   */\n      iszero\n      tag_170\n      jumpi\n        /* \"#utility.yul\":2596:2675   */\n      tag_171\n      tag_97\n      jump\t// in\n    tag_171:\n        /* \"#utility.yul\":2558:2677   */\n    tag_170:\n        /* \"#utility.yul\":2716:2717   */\n      0x00\n        /* \"#utility.yul\":2741:2794   */\n      tag_172\n        /* \"#utility.yul\":2786:2793   */\n      dup5\n        /* \"#utility.yul\":2777:2783   */\n      dup3\n        /* \"#utility.yul\":2766:2775   */\n      dup6\n        /* \"#utility.yul\":2762:2784   */\n      add\n        /* \"#utility.yul\":2741:2794   */\n      tag_103\n      jump\t// in\n    tag_172:\n        /* \"#utility.yul\":2731:2794   */\n      swap2\n      pop\n        /* \"#utility.yul\":2687:2804   */\n      pop\n        /* \"#utility.yul\":2482:2811   */\n      swap3\n      swap2\n      pop\n      pop\n      jump\t// out\n        /* \"#utility.yul\":2817:2986   */\n    tag_106:\n        /* \"#utility.yul\":2901:2912   */\n      0x00\n        /* \"#utility.yul\":2935:2941   */\n      dup3\n        /* \"#utility.yul\":2930:2933   */\n      dup3\n        /* \"#utility.yul\":2923:2942   */\n      mstore\n        /* \"#utility.yul\":2975:2979   */\n      0x20\n        /* \"#utility.yul\":2970:2973   */\n      dup3\n        /* \"#utility.yul\":2966:2980   */\n      add\n        /* \"#utility.yul\":2951:2980   */\n      swap1\n      pop\n        /* \"#utility.yul\":2817:2986   */\n      swap3\n      swap2\n      pop\n      pop\n      jump\t// out\n        /* \"#utility.yul\":2992:3167   */\n    tag_107:\n        /* \"#utility.yul\":3132:3159   */\n      0x48657920746865726521204920616d2053756468616e73687500000000000000\n        /* \"#utility.yul\":3128:3129   */\n      0x00\n        /* \"#utility.yul\":3120:3126   */\n      dup3\n        /* \"#utility.yul\":3116:3130   */\n      add\n        /* \"#utility.yul\":3109:3160   */\n      mstore\n        /* \"#utility.yul\":2992:3167   */\n      pop\n      jump\t// out\n        /* \"#utility.yul\":3173:3539   */\n    tag_108:\n        /* \"#utility.yul\":3315:3318   */\n      0x00\n        /* \"#utility.yul\":3336:3403   */\n      tag_176\n        /* \"#utility.yul\":3400:3402   */\n      0x19\n        /* \"#utility.yul\":3395:3398   */\n      dup4\n        /* \"#utility.yul\":3336:3403   */\n      tag_106\n      jump\t// in\n    tag_176:\n        /* \"#utility.yul\":3329:3403   */\n      swap2\n      pop\n        /* \"#utility.yul\":3412:3505   */\n      tag_177\n        /* \"#utility.yul\":3501:3504   */\n      dup3\n        /* \"#utility.yul\":3412:3505   */\n      tag_107\n      jump\t// in\n    tag_177:\n        /* \"#utility.yul\":3530:3532   */\n      0x20\n        /* \"#utility.yul\":3525:3528   */\n      dup3\n        /* \"#utility.yul\":3521:3533   */\n      add\n        /* \"#utility.yul\":3514:3533   */\n      swap1\n      pop\n        /* \"#utility.yul\":3173:3539   */\n      swap2\n      swap1\n      pop\n      jump\t// out\n        /* \"#utility.yul\":3545:3964   */\n    tag_35:\n        /* \"#utility.yul\":3711:3715   */\n      0x00\n        /* \"#utility.yul\":3749:3751   */\n      0x20\n        /* \"#utility.yul\":3738:3747   */\n      dup3\n        /* \"#utility.yul\":3734:3752   */\n      add\n        /* \"#utility.yul\":3726:3752   */\n      swap1\n      pop\n        /* \"#utility.yul\":3798:3807   */\n      dup2\n        /* \"#utility.yul\":3792:3796   */\n      dup2\n        /* \"#utility.yul\":3788:3808   */\n      sub\n        /* \"#utility.yul\":3784:3785   */\n      0x00\n        /* \"#utility.yul\":3773:3782   */\n      dup4\n        /* \"#utility.yul\":3769:3786   */\n      add\n        /* \"#utility.yul\":3762:3809   */\n      mstore\n        /* \"#utility.yul\":3826:3957   */\n      tag_179\n        /* \"#utility.yul\":3952:3956   */\n      dup2\n        /* \"#utility.yul\":3826:3957   */\n      tag_108\n      jump\t// in\n    tag_179:\n        /* \"#utility.yul\":3818:3957   */\n      swap1\n      pop\n        /* \"#utility.yul\":3545:3964   */\n      swap2\n      swap1\n      pop\n      jump\t// out\n        /* \"#utility.yul\":3970:4150   */\n    tag_38:\n        /* \"#utility.yul\":4018:4095   */\n      0x4e487b7100000000000000000000000000000000000000000000000000000000\n        /* \"#utility.yul\":4015:4016   */\n      0x00\n        /* \"#utility.yul\":4008:4096   */\n      mstore\n        /* \"#utility.yul\":4115:4119   */\n      0x41\n        /* \"#utility.yul\":4112:4113   */\n      0x04\n        /* \"#utility.yul\":4105:4120   */\n      mstore\n        /* \"#utility.yul\":4139:4143   */\n      0x24\n        /* \"#utility.yul\":4136:4137   */\n      0x00\n        /* \"#utility.yul\":4129:4144   */\n      revert\n        /* \"#utility.yul\":4156:4271   */\n    tag_109:\n        /* \"#utility.yul\":4241:4264   */\n      tag_182\n        /* \"#utility.yul\":4258:4263   */\n      dup2\n        /* \"#utility.yul\":4241:4264   */\n      tag_99\n      jump\t// in\n    tag_182:\n        /* \"#utility.yul\":4236:4239   */\n      dup3\n        /* \"#utility.yul\":4229:4265   */\n      mstore\n        /* \"#utility.yul\":4156:4271   */\n      pop\n      pop\n      jump\t// out\n        /* \"#utility.yul\":4277:4375   */\n    tag_110:\n        /* \"#utility.yul\":4328:4334   */\n      0x00\n        /* \"#utility.yul\":4362:4367   */\n      dup2\n        /* \"#utility.yul\":4356:4368   */\n      mload\n        /* \"#utility.yul\":4346:4368   */\n      swap1\n      pop\n        /* \"#utility.yul\":4277:4375   */\n      swap2\n      swap1\n      pop\n      jump\t// out\n        /* \"#utility.yul\":4381:4539   */\n    tag_111:\n        /* \"#utility.yul\":4454:4465   */\n      0x00\n        /* \"#utility.yul\":4488:4494   */\n      dup3\n        /* \"#utility.yul\":4483:4486   */\n      dup3\n        /* \"#utility.yul\":4476:4495   */\n      mstore\n        /* \"#utility.yul\":4528:4532   */\n      0x20\n        /* \"#utility.yul\":4523:4526   */\n      dup3\n        /* \"#utility.yul\":4519:4533   */\n      add\n        /* \"#utility.yul\":4504:4533   */\n      swap1\n      pop\n        /* \"#utility.yul\":4381:4539   */\n      swap3\n      swap2\n      pop\n      pop\n      jump\t// out\n        /* \"#utility.yul\":4545:4684   */\n    tag_112:\n        /* \"#utility.yul\":4634:4640   */\n      dup3\n        /* \"#utility.yul\":4629:4632   */\n      dup2\n        /* \"#utility.yul\":4624:4627   */\n      dup4\n        /* \"#utility.yul\":4618:4641   */\n      mcopy\n        /* \"#utility.yul\":4675:4676   */\n      0x00\n        /* \"#utility.yul\":4666:4672   */\n      dup4\n        /* \"#utility.yul\":4661:4664   */\n      dup4\n        /* \"#utility.yul\":4657:4673   */\n      add\n        /* \"#utility.yul\":4650:4677   */\n      mstore\n        /* \"#utility.yul\":4545:4684   */\n      pop\n      pop\n      pop\n      jump\t// out\n        /* \"#utility.yul\":4690:4792   */\n    tag_113:\n        /* \"#utility.yul\":4731:4737   */\n      0x00\n        /* \"#utility.yul\":4782:4784   */\n      0x1f\n        /* \"#utility.yul\":4778:4785   */\n      not\n        /* \"#utility.yul\":4773:4775   */\n      0x1f\n        /* \"#utility.yul\":4766:4771   */\n      dup4\n        /* \"#utility.yul\":4762:4776   */\n      add\n        /* \"#utility.yul\":4758:4786   */\n      and\n        /* \"#utility.yul\":4748:4786   */\n      swap1\n      pop\n        /* \"#utility.yul\":4690:4792   */\n      swap2\n      swap1\n      pop\n      jump\t// out\n        /* \"#utility.yul\":4798:5151   */\n    tag_114:\n        /* \"#utility.yul\":4874:4877   */\n      0x00\n        /* \"#utility.yul\":4902:4940   */\n      tag_188\n        /* \"#utility.yul\":4934:4939   */\n      dup3\n        /* \"#utility.yul\":4902:4940   */\n      tag_110\n      jump\t// in\n    tag_188:\n        /* \"#utility.yul\":4956:5016   */\n      tag_189\n        /* \"#utility.yul\":5009:5015   */\n      dup2\n        /* \"#utility.yul\":5004:5007   */\n      dup6\n        /* \"#utility.yul\":4956:5016   */\n      tag_111\n      jump\t// in\n    tag_189:\n        /* \"#utility.yul\":4949:5016   */\n      swap4\n      pop\n        /* \"#utility.yul\":5025:5090   */\n      tag_190\n        /* \"#utility.yul\":5083:5089   */\n      dup2\n        /* \"#utility.yul\":5078:5081   */\n      dup6\n        /* \"#utility.yul\":5071:5075   */\n      0x20\n        /* \"#utility.yul\":5064:5069   */\n      dup7\n        /* \"#utility.yul\":5060:5076   */\n      add\n        /* \"#utility.yul\":5025:5090   */\n      tag_112\n      jump\t// in\n    tag_190:\n        /* \"#utility.yul\":5115:5144   */\n      tag_191\n        /* \"#utility.yul\":5137:5143   */\n      dup2\n        /* \"#utility.yul\":5115:5144   */\n      tag_113\n      jump\t// in\n    tag_191:\n        /* \"#utility.yul\":5110:5113   */\n      dup5\n        /* \"#utility.yul\":5106:5145   */\n      add\n        /* \"#utility.yul\":5099:5145   */\n      swap2\n      pop\n        /* \"#utility.yul\":4878:5151   */\n      pop\n        /* \"#utility.yul\":4798:5151   */\n      swap3\n      swap2\n      pop\n      pop\n      jump\t// out\n        /* \"#utility.yul\":5157:5301   */\n    tag_115:\n        /* \"#utility.yul\":5254:5260   */\n      0x00\n        /* \"#utility.yul\":5288:5293   */\n      dup2\n        /* \"#utility.yul\":5282:5294   */\n      mload\n        /* \"#utility.yul\":5272:5294   */\n      swap1\n      pop\n        /* \"#utility.yul\":5157:5301   */\n      swap2\n      swap1\n      pop\n      jump\t// out\n        /* \"#utility.yul\":5307:5511   */\n    tag_116:\n        /* \"#utility.yul\":5426:5437   */\n      0x00\n        /* \"#utility.yul\":5460:5466   */\n      dup3\n        /* \"#utility.yul\":5455:5458   */\n      dup3\n        /* \"#utility.yul\":5448:5467   */\n      mstore\n        /* \"#utility.yul\":5500:5504   */\n      0x20\n        /* \"#utility.yul\":5495:5498   */\n      dup3\n        /* \"#utility.yul\":5491:5505   */\n      add\n        /* \"#utility.yul\":5476:5505   */\n      swap1\n      pop\n        /* \"#utility.yul\":5307:5511   */\n      swap3\n      swap2\n      pop\n      pop\n      jump\t// out\n        /* \"#utility.yul\":5517:5679   */\n    tag_117:\n        /* \"#utility.yul\":5614:5618   */\n      0x00\n        /* \"#utility.yul\":5637:5640   */\n      dup2\n        /* \"#utility.yul\":5629:5640   */\n      swap1\n      pop\n        /* \"#utility.yul\":5667:5671   */\n      0x20\n        /* \"#utility.yul\":5662:5665   */\n      dup3\n        /* \"#utility.yul\":5658:5672   */\n      add\n        /* \"#utility.yul\":5650:5672   */\n      swap1\n      pop\n        /* \"#utility.yul\":5517:5679   */\n      swap2\n      swap1\n      pop\n      jump\t// out\n        /* \"#utility.yul\":5685:5793   */\n    tag_118:\n        /* \"#utility.yul\":5762:5786   */\n      tag_196\n        /* \"#utility.yul\":5780:5785   */\n      dup2\n        /* \"#utility.yul\":5762:5786   */\n      tag_94\n      jump\t// in\n    tag_196:\n        /* \"#utility.yul\":5757:5760   */\n      dup3\n        /* \"#utility.yul\":5750:5787   */\n      mstore\n        /* \"#utility.yul\":5685:5793   */\n      pop\n      pop\n      jump\t// out\n        /* \"#utility.yul\":5799:5876   */\n    tag_119:\n        /* \"#utility.yul\":5836:5843   */\n      0x00\n        /* \"#utility.yul\":5865:5870   */\n      dup2\n        /* \"#utility.yul\":5854:5870   */\n      swap1\n      pop\n        /* \"#utility.yul\":5799:5876   */\n      swap2\n      swap1\n      pop\n      jump\t// out\n        /* \"#utility.yul\":5882:5990   */\n    tag_120:\n        /* \"#utility.yul\":5959:5983   */\n      tag_199\n        /* \"#utility.yul\":5977:5982   */\n      dup2\n        /* \"#utility.yul\":5959:5983   */\n      tag_119\n      jump\t// in\n    tag_199:\n        /* \"#utility.yul\":5954:5957   */\n      dup3\n        /* \"#utility.yul\":5947:5984   */\n      mstore\n        /* \"#utility.yul\":5882:5990   */\n      pop\n      pop\n      jump\t// out\n        /* \"#utility.yul\":6064:6574   */\n    tag_121:\n        /* \"#utility.yul\":6211:6215   */\n      0x40\n        /* \"#utility.yul\":6206:6209   */\n      dup3\n        /* \"#utility.yul\":6202:6216   */\n      add\n        /* \"#utility.yul\":6299:6303   */\n      0x00\n        /* \"#utility.yul\":6292:6297   */\n      dup3\n        /* \"#utility.yul\":6288:6304   */\n      add\n        /* \"#utility.yul\":6282:6305   */\n      mload\n        /* \"#utility.yul\":6318:6381   */\n      tag_201\n        /* \"#utility.yul\":6375:6379   */\n      0x00\n        /* \"#utility.yul\":6370:6373   */\n      dup6\n        /* \"#utility.yul\":6366:6380   */\n      add\n        /* \"#utility.yul\":6352:6364   */\n      dup3\n        /* \"#utility.yul\":6318:6381   */\n      tag_118\n      jump\t// in\n    tag_201:\n        /* \"#utility.yul\":6226:6391   */\n      pop\n        /* \"#utility.yul\":6475:6479   */\n      0x20\n        /* \"#utility.yul\":6468:6473   */\n      dup3\n        /* \"#utility.yul\":6464:6480   */\n      add\n        /* \"#utility.yul\":6458:6481   */\n      mload\n        /* \"#utility.yul\":6494:6557   */\n      tag_202\n        /* \"#utility.yul\":6551:6555   */\n      0x20\n        /* \"#utility.yul\":6546:6549   */\n      dup6\n        /* \"#utility.yul\":6542:6556   */\n      add\n        /* \"#utility.yul\":6528:6540   */\n      dup3\n        /* \"#utility.yul\":6494:6557   */\n      tag_120\n      jump\t// in\n    tag_202:\n        /* \"#utility.yul\":6401:6567   */\n      pop\n        /* \"#utility.yul\":6180:6574   */\n      pop\n        /* \"#utility.yul\":6064:6574   */\n      pop\n      pop\n      jump\t// out\n        /* \"#utility.yul\":6580:6879   */\n    tag_122:\n        /* \"#utility.yul\":6709:6719   */\n      0x00\n        /* \"#utility.yul\":6730:6836   */\n      tag_204\n        /* \"#utility.yul\":6832:6835   */\n      dup4\n        /* \"#utility.yul\":6824:6830   */\n      dup4\n        /* \"#utility.yul\":6730:6836   */\n      tag_121\n      jump\t// in\n    tag_204:\n        /* \"#utility.yul\":6868:6872   */\n      0x40\n        /* \"#utility.yul\":6863:6866   */\n      dup4\n        /* \"#utility.yul\":6859:6873   */\n      add\n        /* \"#utility.yul\":6845:6873   */\n      swap1\n      pop\n        /* \"#utility.yul\":6580:6879   */\n      swap3\n      swap2\n      pop\n      pop\n      jump\t// out\n        /* \"#utility.yul\":6885:7028   */\n    tag_123:\n        /* \"#utility.yul\":6985:6989   */\n      0x00\n        /* \"#utility.yul\":7017:7021   */\n      0x20\n        /* \"#utility.yul\":7012:7015   */\n      dup3\n        /* \"#utility.yul\":7008:7022   */\n      add\n        /* \"#utility.yul\":7000:7022   */\n      swap1\n      pop\n        /* \"#utility.yul\":6885:7028   */\n      swap2\n      swap1\n      pop\n      jump\t// out\n        /* \"#utility.yul\":7106:8058   */\n    tag_124:\n        /* \"#utility.yul\":7275:7278   */\n      0x00\n        /* \"#utility.yul\":7304:7388   */\n      tag_207\n        /* \"#utility.yul\":7382:7387   */\n      dup3\n        /* \"#utility.yul\":7304:7388   */\n      tag_115\n      jump\t// in\n    tag_207:\n        /* \"#utility.yul\":7404:7510   */\n      tag_208\n        /* \"#utility.yul\":7503:7509   */\n      dup2\n        /* \"#utility.yul\":7498:7501   */\n      dup6\n        /* \"#utility.yul\":7404:7510   */\n      tag_116\n      jump\t// in\n    tag_208:\n        /* \"#utility.yul\":7397:7510   */\n      swap4\n      pop\n        /* \"#utility.yul\":7534:7620   */\n      tag_209\n        /* \"#utility.yul\":7614:7619   */\n      dup4\n        /* \"#utility.yul\":7534:7620   */\n      tag_117\n      jump\t// in\n    tag_209:\n        /* \"#utility.yul\":7643:7650   */\n      dup1\n        /* \"#utility.yul\":7674:7675   */\n      0x00\n        /* \"#utility.yul\":7659:8033   */\n    tag_210:\n        /* \"#utility.yul\":7684:7690   */\n      dup4\n        /* \"#utility.yul\":7681:7682   */\n      dup2\n        /* \"#utility.yul\":7678:7691   */\n      lt\n        /* \"#utility.yul\":7659:8033   */\n      iszero\n      tag_212\n      jumpi\n        /* \"#utility.yul\":7760:7766   */\n      dup2\n        /* \"#utility.yul\":7754:7767   */\n      mload\n        /* \"#utility.yul\":7787:7910   */\n      tag_213\n        /* \"#utility.yul\":7906:7909   */\n      dup9\n        /* \"#utility.yul\":7891:7904   */\n      dup3\n        /* \"#utility.yul\":7787:7910   */\n      tag_122\n      jump\t// in\n    tag_213:\n        /* \"#utility.yul\":7780:7910   */\n      swap8\n      pop\n        /* \"#utility.yul\":7933:8023   */\n      tag_214\n        /* \"#utility.yul\":8016:8022   */\n      dup4\n        /* \"#utility.yul\":7933:8023   */\n      tag_123\n      jump\t// in\n    tag_214:\n        /* \"#utility.yul\":7923:8023   */\n      swap3\n      pop\n        /* \"#utility.yul\":7719:8033   */\n      pop\n        /* \"#utility.yul\":7706:7707   */\n      0x01\n        /* \"#utility.yul\":7703:7704   */\n      dup2\n        /* \"#utility.yul\":7699:7708   */\n      add\n        /* \"#utility.yul\":7694:7708   */\n      swap1\n      pop\n        /* \"#utility.yul\":7659:8033   */\n      jump(tag_210)\n    tag_212:\n        /* \"#utility.yul\":7663:7677   */\n      pop\n        /* \"#utility.yul\":8049:8052   */\n      dup6\n        /* \"#utility.yul\":8042:8052   */\n      swap4\n      pop\n        /* \"#utility.yul\":7280:8058   */\n      pop\n      pop\n      pop\n        /* \"#utility.yul\":7106:8058   */\n      swap3\n      swap2\n      pop\n      pop\n      jump\t// out\n        /* \"#utility.yul\":8132:9588   */\n    tag_125:\n        /* \"#utility.yul\":8261:8264   */\n      0x00\n        /* \"#utility.yul\":8297:8301   */\n      0xa0\n        /* \"#utility.yul\":8292:8295   */\n      dup4\n        /* \"#utility.yul\":8288:8302   */\n      add\n        /* \"#utility.yul\":8388:8392   */\n      0x00\n        /* \"#utility.yul\":8381:8386   */\n      dup4\n        /* \"#utility.yul\":8377:8393   */\n      add\n        /* \"#utility.yul\":8371:8394   */\n      mload\n        /* \"#utility.yul\":8441:8444   */\n      dup5\n        /* \"#utility.yul\":8435:8439   */\n      dup3\n        /* \"#utility.yul\":8431:8445   */\n      sub\n        /* \"#utility.yul\":8424:8428   */\n      0x00\n        /* \"#utility.yul\":8419:8422   */\n      dup7\n        /* \"#utility.yul\":8415:8429   */\n      add\n        /* \"#utility.yul\":8408:8446   */\n      mstore\n        /* \"#utility.yul\":8467:8538   */\n      tag_216\n        /* \"#utility.yul\":8533:8537   */\n      dup3\n        /* \"#utility.yul\":8519:8531   */\n      dup3\n        /* \"#utility.yul\":8467:8538   */\n      tag_114\n      jump\t// in\n    tag_216:\n        /* \"#utility.yul\":8459:8538   */\n      swap2\n      pop\n        /* \"#utility.yul\":8312:8549   */\n      pop\n        /* \"#utility.yul\":8631:8635   */\n      0x20\n        /* \"#utility.yul\":8624:8629   */\n      dup4\n        /* \"#utility.yul\":8620:8636   */\n      add\n        /* \"#utility.yul\":8614:8637   */\n      mload\n        /* \"#utility.yul\":8684:8687   */\n      dup5\n        /* \"#utility.yul\":8678:8682   */\n      dup3\n        /* \"#utility.yul\":8674:8688   */\n      sub\n        /* \"#utility.yul\":8667:8671   */\n      0x20\n        /* \"#utility.yul\":8662:8665   */\n      dup7\n        /* \"#utility.yul\":8658:8672   */\n      add\n        /* \"#utility.yul\":8651:8689   */\n      mstore\n        /* \"#utility.yul\":8710:8781   */\n      tag_217\n        /* \"#utility.yul\":8776:8780   */\n      dup3\n        /* \"#utility.yul\":8762:8774   */\n      dup3\n        /* \"#utility.yul\":8710:8781   */\n      tag_114\n      jump\t// in\n    tag_217:\n        /* \"#utility.yul\":8702:8781   */\n      swap2\n      pop\n        /* \"#utility.yul\":8559:8792   */\n      pop\n        /* \"#utility.yul\":8882:8886   */\n      0x40\n        /* \"#utility.yul\":8875:8880   */\n      dup4\n        /* \"#utility.yul\":8871:8887   */\n      add\n        /* \"#utility.yul\":8865:8888   */\n      mload\n        /* \"#utility.yul\":8935:8938   */\n      dup5\n        /* \"#utility.yul\":8929:8933   */\n      dup3\n        /* \"#utility.yul\":8925:8939   */\n      sub\n        /* \"#utility.yul\":8918:8922   */\n      0x40\n        /* \"#utility.yul\":8913:8916   */\n      dup7\n        /* \"#utility.yul\":8909:8923   */\n      add\n        /* \"#utility.yul\":8902:8940   */\n      mstore\n        /* \"#utility.yul\":8961:9124   */\n      tag_218\n        /* \"#utility.yul\":9119:9123   */\n      dup3\n        /* \"#utility.yul\":9105:9117   */\n      dup3\n        /* \"#utility.yul\":8961:9124   */\n      tag_124\n      jump\t// in\n    tag_218:\n        /* \"#utility.yul\":8953:9124   */\n      swap2\n      pop\n        /* \"#utility.yul\":8802:9135   */\n      pop\n        /* \"#utility.yul\":9221:9225   */\n      0x60\n        /* \"#utility.yul\":9214:9219   */\n      dup4\n        /* \"#utility.yul\":9210:9226   */\n      add\n        /* \"#utility.yul\":9204:9227   */\n      mload\n        /* \"#utility.yul\":9240:9303   */\n      tag_219\n        /* \"#utility.yul\":9297:9301   */\n      0x60\n        /* \"#utility.yul\":9292:9295   */\n      dup7\n        /* \"#utility.yul\":9288:9302   */\n      add\n        /* \"#utility.yul\":9274:9286   */\n      dup3\n        /* \"#utility.yul\":9240:9303   */\n      tag_118\n      jump\t// in\n    tag_219:\n        /* \"#utility.yul\":9145:9313   */\n      pop\n        /* \"#utility.yul\":9400:9404   */\n      0x80\n        /* \"#utility.yul\":9393:9398   */\n      dup4\n        /* \"#utility.yul\":9389:9405   */\n      add\n        /* \"#utility.yul\":9383:9406   */\n      mload\n        /* \"#utility.yul\":9453:9456   */\n      dup5\n        /* \"#utility.yul\":9447:9451   */\n      dup3\n        /* \"#utility.yul\":9443:9457   */\n      sub\n        /* \"#utility.yul\":9436:9440   */\n      0x80\n        /* \"#utility.yul\":9431:9434   */\n      dup7\n        /* \"#utility.yul\":9427:9441   */\n      add\n        /* \"#utility.yul\":9420:9458   */\n      mstore\n        /* \"#utility.yul\":9479:9550   */\n      tag_220\n        /* \"#utility.yul\":9545:9549   */\n      dup3\n        /* \"#utility.yul\":9531:9543   */\n      dup3\n        /* \"#utility.yul\":9479:9550   */\n      tag_114\n      jump\t// in\n    tag_220:\n        /* \"#utility.yul\":9471:9550   */\n      swap2\n      pop\n        /* \"#utility.yul\":9323:9561   */\n      pop\n        /* \"#utility.yul\":9578:9582   */\n      dup1\n        /* \"#utility.yul\":9571:9582   */\n      swap2\n      pop\n        /* \"#utility.yul\":8266:9588   */\n      pop\n        /* \"#utility.yul\":8132:9588   */\n      swap3\n      swap2\n      pop\n      pop\n      jump\t// out\n        /* \"#utility.yul\":9594:10093   */\n    tag_46:\n        /* \"#utility.yul\":9773:9777   */\n      0x00\n        /* \"#utility.yul\":9811:9813   */\n      0x40\n        /* \"#utility.yul\":9800:9809   */\n      dup3\n        /* \"#utility.yul\":9796:9814   */\n      add\n        /* \"#utility.yul\":9788:9814   */\n      swap1\n      pop\n        /* \"#utility.yul\":9824:9893   */\n      tag_222\n        /* \"#utility.yul\":9890:9891   */\n      0x00\n        /* \"#utility.yul\":9879:9888   */\n      dup4\n        /* \"#utility.yul\":9875:9892   */\n      add\n        /* \"#utility.yul\":9866:9872   */\n      dup6\n        /* \"#utility.yul\":9824:9893   */\n      tag_109\n      jump\t// in\n    tag_222:\n        /* \"#utility.yul\":9940:9949   */\n      dup2\n        /* \"#utility.yul\":9934:9938   */\n      dup2\n        /* \"#utility.yul\":9930:9950   */\n      sub\n        /* \"#utility.yul\":9925:9927   */\n      0x20\n        /* \"#utility.yul\":9914:9923   */\n      dup4\n        /* \"#utility.yul\":9910:9928   */\n      add\n        /* \"#utility.yul\":9903:9951   */\n      mstore\n        /* \"#utility.yul\":9968:10086   */\n      tag_223\n        /* \"#utility.yul\":10081:10085   */\n      dup2\n        /* \"#utility.yul\":10072:10078   */\n      dup5\n        /* \"#utility.yul\":9968:10086   */\n      tag_125\n      jump\t// in\n    tag_223:\n        /* \"#utility.yul\":9960:10086   */\n      swap1\n      pop\n        /* \"#utility.yul\":9594:10093   */\n      swap4\n      swap3\n      pop\n      pop\n      pop\n      jump\t// out\n        /* \"#utility.yul\":10099:10221   */\n    tag_126:\n        /* \"#utility.yul\":10172:10196   */\n      tag_225\n        /* \"#utility.yul\":10190:10195   */\n      dup2\n        /* \"#utility.yul\":10172:10196   */\n      tag_119\n      jump\t// in\n    tag_225:\n        /* \"#utility.yul\":10165:10170   */\n      dup2\n        /* \"#utility.yul\":10162:10197   */\n      eq\n        /* \"#utility.yul\":10152:10215   */\n      tag_226\n      jumpi\n        /* \"#utility.yul\":10211:10212   */\n      0x00\n        /* \"#utility.yul\":10208:10209   */\n      0x00\n        /* \"#utility.yul\":10201:10213   */\n      revert\n        /* \"#utility.yul\":10152:10215   */\n    tag_226:\n        /* \"#utility.yul\":10099:10221   */\n      pop\n      jump\t// out\n        /* \"#utility.yul\":10227:10370   */\n    tag_127:\n        /* \"#utility.yul\":10284:10289   */\n      0x00\n        /* \"#utility.yul\":10315:10321   */\n      dup2\n        /* \"#utility.yul\":10309:10322   */\n      mload\n        /* \"#utility.yul\":10300:10322   */\n      swap1\n      pop\n        /* \"#utility.yul\":10331:10364   */\n      tag_228\n        /* \"#utility.yul\":10358:10363   */\n      dup2\n        /* \"#utility.yul\":10331:10364   */\n      tag_126\n      jump\t// in\n    tag_228:\n        /* \"#utility.yul\":10227:10370   */\n      swap3\n      swap2\n      pop\n      pop\n      jump\t// out\n        /* \"#utility.yul\":10376:10727   */\n    tag_50:\n        /* \"#utility.yul\":10446:10452   */\n      0x00\n        /* \"#utility.yul\":10495:10497   */\n      0x20\n        /* \"#utility.yul\":10483:10492   */\n      dup3\n        /* \"#utility.yul\":10474:10481   */\n      dup5\n        /* \"#utility.yul\":10470:10493   */\n      sub\n        /* \"#utility.yul\":10466:10498   */\n      slt\n        /* \"#utility.yul\":10463:10582   */\n      iszero\n      tag_230\n      jumpi\n        /* \"#utility.yul\":10501:10580   */\n      tag_231\n      tag_97\n      jump\t// in\n    tag_231:\n        /* \"#utility.yul\":10463:10582   */\n    tag_230:\n        /* \"#utility.yul\":10621:10622   */\n      0x00\n        /* \"#utility.yul\":10646:10710   */\n      tag_232\n        /* \"#utility.yul\":10702:10709   */\n      dup5\n        /* \"#utility.yul\":10693:10699   */\n      dup3\n        /* \"#utility.yul\":10682:10691   */\n      dup6\n        /* \"#utility.yul\":10678:10700   */\n      add\n        /* \"#utility.yul\":10646:10710   */\n      tag_127\n      jump\t// in\n    tag_232:\n        /* \"#utility.yul\":10636:10710   */\n      swap2\n      pop\n        /* \"#utility.yul\":10592:10720   */\n      pop\n        /* \"#utility.yul\":10376:10727   */\n      swap3\n      swap2\n      pop\n      pop\n      jump\t// out\n        /* \"#utility.yul\":10733:10851   */\n    tag_128:\n        /* \"#utility.yul\":10820:10844   */\n      tag_234\n        /* \"#utility.yul\":10838:10843   */\n      dup2\n        /* \"#utility.yul\":10820:10844   */\n      tag_119\n      jump\t// in\n    tag_234:\n        /* \"#utility.yul\":10815:10818   */\n      dup3\n        /* \"#utility.yul\":10808:10845   */\n      mstore\n        /* \"#utility.yul\":10733:10851   */\n      pop\n      pop\n      jump\t// out\n        /* \"#utility.yul\":10857:11189   */\n    tag_61:\n        /* \"#utility.yul\":10978:10982   */\n      0x00\n        /* \"#utility.yul\":11016:11018   */\n      0x40\n        /* \"#utility.yul\":11005:11014   */\n      dup3\n        /* \"#utility.yul\":11001:11019   */\n      add\n        /* \"#utility.yul\":10993:11019   */\n      swap1\n      pop\n        /* \"#utility.yul\":11029:11100   */\n      tag_236\n        /* \"#utility.yul\":11097:11098   */\n      0x00\n        /* \"#utility.yul\":11086:11095   */\n      dup4\n        /* \"#utility.yul\":11082:11099   */\n      add\n        /* \"#utility.yul\":11073:11079   */\n      dup6\n        /* \"#utility.yul\":11029:11100   */\n      tag_128\n      jump\t// in\n    tag_236:\n        /* \"#utility.yul\":11110:11182   */\n      tag_237\n        /* \"#utility.yul\":11178:11180   */\n      0x20\n        /* \"#utility.yul\":11167:11176   */\n      dup4\n        /* \"#utility.yul\":11163:11181   */\n      add\n        /* \"#utility.yul\":11154:11160   */\n      dup5\n        /* \"#utility.yul\":11110:11182   */\n      tag_128\n      jump\t// in\n    tag_237:\n        /* \"#utility.yul\":10857:11189   */\n      swap4\n      swap3\n      pop\n      pop\n      pop\n      jump\t// out\n        /* \"#utility.yul\":11195:11527   */\n    tag_63:\n        /* \"#utility.yul\":11316:11320   */\n      0x00\n        /* \"#utility.yul\":11354:11356   */\n      0x40\n        /* \"#utility.yul\":11343:11352   */\n      dup3\n        /* \"#utility.yul\":11339:11357   */\n      add\n        /* \"#utility.yul\":11331:11357   */\n      swap1\n      pop\n        /* \"#utility.yul\":11367:11438   */\n      tag_239\n        /* \"#utility.yul\":11435:11436   */\n      0x00\n        /* \"#utility.yul\":11424:11433   */\n      dup4\n        /* \"#utility.yul\":11420:11437   */\n      add\n        /* \"#utility.yul\":11411:11417   */\n      dup6\n        /* \"#utility.yul\":11367:11438   */\n      tag_95\n      jump\t// in\n    tag_239:\n        /* \"#utility.yul\":11448:11520   */\n      tag_240\n        /* \"#utility.yul\":11516:11518   */\n      0x20\n        /* \"#utility.yul\":11505:11514   */\n      dup4\n        /* \"#utility.yul\":11501:11519   */\n      add\n        /* \"#utility.yul\":11492:11498   */\n      dup5\n        /* \"#utility.yul\":11448:11520   */\n      tag_128\n      jump\t// in\n    tag_240:\n        /* \"#utility.yul\":11195:11527   */\n      swap4\n      swap3\n      pop\n      pop\n      pop\n      jump\t// out\n        /* \"#utility.yul\":11533:11623   */\n    tag_129:\n        /* \"#utility.yul\":11567:11574   */\n      0x00\n        /* \"#utility.yul\":11610:11615   */\n      dup2\n        /* \"#utility.yul\":11603:11616   */\n      iszero\n        /* \"#utility.yul\":11596:11617   */\n      iszero\n        /* \"#utility.yul\":11585:11617   */\n      swap1\n      pop\n        /* \"#utility.yul\":11533:11623   */\n      swap2\n      swap1\n      pop\n      jump\t// out\n        /* \"#utility.yul\":11629:11745   */\n    tag_130:\n        /* \"#utility.yul\":11699:11720   */\n      tag_243\n        /* \"#utility.yul\":11714:11719   */\n      dup2\n        /* \"#utility.yul\":11699:11720   */\n      tag_129\n      jump\t// in\n    tag_243:\n        /* \"#utility.yul\":11692:11697   */\n      dup2\n        /* \"#utility.yul\":11689:11721   */\n      eq\n        /* \"#utility.yul\":11679:11739   */\n      tag_244\n      jumpi\n        /* \"#utility.yul\":11735:11736   */\n      0x00\n        /* \"#utility.yul\":11732:11733   */\n      0x00\n        /* \"#utility.yul\":11725:11737   */\n      revert\n        /* \"#utility.yul\":11679:11739   */\n    tag_244:\n        /* \"#utility.yul\":11629:11745   */\n      pop\n      jump\t// out\n        /* \"#utility.yul\":11751:11888   */\n    tag_131:\n        /* \"#utility.yul\":11805:11810   */\n      0x00\n        /* \"#utility.yul\":11836:11842   */\n      dup2\n        /* \"#utility.yul\":11830:11843   */\n      mload\n        /* \"#utility.yul\":11821:11843   */\n      swap1\n      pop\n        /* \"#utility.yul\":11852:11882   */\n      tag_246\n        /* \"#utility.yul\":11876:11881   */\n      dup2\n        /* \"#utility.yul\":11852:11882   */\n      tag_130\n      jump\t// in\n    tag_246:\n        /* \"#utility.yul\":11751:11888   */\n      swap3\n      swap2\n      pop\n      pop\n      jump\t// out\n        /* \"#utility.yul\":11894:12239   */\n    tag_67:\n        /* \"#utility.yul\":11961:11967   */\n      0x00\n        /* \"#utility.yul\":12010:12012   */\n      0x20\n        /* \"#utility.yul\":11998:12007   */\n      dup3\n        /* \"#utility.yul\":11989:11996   */\n      dup5\n        /* \"#utility.yul\":11985:12008   */\n      sub\n        /* \"#utility.yul\":11981:12013   */\n      slt\n        /* \"#utility.yul\":11978:12097   */\n      iszero\n      tag_248\n      jumpi\n        /* \"#utility.yul\":12016:12095   */\n      tag_249\n      tag_97\n      jump\t// in\n    tag_249:\n        /* \"#utility.yul\":11978:12097   */\n    tag_248:\n        /* \"#utility.yul\":12136:12137   */\n      0x00\n        /* \"#utility.yul\":12161:12222   */\n      tag_250\n        /* \"#utility.yul\":12214:12221   */\n      dup5\n        /* \"#utility.yul\":12205:12211   */\n      dup3\n        /* \"#utility.yul\":12194:12203   */\n      dup6\n        /* \"#utility.yul\":12190:12212   */\n      add\n        /* \"#utility.yul\":12161:12222   */\n      tag_131\n      jump\t// in\n    tag_250:\n        /* \"#utility.yul\":12151:12222   */\n      swap2\n      pop\n        /* \"#utility.yul\":12107:12232   */\n      pop\n        /* \"#utility.yul\":11894:12239   */\n      swap3\n      swap2\n      pop\n      pop\n      jump\t// out\n        /* \"#utility.yul\":12245:12367   */\n    tag_132:\n        /* \"#utility.yul\":12318:12342   */\n      tag_252\n        /* \"#utility.yul\":12336:12341   */\n      dup2\n        /* \"#utility.yul\":12318:12342   */\n      tag_104\n      jump\t// in\n    tag_252:\n        /* \"#utility.yul\":12311:12316   */\n      dup2\n        /* \"#utility.yul\":12308:12343   */\n      eq\n        /* \"#utility.yul\":12298:12361   */\n      tag_253\n      jumpi\n        /* \"#utility.yul\":12357:12358   */\n      0x00\n        /* \"#utility.yul\":12354:12355   */\n      0x00\n        /* \"#utility.yul\":12347:12359   */\n      revert\n        /* \"#utility.yul\":12298:12361   */\n    tag_253:\n        /* \"#utility.yul\":12245:12367   */\n      pop\n      jump\t// out\n        /* \"#utility.yul\":12373:12516   */\n    tag_133:\n        /* \"#utility.yul\":12430:12435   */\n      0x00\n        /* \"#utility.yul\":12461:12467   */\n      dup2\n        /* \"#utility.yul\":12455:12468   */\n      mload\n        /* \"#utility.yul\":12446:12468   */\n      swap1\n      pop\n        /* \"#utility.yul\":12477:12510   */\n      tag_255\n        /* \"#utility.yul\":12504:12509   */\n      dup2\n        /* \"#utility.yul\":12477:12510   */\n      tag_132\n      jump\t// in\n    tag_255:\n        /* \"#utility.yul\":12373:12516   */\n      swap3\n      swap2\n      pop\n      pop\n      jump\t// out\n        /* \"#utility.yul\":12522:12873   */\n    tag_72:\n        /* \"#utility.yul\":12592:12598   */\n      0x00\n        /* \"#utility.yul\":12641:12643   */\n      0x20\n        /* \"#utility.yul\":12629:12638   */\n      dup3\n        /* \"#utility.yul\":12620:12627   */\n      dup5\n        /* \"#utility.yul\":12616:12639   */\n      sub\n        /* \"#utility.yul\":12612:12644   */\n      slt\n        /* \"#utility.yul\":12609:12728   */\n      iszero\n      tag_257\n      jumpi\n        /* \"#utility.yul\":12647:12726   */\n      tag_258\n      tag_97\n      jump\t// in\n    tag_258:\n        /* \"#utility.yul\":12609:12728   */\n    tag_257:\n        /* \"#utility.yul\":12767:12768   */\n      0x00\n        /* \"#utility.yul\":12792:12856   */\n      tag_259\n        /* \"#utility.yul\":12848:12855   */\n      dup5\n        /* \"#utility.yul\":12839:12845   */\n      dup3\n        /* \"#utility.yul\":12828:12837   */\n      dup6\n        /* \"#utility.yul\":12824:12846   */\n      add\n        /* \"#utility.yul\":12792:12856   */\n      tag_133\n      jump\t// in\n    tag_259:\n        /* \"#utility.yul\":12782:12856   */\n      swap2\n      pop\n        /* \"#utility.yul\":12738:12866   */\n      pop\n        /* \"#utility.yul\":12522:12873   */\n      swap3\n      swap2\n      pop\n      pop\n      jump\t// out\n        /* \"#utility.yul\":12879:13039   */\n    tag_134:\n        /* \"#utility.yul\":13019:13031   */\n      0x4865792074686572652100000000000000000000000000000000000000000000\n        /* \"#utility.yul\":13015:13016   */\n      0x00\n        /* \"#utility.yul\":13007:13013   */\n      dup3\n        /* \"#utility.yul\":13003:13017   */\n      add\n        /* \"#utility.yul\":12996:13032   */\n      mstore\n        /* \"#utility.yul\":12879:13039   */\n      pop\n      jump\t// out\n        /* \"#utility.yul\":13045:13411   */\n    tag_135:\n        /* \"#utility.yul\":13187:13190   */\n      0x00\n        /* \"#utility.yul\":13208:13275   */\n      tag_262\n        /* \"#utility.yul\":13272:13274   */\n      0x0a\n        /* \"#utility.yul\":13267:13270   */\n      dup4\n        /* \"#utility.yul\":13208:13275   */\n      tag_106\n      jump\t// in\n    tag_262:\n        /* \"#utility.yul\":13201:13275   */\n      swap2\n      pop\n        /* \"#utility.yul\":13284:13377   */\n      tag_263\n        /* \"#utility.yul\":13373:13376   */\n      dup3\n        /* \"#utility.yul\":13284:13377   */\n      tag_134\n      jump\t// in\n    tag_263:\n        /* \"#utility.yul\":13402:13404   */\n      0x20\n        /* \"#utility.yul\":13397:13400   */\n      dup3\n        /* \"#utility.yul\":13393:13405   */\n      add\n        /* \"#utility.yul\":13386:13405   */\n      swap1\n      pop\n        /* \"#utility.yul\":13045:13411   */\n      swap2\n      swap1\n      pop\n      jump\t// out\n        /* \"#utility.yul\":13417:14167   */\n    tag_74:\n        /* \"#utility.yul\":13667:13671   */\n      0x00\n        /* \"#utility.yul\":13705:13708   */\n      0x80\n        /* \"#utility.yul\":13694:13703   */\n      dup3\n        /* \"#utility.yul\":13690:13709   */\n      add\n        /* \"#utility.yul\":13682:13709   */\n      swap1\n      pop\n        /* \"#utility.yul\":13719:13790   */\n      tag_265\n        /* \"#utility.yul\":13787:13788   */\n      0x00\n        /* \"#utility.yul\":13776:13785   */\n      dup4\n        /* \"#utility.yul\":13772:13789   */\n      add\n        /* \"#utility.yul\":13763:13769   */\n      dup7\n        /* \"#utility.yul\":13719:13790   */\n      tag_95\n      jump\t// in\n    tag_265:\n        /* \"#utility.yul\":13837:13846   */\n      dup2\n        /* \"#utility.yul\":13831:13835   */\n      dup2\n        /* \"#utility.yul\":13827:13847   */\n      sub\n        /* \"#utility.yul\":13822:13824   */\n      0x20\n        /* \"#utility.yul\":13811:13820   */\n      dup4\n        /* \"#utility.yul\":13807:13825   */\n      add\n        /* \"#utility.yul\":13800:13848   */\n      mstore\n        /* \"#utility.yul\":13865:13996   */\n      tag_266\n        /* \"#utility.yul\":13991:13995   */\n      dup2\n        /* \"#utility.yul\":13865:13996   */\n      tag_135\n      jump\t// in\n    tag_266:\n        /* \"#utility.yul\":13857:13996   */\n      swap1\n      pop\n        /* \"#utility.yul\":14006:14078   */\n      tag_267\n        /* \"#utility.yul\":14074:14076   */\n      0x40\n        /* \"#utility.yul\":14063:14072   */\n      dup4\n        /* \"#utility.yul\":14059:14077   */\n      add\n        /* \"#utility.yul\":14050:14056   */\n      dup6\n        /* \"#utility.yul\":14006:14078   */\n      tag_95\n      jump\t// in\n    tag_267:\n        /* \"#utility.yul\":14088:14160   */\n      tag_268\n        /* \"#utility.yul\":14156:14158   */\n      0x60\n        /* \"#utility.yul\":14145:14154   */\n      dup4\n        /* \"#utility.yul\":14141:14159   */\n      add\n        /* \"#utility.yul\":14132:14138   */\n      dup5\n        /* \"#utility.yul\":14088:14160   */\n      tag_128\n      jump\t// in\n    tag_268:\n        /* \"#utility.yul\":13417:14167   */\n      swap5\n      swap4\n      pop\n      pop\n      pop\n      pop\n      jump\t// out\n        /* \"#utility.yul\":14241:14588   */\n    tag_136:\n        /* \"#utility.yul\":14398:14402   */\n      0x20\n        /* \"#utility.yul\":14393:14396   */\n      dup3\n        /* \"#utility.yul\":14389:14403   */\n      add\n        /* \"#utility.yul\":14489:14493   */\n      0x00\n        /* \"#utility.yul\":14482:14487   */\n      dup3\n        /* \"#utility.yul\":14478:14494   */\n      add\n        /* \"#utility.yul\":14472:14495   */\n      mload\n        /* \"#utility.yul\":14508:14571   */\n      tag_270\n        /* \"#utility.yul\":14565:14569   */\n      0x00\n        /* \"#utility.yul\":14560:14563   */\n      dup6\n        /* \"#utility.yul\":14556:14570   */\n      add\n        /* \"#utility.yul\":14542:14554   */\n      dup3\n        /* \"#utility.yul\":14508:14571   */\n      tag_120\n      jump\t// in\n    tag_270:\n        /* \"#utility.yul\":14413:14581   */\n      pop\n        /* \"#utility.yul\":14367:14588   */\n      pop\n        /* \"#utility.yul\":14241:14588   */\n      pop\n      pop\n      jump\t// out\n        /* \"#utility.yul\":14594:14936   */\n    tag_91:\n        /* \"#utility.yul\":14747:14751   */\n      0x00\n        /* \"#utility.yul\":14785:14787   */\n      0x20\n        /* \"#utility.yul\":14774:14783   */\n      dup3\n        /* \"#utility.yul\":14770:14788   */\n      add\n        /* \"#utility.yul\":14762:14788   */\n      swap1\n      pop\n        /* \"#utility.yul\":14798:14929   */\n      tag_272\n        /* \"#utility.yul\":14926:14927   */\n      0x00\n        /* \"#utility.yul\":14915:14924   */\n      dup4\n        /* \"#utility.yul\":14911:14928   */\n      add\n        /* \"#utility.yul\":14902:14908   */\n      dup5\n        /* \"#utility.yul\":14798:14929   */\n      tag_136\n      jump\t// in\n    tag_272:\n        /* \"#utility.yul\":14594:14936   */\n      swap3\n      swap2\n      pop\n      pop\n      jump\t// out\n\n    auxdata: 0xa2646970667358221220349cf5b5d9b8baae13b8525974ae5123caa3288ba3ac3158adfa5c00048ac9d764736f6c634300081f0033\n}\n",
				"bytecode": {
					"linkReferences": {},
					"object": "608060405234801561000f575f5ffd5b506040516111cf3803806111cf83398181016040528101906100319190610258565b335f73ffffffffffffffffffffffffffffffffffffffff168173ffffffffffffffffffffffffffffffffffffffff16036100a2575f6040517f1e4fbdf700000000000000000000000000000000000000000000000000000000815260040161009991906102a5565b60405180910390fd5b6100b18161013960201b60201c565b508160015f6101000a81548173ffffffffffffffffffffffffffffffffffffffff021916908373ffffffffffffffffffffffffffffffffffffffff1602179055508060025f6101000a81548173ffffffffffffffffffffffffffffffffffffffff021916908373ffffffffffffffffffffffffffffffffffffffff16021790555050506102be565b5f5f5f9054906101000a900473ffffffffffffffffffffffffffffffffffffffff169050815f5f6101000a81548173ffffffffffffffffffffffffffffffffffffffff021916908373ffffffffffffffffffffffffffffffffffffffff1602179055508173ffffffffffffffffffffffffffffffffffffffff168173ffffffffffffffffffffffffffffffffffffffff167f8be0079c531659141344cd1fd0a4f28419497f9722a3daafe3b4186f6b6457e060405160405180910390a35050565b5f5ffd5b5f73ffffffffffffffffffffffffffffffffffffffff82169050919050565b5f610227826101fe565b9050919050565b6102378161021d565b8114610241575f5ffd5b50565b5f815190506102528161022e565b92915050565b5f5f6040838503121561026e5761026d6101fa565b5b5f61027b85828601610244565b925050602061028c85828601610244565b9150509250929050565b61029f8161021d565b82525050565b5f6020820190506102b85f830184610296565b92915050565b610f04806102cb5f395ff3fe608060405234801561000f575f5ffd5b506004361061004a575f3560e01c8063715018a61461004e5780638da5cb5b14610058578063a723269d14610076578063f2fde38b146100a6575b5f5ffd5b6100566100c2565b005b6100606100d5565b60405161006d91906108ae565b60405180910390f35b610090600480360381019061008b9190610932565b6100fc565b60405161009d9190610988565b60405180910390f35b6100c060048036038101906100bb91906109a1565b6105ef565b005b6100ca610673565b6100d35f6106fa565b565b5f5f5f9054906101000a900473ffffffffffffffffffffffffffffffffffffffff16905090565b5f610105610673565b5f6040518060a001604052808460405160200161012291906108ae565b604051602081830303815290604052815260200160405160200161014590610a26565b60405160208183030381529060405281526020015f67ffffffffffffffff81111561017357610172610a44565b5b6040519080825280602002602001820160405280156101ac57816020015b610199610841565b8152602001906001900390816101915790505b50815260200160025f9054906101000a900473ffffffffffffffffffffffffffffffffffffffff1673ffffffffffffffffffffffffffffffffffffffff168152602001610209604051806020016040528062030d408152506107bb565b81525090505f60015f9054906101000a900473ffffffffffffffffffffffffffffffffffffffff1673ffffffffffffffffffffffffffffffffffffffff166320487ded86846040518363ffffffff1660e01b815260040161026b929190610c74565b602060405180830381865afa158015610286573d5f5f3e3d5ffd5b505050506040513d601f19601f820116820180604052508101906102aa9190610ccc565b905060025f9054906101000a900473ffffffffffffffffffffffffffffffffffffffff1673ffffffffffffffffffffffffffffffffffffffff166370a08231306040518263ffffffff1660e01b815260040161030691906108ae565b602060405180830381865afa158015610321573d5f5f3e3d5ffd5b505050506040513d601f19601f820116820180604052508101906103459190610ccc565b8111156104235760025f9054906101000a900473ffffffffffffffffffffffffffffffffffffffff1673ffffffffffffffffffffffffffffffffffffffff166370a08231306040518263ffffffff1660e01b81526004016103a691906108ae565b602060405180830381865afa1580156103c1573d5f5f3e3d5ffd5b505050506040513d601f19601f820116820180604052508101906103e59190610ccc565b816040517f8f0f420600000000000000000000000000000000000000000000000000000000815260040161041a929190610d06565b60405180910390fd5b60025f9054906101000a900473ffffffffffffffffffffffffffffffffffffffff1673ffffffffffffffffffffffffffffffffffffffff1663095ea7b360015f9054906101000a900473ffffffffffffffffffffffffffffffffffffffff16836040518363ffffffff1660e01b81526004016104a0929190610d2d565b6020604051808303815f875af11580156104bc573d5f5f3e3d5ffd5b505050506040513d601f19601f820116820180604052508101906104e09190610d89565b5060015f9054906101000a900473ffffffffffffffffffffffffffffffffffffffff1673ffffffffffffffffffffffffffffffffffffffff166396f4e9f986846040518363ffffffff1660e01b815260040161053d929190610c74565b6020604051808303815f875af1158015610559573d5f5f3e3d5ffd5b505050506040513d601f19601f8201168201806040525081019061057d9190610dde565b92508467ffffffffffffffff16837fd36445359b3c6e26c120659aef090ce0f2eb005cf9af450d11aa1225609b4f4d8660025f9054906101000a900473ffffffffffffffffffffffffffffffffffffffff16856040516105df93929190610e53565b60405180910390a3505092915050565b6105f7610673565b5f73ffffffffffffffffffffffffffffffffffffffff168173ffffffffffffffffffffffffffffffffffffffff1603610667575f6040517f1e4fbdf700000000000000000000000000000000000000000000000000000000815260040161065e91906108ae565b60405180910390fd5b610670816106fa565b50565b61067b61083a565b73ffffffffffffffffffffffffffffffffffffffff166106996100d5565b73ffffffffffffffffffffffffffffffffffffffff16146106f8576106bc61083a565b6040517f118cdaa70000000000000000000000000000000000000000000000000000000081526004016106ef91906108ae565b60405180910390fd5b565b5f5f5f9054906101000a900473ffffffffffffffffffffffffffffffffffffffff169050815f5f6101000a81548173ffffffffffffffffffffffffffffffffffffffff021916908373ffffffffffffffffffffffffffffffffffffffff1602179055508173ffffffffffffffffffffffffffffffffffffffff168173ffffffffffffffffffffffffffffffffffffffff167f8be0079c531659141344cd1fd0a4f28419497f9722a3daafe3b4186f6b6457e060405160405180910390a35050565b60606397a657c960e01b826040516024016107d69190610eb5565b604051602081830303815290604052907bffffffffffffffffffffffffffffffffffffffffffffffffffffffff19166020820180517bffffffffffffffffffffffffffffffffffffffffffffffffffffffff83818316178352505050509050919050565b5f33905090565b60405180604001604052805f73ffffffffffffffffffffffffffffffffffffffff1681526020015f81525090565b5f73ffffffffffffffffffffffffffffffffffffffff82169050919050565b5f6108988261086f565b9050919050565b6108a88161088e565b82525050565b5f6020820190506108c15f83018461089f565b92915050565b5f5ffd5b5f67ffffffffffffffff82169050919050565b6108e7816108cb565b81146108f1575f5ffd5b50565b5f81359050610902816108de565b92915050565b6109118161088e565b811461091b575f5ffd5b50565b5f8135905061092c81610908565b92915050565b5f5f60408385031215610948576109476108c7565b5b5f610955858286016108f4565b92505060206109668582860161091e565b9150509250929050565b5f819050919050565b61098281610970565b82525050565b5f60208201905061099b5f830184610979565b92915050565b5f602082840312156109b6576109b56108c7565b5b5f6109c38482850161091e565b91505092915050565b5f82825260208201905092915050565b7f48657920746865726521204920616d2053756468616e736875000000000000005f82015250565b5f610a106019836109cc565b9150610a1b826109dc565b602082019050919050565b5f6020820190508181035f830152610a3d81610a04565b9050919050565b7f4e487b71000000000000000000000000000000000000000000000000000000005f52604160045260245ffd5b610a7a816108cb565b82525050565b5f81519050919050565b5f82825260208201905092915050565b8281835e5f83830152505050565b5f601f19601f8301169050919050565b5f610ac282610a80565b610acc8185610a8a565b9350610adc818560208601610a9a565b610ae581610aa8565b840191505092915050565b5f81519050919050565b5f82825260208201905092915050565b5f819050602082019050919050565b610b228161088e565b82525050565b5f819050919050565b610b3a81610b28565b82525050565b604082015f820151610b545f850182610b19565b506020820151610b676020850182610b31565b50505050565b5f610b788383610b40565b60408301905092915050565b5f602082019050919050565b5f610b9a82610af0565b610ba48185610afa565b9350610baf83610b0a565b805f5b83811015610bdf578151610bc68882610b6d565b9750610bd183610b84565b925050600181019050610bb2565b5085935050505092915050565b5f60a083015f8301518482035f860152610c068282610ab8565b91505060208301518482036020860152610c208282610ab8565b91505060408301518482036040860152610c3a8282610b90565b9150506060830151610c4f6060860182610b19565b5060808301518482036080860152610c678282610ab8565b9150508091505092915050565b5f604082019050610c875f830185610a71565b8181036020830152610c998184610bec565b90509392505050565b610cab81610b28565b8114610cb5575f5ffd5b50565b5f81519050610cc681610ca2565b92915050565b5f60208284031215610ce157610ce06108c7565b5b5f610cee84828501610cb8565b91505092915050565b610d0081610b28565b82525050565b5f604082019050610d195f830185610cf7565b610d266020830184610cf7565b9392505050565b5f604082019050610d405f83018561089f565b610d4d6020830184610cf7565b9392505050565b5f8115159050919050565b610d6881610d54565b8114610d72575f5ffd5b50565b5f81519050610d8381610d5f565b92915050565b5f60208284031215610d9e57610d9d6108c7565b5b5f610dab84828501610d75565b91505092915050565b610dbd81610970565b8114610dc7575f5ffd5b50565b5f81519050610dd881610db4565b92915050565b5f60208284031215610df357610df26108c7565b5b5f610e0084828501610dca565b91505092915050565b7f48657920746865726521000000000000000000000000000000000000000000005f82015250565b5f610e3d600a836109cc565b9150610e4882610e09565b602082019050919050565b5f608082019050610e665f83018661089f565b8181036020830152610e7781610e31565b9050610e86604083018561089f565b610e936060830184610cf7565b949350505050565b602082015f820151610eaf5f850182610b31565b50505050565b5f602082019050610ec85f830184610e9b565b9291505056fea2646970667358221220349cf5b5d9b8baae13b8525974ae5123caa3288ba3ac3158adfa5c00048ac9d764736f6c634300081f0033",
					"opcodes": "PUSH1 0x80 PUSH1 0x40 MSTORE CALLVALUE DUP1 ISZERO PUSH2 0xF JUMPI PUSH0 PUSH0 REVERT JUMPDEST POP PUSH1 0x40 MLOAD PUSH2 0x11CF CODESIZE SUB DUP1 PUSH2 0x11CF DUP4 CODECOPY DUP2 DUP2 ADD PUSH1 0x40 MSTORE DUP2 ADD SWAP1 PUSH2 0x31 SWAP2 SWAP1 PUSH2 0x258 JUMP JUMPDEST CALLER PUSH0 PUSH20 0xFFFFFFFFFFFFFFFFFFFFFFFFFFFFFFFFFFFFFFFF AND DUP2 PUSH20 0xFFFFFFFFFFFFFFFFFFFFFFFFFFFFFFFFFFFFFFFF AND SUB PUSH2 0xA2 JUMPI PUSH0 PUSH1 0x40 MLOAD PUSH32 0x1E4FBDF700000000000000000000000000000000000000000000000000000000 DUP2 MSTORE PUSH1 0x4 ADD PUSH2 0x99 SWAP2 SWAP1 PUSH2 0x2A5 JUMP JUMPDEST PUSH1 0x40 MLOAD DUP1 SWAP2 SUB SWAP1 REVERT JUMPDEST PUSH2 0xB1 DUP2 PUSH2 0x139 PUSH1 0x20 SHL PUSH1 0x20 SHR JUMP JUMPDEST POP DUP2 PUSH1 0x1 PUSH0 PUSH2 0x100 EXP DUP2 SLOAD DUP2 PUSH20 0xFFFFFFFFFFFFFFFFFFFFFFFFFFFFFFFFFFFFFFFF MUL NOT AND SWAP1 DUP4 PUSH20 0xFFFFFFFFFFFFFFFFFFFFFFFFFFFFFFFFFFFFFFFF AND MUL OR SWAP1 SSTORE POP DUP1 PUSH1 0x2 PUSH0 PUSH2 0x100 EXP DUP2 SLOAD DUP2 PUSH20 0xFFFFFFFFFFFFFFFFFFFFFFFFFFFFFFFFFFFFFFFF MUL NOT AND SWAP1 DUP4 PUSH20 0xFFFFFFFFFFFFFFFFFFFFFFFFFFFFFFFFFFFFFFFF AND MUL OR SWAP1 SSTORE POP POP POP PUSH2 0x2BE JUMP JUMPDEST PUSH0 PUSH0 PUSH0 SWAP1 SLOAD SWAP1 PUSH2 0x100 EXP SWAP1 DIV PUSH20 0xFFFFFFFFFFFFFFFFFFFFFFFFFFFFFFFFFFFFFFFF AND SWAP1 POP DUP2 PUSH0 PUSH0 PUSH2 0x100 EXP DUP2 SLOAD DUP2 PUSH20 0xFFFFFFFFFFFFFFFFFFFFFFFFFFFFFFFFFFFFFFFF MUL NOT AND SWAP1 DUP4 PUSH20 0xFFFFFFFFFFFFFFFFFFFFFFFFFFFFFFFFFFFFFFFF AND MUL OR SWAP1 SSTORE POP DUP2 PUSH20 0xFFFFFFFFFFFFFFFFFFFFFFFFFFFFFFFFFFFFFFFF AND DUP2 PUSH20 0xFFFFFFFFFFFFFFFFFFFFFFFFFFFFFFFFFFFFFFFF AND PUSH32 0x8BE0079C531659141344CD1FD0A4F28419497F9722A3DAAFE3B4186F6B6457E0 PUSH1 0x40 MLOAD PUSH1 0x40 MLOAD DUP1 SWAP2 SUB SWAP1 LOG3 POP POP JUMP JUMPDEST PUSH0 PUSH0 REVERT JUMPDEST PUSH0 PUSH20 0xFFFFFFFFFFFFFFFFFFFFFFFFFFFFFFFFFFFFFFFF DUP3 AND SWAP1 POP SWAP2 SWAP1 POP JUMP JUMPDEST PUSH0 PUSH2 0x227 DUP3 PUSH2 0x1FE JUMP JUMPDEST SWAP1 POP SWAP2 SWAP1 POP JUMP JUMPDEST PUSH2 0x237 DUP2 PUSH2 0x21D JUMP JUMPDEST DUP2 EQ PUSH2 0x241 JUMPI PUSH0 PUSH0 REVERT JUMPDEST POP JUMP JUMPDEST PUSH0 DUP2 MLOAD SWAP1 POP PUSH2 0x252 DUP2 PUSH2 0x22E JUMP JUMPDEST SWAP3 SWAP2 POP POP JUMP JUMPDEST PUSH0 PUSH0 PUSH1 0x40 DUP4 DUP6 SUB SLT ISZERO PUSH2 0x26E JUMPI PUSH2 0x26D PUSH2 0x1FA JUMP JUMPDEST JUMPDEST PUSH0 PUSH2 0x27B DUP6 DUP3 DUP7 ADD PUSH2 0x244 JUMP JUMPDEST SWAP3 POP POP PUSH1 0x20 PUSH2 0x28C DUP6 DUP3 DUP7 ADD PUSH2 0x244 JUMP JUMPDEST SWAP2 POP POP SWAP3 POP SWAP3 SWAP1 POP JUMP JUMPDEST PUSH2 0x29F DUP2 PUSH2 0x21D JUMP JUMPDEST DUP3 MSTORE POP POP JUMP JUMPDEST PUSH0 PUSH1 0x20 DUP3 ADD SWAP1 POP PUSH2 0x2B8 PUSH0 DUP4 ADD DUP5 PUSH2 0x296 JUMP JUMPDEST SWAP3 SWAP2 POP POP JUMP JUMPDEST PUSH2 0xF04 DUP1 PUSH2 0x2CB PUSH0 CODECOPY PUSH0 RETURN INVALID PUSH1 0x80 PUSH1 0x40 MSTORE CALLVALUE DUP1 ISZERO PUSH2 0xF JUMPI PUSH0 PUSH0 REVERT JUMPDEST POP PUSH1 0x4 CALLDATASIZE LT PUSH2 0x4A JUMPI PUSH0 CALLDATALOAD PUSH1 0xE0 SHR DUP1 PUSH4 0x715018A6 EQ PUSH2 0x4E JUMPI DUP1 PUSH4 0x8DA5CB5B EQ PUSH2 0x58 JUMPI DUP1 PUSH4 0xA723269D EQ PUSH2 0x76 JUMPI DUP1 PUSH4 0xF2FDE38B EQ PUSH2 0xA6 JUMPI JUMPDEST PUSH0 PUSH0 REVERT JUMPDEST PUSH2 0x56 PUSH2 0xC2 JUMP JUMPDEST STOP JUMPDEST PUSH2 0x60 PUSH2 0xD5 JUMP JUMPDEST PUSH1 0x40 MLOAD PUSH2 0x6D SWAP2 SWAP1 PUSH2 0x8AE JUMP JUMPDEST PUSH1 0x40 MLOAD DUP1 SWAP2 SUB SWAP1 RETURN JUMPDEST PUSH2 0x90 PUSH1 0x4 DUP1 CALLDATASIZE SUB DUP2 ADD SWAP1 PUSH2 0x8B SWAP2 SWAP1 PUSH2 0x932 JUMP JUMPDEST PUSH2 0xFC JUMP JUMPDEST PUSH1 0x40 MLOAD PUSH2 0x9D SWAP2 SWAP1 PUSH2 0x988 JUMP JUMPDEST PUSH1 0x40 MLOAD DUP1 SWAP2 SUB SWAP1 RETURN JUMPDEST PUSH2 0xC0 PUSH1 0x4 DUP1 CALLDATASIZE SUB DUP2 ADD SWAP1 PUSH2 0xBB SWAP2 SWAP1 PUSH2 0x9A1 JUMP JUMPDEST PUSH2 0x5EF JUMP JUMPDEST STOP JUMPDEST PUSH2 0xCA PUSH2 0x673 JUMP JUMPDEST PUSH2 0xD3 PUSH0 PUSH2 0x6FA JUMP JUMPDEST JUMP JUMPDEST PUSH0 PUSH0 PUSH0 SWAP1 SLOAD SWAP1 PUSH2 0x100 EXP SWAP1 DIV PUSH20 0xFFFFFFFFFFFFFFFFFFFFFFFFFFFFFFFFFFFFFFFF AND SWAP1 POP SWAP1 JUMP JUMPDEST PUSH0 PUSH2 0x105 PUSH2 0x673 JUMP JUMPDEST PUSH0 PUSH1 0x40 MLOAD DUP1 PUSH1 0xA0 ADD PUSH1 0x40 MSTORE DUP1 DUP5 PUSH1 0x40 MLOAD PUSH1 0x20 ADD PUSH2 0x122 SWAP2 SWAP1 PUSH2 0x8AE JUMP JUMPDEST PUSH1 0x40 MLOAD PUSH1 0x20 DUP2 DUP4 SUB SUB DUP2 MSTORE SWAP1 PUSH1 0x40 MSTORE DUP2 MSTORE PUSH1 0x20 ADD PUSH1 0x40 MLOAD PUSH1 0x20 ADD PUSH2 0x145 SWAP1 PUSH2 0xA26 JUMP JUMPDEST PUSH1 0x40 MLOAD PUSH1 0x20 DUP2 DUP4 SUB SUB DUP2 MSTORE SWAP1 PUSH1 0x40 MSTORE DUP2 MSTORE PUSH1 0x20 ADD PUSH0 PUSH8 0xFFFFFFFFFFFFFFFF DUP2 GT ISZERO PUSH2 0x173 JUMPI PUSH2 0x172 PUSH2 0xA44 JUMP JUMPDEST JUMPDEST PUSH1 0x40 MLOAD SWAP1 DUP1 DUP3 MSTORE DUP1 PUSH1 0x20 MUL PUSH1 0x20 ADD DUP3 ADD PUSH1 0x40 MSTORE DUP1 ISZERO PUSH2 0x1AC JUMPI DUP2 PUSH1 0x20 ADD JUMPDEST PUSH2 0x199 PUSH2 0x841 JUMP JUMPDEST DUP2 MSTORE PUSH1 0x20 ADD SWAP1 PUSH1 0x1 SWAP1 SUB SWAP1 DUP2 PUSH2 0x191 JUMPI SWAP1 POP JUMPDEST POP DUP2 MSTORE PUSH1 0x20 ADD PUSH1 0x2 PUSH0 SWAP1 SLOAD SWAP1 PUSH2 0x100 EXP SWAP1 DIV PUSH20 0xFFFFFFFFFFFFFFFFFFFFFFFFFFFFFFFFFFFFFFFF AND PUSH20 0xFFFFFFFFFFFFFFFFFFFFFFFFFFFFFFFFFFFFFFFF AND DUP2 MSTORE PUSH1 0x20 ADD PUSH2 0x209 PUSH1 0x40 MLOAD DUP1 PUSH1 0x20 ADD PUSH1 0x40 MSTORE DUP1 PUSH3 0x30D40 DUP2 MSTORE POP PUSH2 0x7BB JUMP JUMPDEST DUP2 MSTORE POP SWAP1 POP PUSH0 PUSH1 0x1 PUSH0 SWAP1 SLOAD SWAP1 PUSH2 0x100 EXP SWAP1 DIV PUSH20 0xFFFFFFFFFFFFFFFFFFFFFFFFFFFFFFFFFFFFFFFF AND PUSH20 0xFFFFFFFFFFFFFFFFFFFFFFFFFFFFFFFFFFFFFFFF AND PUSH4 0x20487DED DUP7 DUP5 PUSH1 0x40 MLOAD DUP4 PUSH4 0xFFFFFFFF AND PUSH1 0xE0 SHL DUP2 MSTORE PUSH1 0x4 ADD PUSH2 0x26B SWAP3 SWAP2 SWAP1 PUSH2 0xC74 JUMP JUMPDEST PUSH1 0x20 PUSH1 0x40 MLOAD DUP1 DUP4 SUB DUP2 DUP7 GAS STATICCALL ISZERO DUP1 ISZERO PUSH2 0x286 JUMPI RETURNDATASIZE PUSH0 PUSH0 RETURNDATACOPY RETURNDATASIZE PUSH0 REVERT JUMPDEST POP POP POP POP PUSH1 0x40 MLOAD RETURNDATASIZE PUSH1 0x1F NOT PUSH1 0x1F DUP3 ADD AND DUP3 ADD DUP1 PUSH1 0x40 MSTORE POP DUP2 ADD SWAP1 PUSH2 0x2AA SWAP2 SWAP1 PUSH2 0xCCC JUMP JUMPDEST SWAP1 POP PUSH1 0x2 PUSH0 SWAP1 SLOAD SWAP1 PUSH2 0x100 EXP SWAP1 DIV PUSH20 0xFFFFFFFFFFFFFFFFFFFFFFFFFFFFFFFFFFFFFFFF AND PUSH20 0xFFFFFFFFFFFFFFFFFFFFFFFFFFFFFFFFFFFFFFFF AND PUSH4 0x70A08231 ADDRESS PUSH1 0x40 MLOAD DUP3 PUSH4 0xFFFFFFFF AND PUSH1 0xE0 SHL DUP2 MSTORE PUSH1 0x4 ADD PUSH2 0x306 SWAP2 SWAP1 PUSH2 0x8AE JUMP JUMPDEST PUSH1 0x20 PUSH1 0x40 MLOAD DUP1 DUP4 SUB DUP2 DUP7 GAS STATICCALL ISZERO DUP1 ISZERO PUSH2 0x321 JUMPI RETURNDATASIZE PUSH0 PUSH0 RETURNDATACOPY RETURNDATASIZE PUSH0 REVERT JUMPDEST POP POP POP POP PUSH1 0x40 MLOAD RETURNDATASIZE PUSH1 0x1F NOT PUSH1 0x1F DUP3 ADD AND DUP3 ADD DUP1 PUSH1 0x40 MSTORE POP DUP2 ADD SWAP1 PUSH2 0x345 SWAP2 SWAP1 PUSH2 0xCCC JUMP JUMPDEST DUP2 GT ISZERO PUSH2 0x423 JUMPI PUSH1 0x2 PUSH0 SWAP1 SLOAD SWAP1 PUSH2 0x100 EXP SWAP1 DIV PUSH20 0xFFFFFFFFFFFFFFFFFFFFFFFFFFFFFFFFFFFFFFFF AND PUSH20 0xFFFFFFFFFFFFFFFFFFFFFFFFFFFFFFFFFFFFFFFF AND PUSH4 0x70A08231 ADDRESS PUSH1 0x40 MLOAD DUP3 PUSH4 0xFFFFFFFF AND PUSH1 0xE0 SHL DUP2 MSTORE PUSH1 0x4 ADD PUSH2 0x3A6 SWAP2 SWAP1 PUSH2 0x8AE JUMP JUMPDEST PUSH1 0x20 PUSH1 0x40 MLOAD DUP1 DUP4 SUB DUP2 DUP7 GAS STATICCALL ISZERO DUP1 ISZERO PUSH2 0x3C1 JUMPI RETURNDATASIZE PUSH0 PUSH0 RETURNDATACOPY RETURNDATASIZE PUSH0 REVERT JUMPDEST POP POP POP POP PUSH1 0x40 MLOAD RETURNDATASIZE PUSH1 0x1F NOT PUSH1 0x1F DUP3 ADD AND DUP3 ADD DUP1 PUSH1 0x40 MSTORE POP DUP2 ADD SWAP1 PUSH2 0x3E5 SWAP2 SWAP1 PUSH2 0xCCC JUMP JUMPDEST DUP2 PUSH1 0x40 MLOAD PUSH32 0x8F0F420600000000000000000000000000000000000000000000000000000000 DUP2 MSTORE PUSH1 0x4 ADD PUSH2 0x41A SWAP3 SWAP2 SWAP1 PUSH2 0xD06 JUMP JUMPDEST PUSH1 0x40 MLOAD DUP1 SWAP2 SUB SWAP1 REVERT JUMPDEST PUSH1 0x2 PUSH0 SWAP1 SLOAD SWAP1 PUSH2 0x100 EXP SWAP1 DIV PUSH20 0xFFFFFFFFFFFFFFFFFFFFFFFFFFFFFFFFFFFFFFFF AND PUSH20 0xFFFFFFFFFFFFFFFFFFFFFFFFFFFFFFFFFFFFFFFF AND PUSH4 0x95EA7B3 PUSH1 0x1 PUSH0 SWAP1 SLOAD SWAP1 PUSH2 0x100 EXP SWAP1 DIV PUSH20 0xFFFFFFFFFFFFFFFFFFFFFFFFFFFFFFFFFFFFFFFF AND DUP4 PUSH1 0x40 MLOAD DUP4 PUSH4 0xFFFFFFFF AND PUSH1 0xE0 SHL DUP2 MSTORE PUSH1 0x4 ADD PUSH2 0x4A0 SWAP3 SWAP2 SWAP1 PUSH2 0xD2D JUMP JUMPDEST PUSH1 0x20 PUSH1 0x40 MLOAD DUP1 DUP4 SUB DUP2 PUSH0 DUP8 GAS CALL ISZERO DUP1 ISZERO PUSH2 0x4BC JUMPI RETURNDATASIZE PUSH0 PUSH0 RETURNDATACOPY RETURNDATASIZE PUSH0 REVERT JUMPDEST POP POP POP POP PUSH1 0x40 MLOAD RETURNDATASIZE PUSH1 0x1F NOT PUSH1 0x1F DUP3 ADD AND DUP3 ADD DUP1 PUSH1 0x40 MSTORE POP DUP2 ADD SWAP1 PUSH2 0x4E0 SWAP2 SWAP1 PUSH2 0xD89 JUMP JUMPDEST POP PUSH1 0x1 PUSH0 SWAP1 SLOAD SWAP1 PUSH2 0x100 EXP SWAP1 DIV PUSH20 0xFFFFFFFFFFFFFFFFFFFFFFFFFFFFFFFFFFFFFFFF AND PUSH20 0xFFFFFFFFFFFFFFFFFFFFFFFFFFFFFFFFFFFFFFFF AND PUSH4 0x96F4E9F9 DUP7 DUP5 PUSH1 0x40 MLOAD DUP4 PUSH4 0xFFFFFFFF AND PUSH1 0xE0 SHL DUP2 MSTORE PUSH1 0x4 ADD PUSH2 0x53D SWAP3 SWAP2 SWAP1 PUSH2 0xC74 JUMP JUMPDEST PUSH1 0x20 PUSH1 0x40 MLOAD DUP1 DUP4 SUB DUP2 PUSH0 DUP8 GAS CALL ISZERO DUP1 ISZERO PUSH2 0x559 JUMPI RETURNDATASIZE PUSH0 PUSH0 RETURNDATACOPY RETURNDATASIZE PUSH0 REVERT JUMPDEST POP POP POP POP PUSH1 0x40 MLOAD RETURNDATASIZE PUSH1 0x1F NOT PUSH1 0x1F DUP3 ADD AND DUP3 ADD DUP1 PUSH1 0x40 MSTORE POP DUP2 ADD SWAP1 PUSH2 0x57D SWAP2 SWAP1 PUSH2 0xDDE JUMP JUMPDEST SWAP3 POP DUP5 PUSH8 0xFFFFFFFFFFFFFFFF AND DUP4 PUSH32 0xD36445359B3C6E26C120659AEF090CE0F2EB005CF9AF450D11AA1225609B4F4D DUP7 PUSH1 0x2 PUSH0 SWAP1 SLOAD SWAP1 PUSH2 0x100 EXP SWAP1 DIV PUSH20 0xFFFFFFFFFFFFFFFFFFFFFFFFFFFFFFFFFFFFFFFF AND DUP6 PUSH1 0x40 MLOAD PUSH2 0x5DF SWAP4 SWAP3 SWAP2 SWAP1 PUSH2 0xE53 JUMP JUMPDEST PUSH1 0x40 MLOAD DUP1 SWAP2 SUB SWAP1 LOG3 POP POP SWAP3 SWAP2 POP POP JUMP JUMPDEST PUSH2 0x5F7 PUSH2 0x673 JUMP JUMPDEST PUSH0 PUSH20 0xFFFFFFFFFFFFFFFFFFFFFFFFFFFFFFFFFFFFFFFF AND DUP2 PUSH20 0xFFFFFFFFFFFFFFFFFFFFFFFFFFFFFFFFFFFFFFFF AND SUB PUSH2 0x667 JUMPI PUSH0 PUSH1 0x40 MLOAD PUSH32 0x1E4FBDF700000000000000000000000000000000000000000000000000000000 DUP2 MSTORE PUSH1 0x4 ADD PUSH2 0x65E SWAP2 SWAP1 PUSH2 0x8AE JUMP JUMPDEST PUSH1 0x40 MLOAD DUP1 SWAP2 SUB SWAP1 REVERT JUMPDEST PUSH2 0x670 DUP2 PUSH2 0x6FA JUMP JUMPDEST POP JUMP JUMPDEST PUSH2 0x67B PUSH2 0x83A JUMP JUMPDEST PUSH20 0xFFFFFFFFFFFFFFFFFFFFFFFFFFFFFFFFFFFFFFFF AND PUSH2 0x699 PUSH2 0xD5 JUMP JUMPDEST PUSH20 0xFFFFFFFFFFFFFFFFFFFFFFFFFFFFFFFFFFFFFFFF AND EQ PUSH2 0x6F8 JUMPI PUSH2 0x6BC PUSH2 0x83A JUMP JUMPDEST PUSH1 0x40 MLOAD PUSH32 0x118CDAA700000000000000000000000000000000000000000000000000000000 DUP2 MSTORE PUSH1 0x4 ADD PUSH2 0x6EF SWAP2 SWAP1 PUSH2 0x8AE JUMP JUMPDEST PUSH1 0x40 MLOAD DUP1 SWAP2 SUB SWAP1 REVERT JUMPDEST JUMP JUMPDEST PUSH0 PUSH0 PUSH0 SWAP1 SLOAD SWAP1 PUSH2 0x100 EXP SWAP1 DIV PUSH20 0xFFFFFFFFFFFFFFFFFFFFFFFFFFFFFFFFFFFFFFFF AND SWAP1 POP DUP2 PUSH0 PUSH0 PUSH2 0x100 EXP DUP2 SLOAD DUP2 PUSH20 0xFFFFFFFFFFFFFFFFFFFFFFFFFFFFFFFFFFFFFFFF MUL NOT AND SWAP1 DUP4 PUSH20 0xFFFFFFFFFFFFFFFFFFFFFFFFFFFFFFFFFFFFFFFF AND MUL OR SWAP1 SSTORE POP DUP2 PUSH20 0xFFFFFFFFFFFFFFFFFFFFFFFFFFFFFFFFFFFFFFFF AND DUP2 PUSH20 0xFFFFFFFFFFFFFFFFFFFFFFFFFFFFFFFFFFFFFFFF AND PUSH32 0x8BE0079C531659141344CD1FD0A4F28419497F9722A3DAAFE3B4186F6B6457E0 PUSH1 0x40 MLOAD PUSH1 0x40 MLOAD DUP1 SWAP2 SUB SWAP1 LOG3 POP POP JUMP JUMPDEST PUSH1 0x60 PUSH4 0x97A657C9 PUSH1 0xE0 SHL DUP3 PUSH1 0x40 MLOAD PUSH1 0x24 ADD PUSH2 0x7D6 SWAP2 SWAP1 PUSH2 0xEB5 JUMP JUMPDEST PUSH1 0x40 MLOAD PUSH1 0x20 DUP2 DUP4 SUB SUB DUP2 MSTORE SWAP1 PUSH1 0x40 MSTORE SWAP1 PUSH28 0xFFFFFFFFFFFFFFFFFFFFFFFFFFFFFFFFFFFFFFFFFFFFFFFFFFFFFFFF NOT AND PUSH1 0x20 DUP3 ADD DUP1 MLOAD PUSH28 0xFFFFFFFFFFFFFFFFFFFFFFFFFFFFFFFFFFFFFFFFFFFFFFFFFFFFFFFF DUP4 DUP2 DUP4 AND OR DUP4 MSTORE POP POP POP POP SWAP1 POP SWAP2 SWAP1 POP JUMP JUMPDEST PUSH0 CALLER SWAP1 POP SWAP1 JUMP JUMPDEST PUSH1 0x40 MLOAD DUP1 PUSH1 0x40 ADD PUSH1 0x40 MSTORE DUP1 PUSH0 PUSH20 0xFFFFFFFFFFFFFFFFFFFFFFFFFFFFFFFFFFFFFFFF AND DUP2 MSTORE PUSH1 0x20 ADD PUSH0 DUP2 MSTORE POP SWAP1 JUMP JUMPDEST PUSH0 PUSH20 0xFFFFFFFFFFFFFFFFFFFFFFFFFFFFFFFFFFFFFFFF DUP3 AND SWAP1 POP SWAP2 SWAP1 POP JUMP JUMPDEST PUSH0 PUSH2 0x898 DUP3 PUSH2 0x86F JUMP JUMPDEST SWAP1 POP SWAP2 SWAP1 POP JUMP JUMPDEST PUSH2 0x8A8 DUP2 PUSH2 0x88E JUMP JUMPDEST DUP3 MSTORE POP POP JUMP JUMPDEST PUSH0 PUSH1 0x20 DUP3 ADD SWAP1 POP PUSH2 0x8C1 PUSH0 DUP4 ADD DUP5 PUSH2 0x89F JUMP JUMPDEST SWAP3 SWAP2 POP POP JUMP JUMPDEST PUSH0 PUSH0 REVERT JUMPDEST PUSH0 PUSH8 0xFFFFFFFFFFFFFFFF DUP3 AND SWAP1 POP SWAP2 SWAP1 POP JUMP JUMPDEST PUSH2 0x8E7 DUP2 PUSH2 0x8CB JUMP JUMPDEST DUP2 EQ PUSH2 0x8F1 JUMPI PUSH0 PUSH0 REVERT JUMPDEST POP JUMP JUMPDEST PUSH0 DUP2 CALLDATALOAD SWAP1 POP PUSH2 0x902 DUP2 PUSH2 0x8DE JUMP JUMPDEST SWAP3 SWAP2 POP POP JUMP JUMPDEST PUSH2 0x911 DUP2 PUSH2 0x88E JUMP JUMPDEST DUP2 EQ PUSH2 0x91B JUMPI PUSH0 PUSH0 REVERT JUMPDEST POP JUMP JUMPDEST PUSH0 DUP2 CALLDATALOAD SWAP1 POP PUSH2 0x92C DUP2 PUSH2 0x908 JUMP JUMPDEST SWAP3 SWAP2 POP POP JUMP JUMPDEST PUSH0 PUSH0 PUSH1 0x40 DUP4 DUP6 SUB SLT ISZERO PUSH2 0x948 JUMPI PUSH2 0x947 PUSH2 0x8C7 JUMP JUMPDEST JUMPDEST PUSH0 PUSH2 0x955 DUP6 DUP3 DUP7 ADD PUSH2 0x8F4 JUMP JUMPDEST SWAP3 POP POP PUSH1 0x20 PUSH2 0x966 DUP6 DUP3 DUP7 ADD PUSH2 0x91E JUMP JUMPDEST SWAP2 POP POP SWAP3 POP SWAP3 SWAP1 POP JUMP JUMPDEST PUSH0 DUP2 SWAP1 POP SWAP2 SWAP1 POP JUMP JUMPDEST PUSH2 0x982 DUP2 PUSH2 0x970 JUMP JUMPDEST DUP3 MSTORE POP POP JUMP JUMPDEST PUSH0 PUSH1 0x20 DUP3 ADD SWAP1 POP PUSH2 0x99B PUSH0 DUP4 ADD DUP5 PUSH2 0x979 JUMP JUMPDEST SWAP3 SWAP2 POP POP JUMP JUMPDEST PUSH0 PUSH1 0x20 DUP3 DUP5 SUB SLT ISZERO PUSH2 0x9B6 JUMPI PUSH2 0x9B5 PUSH2 0x8C7 JUMP JUMPDEST JUMPDEST PUSH0 PUSH2 0x9C3 DUP5 DUP3 DUP6 ADD PUSH2 0x91E JUMP JUMPDEST SWAP2 POP POP SWAP3 SWAP2 POP POP JUMP JUMPDEST PUSH0 DUP3 DUP3 MSTORE PUSH1 0x20 DUP3 ADD SWAP1 POP SWAP3 SWAP2 POP POP JUMP JUMPDEST PUSH32 0x48657920746865726521204920616D2053756468616E73687500000000000000 PUSH0 DUP3 ADD MSTORE POP JUMP JUMPDEST PUSH0 PUSH2 0xA10 PUSH1 0x19 DUP4 PUSH2 0x9CC JUMP JUMPDEST SWAP2 POP PUSH2 0xA1B DUP3 PUSH2 0x9DC JUMP JUMPDEST PUSH1 0x20 DUP3 ADD SWAP1 POP SWAP2 SWAP1 POP JUMP JUMPDEST PUSH0 PUSH1 0x20 DUP3 ADD SWAP1 POP DUP2 DUP2 SUB PUSH0 DUP4 ADD MSTORE PUSH2 0xA3D DUP2 PUSH2 0xA04 JUMP JUMPDEST SWAP1 POP SWAP2 SWAP1 POP JUMP JUMPDEST PUSH32 0x4E487B7100000000000000000000000000000000000000000000000000000000 PUSH0 MSTORE PUSH1 0x41 PUSH1 0x4 MSTORE PUSH1 0x24 PUSH0 REVERT JUMPDEST PUSH2 0xA7A DUP2 PUSH2 0x8CB JUMP JUMPDEST DUP3 MSTORE POP POP JUMP JUMPDEST PUSH0 DUP2 MLOAD SWAP1 POP SWAP2 SWAP1 POP JUMP JUMPDEST PUSH0 DUP3 DUP3 MSTORE PUSH1 0x20 DUP3 ADD SWAP1 POP SWAP3 SWAP2 POP POP JUMP JUMPDEST DUP3 DUP2 DUP4 MCOPY PUSH0 DUP4 DUP4 ADD MSTORE POP POP POP JUMP JUMPDEST PUSH0 PUSH1 0x1F NOT PUSH1 0x1F DUP4 ADD AND SWAP1 POP SWAP2 SWAP1 POP JUMP JUMPDEST PUSH0 PUSH2 0xAC2 DUP3 PUSH2 0xA80 JUMP JUMPDEST PUSH2 0xACC DUP2 DUP6 PUSH2 0xA8A JUMP JUMPDEST SWAP4 POP PUSH2 0xADC DUP2 DUP6 PUSH1 0x20 DUP7 ADD PUSH2 0xA9A JUMP JUMPDEST PUSH2 0xAE5 DUP2 PUSH2 0xAA8 JUMP JUMPDEST DUP5 ADD SWAP2 POP POP SWAP3 SWAP2 POP POP JUMP JUMPDEST PUSH0 DUP2 MLOAD SWAP1 POP SWAP2 SWAP1 POP JUMP JUMPDEST PUSH0 DUP3 DUP3 MSTORE PUSH1 0x20 DUP3 ADD SWAP1 POP SWAP3 SWAP2 POP POP JUMP JUMPDEST PUSH0 DUP2 SWAP1 POP PUSH1 0x20 DUP3 ADD SWAP1 POP SWAP2 SWAP1 POP JUMP JUMPDEST PUSH2 0xB22 DUP2 PUSH2 0x88E JUMP JUMPDEST DUP3 MSTORE POP POP JUMP JUMPDEST PUSH0 DUP2 SWAP1 POP SWAP2 SWAP1 POP JUMP JUMPDEST PUSH2 0xB3A DUP2 PUSH2 0xB28 JUMP JUMPDEST DUP3 MSTORE POP POP JUMP JUMPDEST PUSH1 0x40 DUP3 ADD PUSH0 DUP3 ADD MLOAD PUSH2 0xB54 PUSH0 DUP6 ADD DUP3 PUSH2 0xB19 JUMP JUMPDEST POP PUSH1 0x20 DUP3 ADD MLOAD PUSH2 0xB67 PUSH1 0x20 DUP6 ADD DUP3 PUSH2 0xB31 JUMP JUMPDEST POP POP POP POP JUMP JUMPDEST PUSH0 PUSH2 0xB78 DUP4 DUP4 PUSH2 0xB40 JUMP JUMPDEST PUSH1 0x40 DUP4 ADD SWAP1 POP SWAP3 SWAP2 POP POP JUMP JUMPDEST PUSH0 PUSH1 0x20 DUP3 ADD SWAP1 POP SWAP2 SWAP1 POP JUMP JUMPDEST PUSH0 PUSH2 0xB9A DUP3 PUSH2 0xAF0 JUMP JUMPDEST PUSH2 0xBA4 DUP2 DUP6 PUSH2 0xAFA JUMP JUMPDEST SWAP4 POP PUSH2 0xBAF DUP4 PUSH2 0xB0A JUMP JUMPDEST DUP1 PUSH0 JUMPDEST DUP4 DUP2 LT ISZERO PUSH2 0xBDF JUMPI DUP2 MLOAD PUSH2 0xBC6 DUP9 DUP3 PUSH2 0xB6D JUMP JUMPDEST SWAP8 POP PUSH2 0xBD1 DUP4 PUSH2 0xB84 JUMP JUMPDEST SWAP3 POP POP PUSH1 0x1 DUP2 ADD SWAP1 POP PUSH2 0xBB2 JUMP JUMPDEST POP DUP6 SWAP4 POP POP POP POP SWAP3 SWAP2 POP POP JUMP JUMPDEST PUSH0 PUSH1 0xA0 DUP4 ADD PUSH0 DUP4 ADD MLOAD DUP5 DUP3 SUB PUSH0 DUP7 ADD MSTORE PUSH2 0xC06 DUP3 DUP3 PUSH2 0xAB8 JUMP JUMPDEST SWAP2 POP POP PUSH1 0x20 DUP4 ADD MLOAD DUP5 DUP3 SUB PUSH1 0x20 DUP7 ADD MSTORE PUSH2 0xC20 DUP3 DUP3 PUSH2 0xAB8 JUMP JUMPDEST SWAP2 POP POP PUSH1 0x40 DUP4 ADD MLOAD DUP5 DUP3 SUB PUSH1 0x40 DUP7 ADD MSTORE PUSH2 0xC3A DUP3 DUP3 PUSH2 0xB90 JUMP JUMPDEST SWAP2 POP POP PUSH1 0x60 DUP4 ADD MLOAD PUSH2 0xC4F PUSH1 0x60 DUP7 ADD DUP3 PUSH2 0xB19 JUMP JUMPDEST POP PUSH1 0x80 DUP4 ADD MLOAD DUP5 DUP3 SUB PUSH1 0x80 DUP7 ADD MSTORE PUSH2 0xC67 DUP3 DUP3 PUSH2 0xAB8 JUMP JUMPDEST SWAP2 POP POP DUP1 SWAP2 POP POP SWAP3 SWAP2 POP POP JUMP JUMPDEST PUSH0 PUSH1 0x40 DUP3 ADD SWAP1 POP PUSH2 0xC87 PUSH0 DUP4 ADD DUP6 PUSH2 0xA71 JUMP JUMPDEST DUP2 DUP2 SUB PUSH1 0x20 DUP4 ADD MSTORE PUSH2 0xC99 DUP2 DUP5 PUSH2 0xBEC JUMP JUMPDEST SWAP1 POP SWAP4 SWAP3 POP POP POP JUMP JUMPDEST PUSH2 0xCAB DUP2 PUSH2 0xB28 JUMP JUMPDEST DUP2 EQ PUSH2 0xCB5 JUMPI PUSH0 PUSH0 REVERT JUMPDEST POP JUMP JUMPDEST PUSH0 DUP2 MLOAD SWAP1 POP PUSH2 0xCC6 DUP2 PUSH2 0xCA2 JUMP JUMPDEST SWAP3 SWAP2 POP POP JUMP JUMPDEST PUSH0 PUSH1 0x20 DUP3 DUP5 SUB SLT ISZERO PUSH2 0xCE1 JUMPI PUSH2 0xCE0 PUSH2 0x8C7 JUMP JUMPDEST JUMPDEST PUSH0 PUSH2 0xCEE DUP5 DUP3 DUP6 ADD PUSH2 0xCB8 JUMP JUMPDEST SWAP2 POP POP SWAP3 SWAP2 POP POP JUMP JUMPDEST PUSH2 0xD00 DUP2 PUSH2 0xB28 JUMP JUMPDEST DUP3 MSTORE POP POP JUMP JUMPDEST PUSH0 PUSH1 0x40 DUP3 ADD SWAP1 POP PUSH2 0xD19 PUSH0 DUP4 ADD DUP6 PUSH2 0xCF7 JUMP JUMPDEST PUSH2 0xD26 PUSH1 0x20 DUP4 ADD DUP5 PUSH2 0xCF7 JUMP JUMPDEST SWAP4 SWAP3 POP POP POP JUMP JUMPDEST PUSH0 PUSH1 0x40 DUP3 ADD SWAP1 POP PUSH2 0xD40 PUSH0 DUP4 ADD DUP6 PUSH2 0x89F JUMP JUMPDEST PUSH2 0xD4D PUSH1 0x20 DUP4 ADD DUP5 PUSH2 0xCF7 JUMP JUMPDEST SWAP4 SWAP3 POP POP POP JUMP JUMPDEST PUSH0 DUP2 ISZERO ISZERO SWAP1 POP SWAP2 SWAP1 POP JUMP JUMPDEST PUSH2 0xD68 DUP2 PUSH2 0xD54 JUMP JUMPDEST DUP2 EQ PUSH2 0xD72 JUMPI PUSH0 PUSH0 REVERT JUMPDEST POP JUMP JUMPDEST PUSH0 DUP2 MLOAD SWAP1 POP PUSH2 0xD83 DUP2 PUSH2 0xD5F JUMP JUMPDEST SWAP3 SWAP2 POP POP JUMP JUMPDEST PUSH0 PUSH1 0x20 DUP3 DUP5 SUB SLT ISZERO PUSH2 0xD9E JUMPI PUSH2 0xD9D PUSH2 0x8C7 JUMP JUMPDEST JUMPDEST PUSH0 PUSH2 0xDAB DUP5 DUP3 DUP6 ADD PUSH2 0xD75 JUMP JUMPDEST SWAP2 POP POP SWAP3 SWAP2 POP POP JUMP JUMPDEST PUSH2 0xDBD DUP2 PUSH2 0x970 JUMP JUMPDEST DUP2 EQ PUSH2 0xDC7 JUMPI PUSH0 PUSH0 REVERT JUMPDEST POP JUMP JUMPDEST PUSH0 DUP2 MLOAD SWAP1 POP PUSH2 0xDD8 DUP2 PUSH2 0xDB4 JUMP JUMPDEST SWAP3 SWAP2 POP POP JUMP JUMPDEST PUSH0 PUSH1 0x20 DUP3 DUP5 SUB SLT ISZERO PUSH2 0xDF3 JUMPI PUSH2 0xDF2 PUSH2 0x8C7 JUMP JUMPDEST JUMPDEST PUSH0 PUSH2 0xE00 DUP5 DUP3 DUP6 ADD PUSH2 0xDCA JUMP JUMPDEST SWAP2 POP POP SWAP3 SWAP2 POP POP JUMP JUMPDEST PUSH32 0x4865792074686572652100000000000000000000000000000000000000000000 PUSH0 DUP3 ADD MSTORE POP JUMP JUMPDEST PUSH0 PUSH2 0xE3D PUSH1 0xA DUP4 PUSH2 0x9CC JUMP JUMPDEST SWAP2 POP PUSH2 0xE48 DUP3 PUSH2 0xE09 JUMP JUMPDEST PUSH1 0x20 DUP3 ADD SWAP1 POP SWAP2 SWAP1 POP JUMP JUMPDEST PUSH0 PUSH1 0x80 DUP3 ADD SWAP1 POP PUSH2 0xE66 PUSH0 DUP4 ADD DUP7 PUSH2 0x89F JUMP JUMPDEST DUP2 DUP2 SUB PUSH1 0x20 DUP4 ADD MSTORE PUSH2 0xE77 DUP2 PUSH2 0xE31 JUMP JUMPDEST SWAP1 POP PUSH2 0xE86 PUSH1 0x40 DUP4 ADD DUP6 PUSH2 0x89F JUMP JUMPDEST PUSH2 0xE93 PUSH1 0x60 DUP4 ADD DUP5 PUSH2 0xCF7 JUMP JUMPDEST SWAP5 SWAP4 POP POP POP POP JUMP JUMPDEST PUSH1 0x20 DUP3 ADD PUSH0 DUP3 ADD MLOAD PUSH2 0xEAF PUSH0 DUP6 ADD DUP3 PUSH2 0xB31 JUMP JUMPDEST POP POP POP POP JUMP JUMPDEST PUSH0 PUSH1 0x20 DUP3 ADD SWAP1 POP PUSH2 0xEC8 PUSH0 DUP4 ADD DUP5 PUSH2 0xE9B JUMP JUMPDEST SWAP3 SWAP2 POP POP JUMP INVALID LOG2 PUSH5 0x6970667358 0x22 SLT KECCAK256 CALLVALUE SWAP13 CREATE2 0xB5 0xD9 0xB8 0xBA 0xAE SGT 0xB8 MSTORE MSIZE PUSH21 0xAE5123CAA3288BA3AC3158ADFA5C00048AC9D76473 PUSH16 0x6C634300081F00330000000000000000 "
				},
				"gasEstimates": {
					"creation": {
						"codeDepositCost": "768800",
						"executionCost": "infinite",
						"totalCost": "infinite"
					},
					"external": {
						"owner()": "2514",
						"renounceOwnership()": "infinite",
						"sendMessage(uint64,address)": "infinite",
						"transferOwnership(address)": "infinite"
					}
				},
				"methodIdentifiers": {
					"owner()": "8da5cb5b",
					"renounceOwnership()": "715018a6",
					"sendMessage(uint64,address)": "a723269d",
					"transferOwnership(address)": "f2fde38b"
				}
			},
			"storageLayout": {
				"storage": [
					{
						"astId": 209,
						"contract": "contracts/CCIP/CCIP chainlink local/MessageSender.sol:MessageSender",
						"label": "_owner",
						"offset": 0,
						"slot": "0",
						"type": "t_address"
					},
					{
						"astId": 414,
						"contract": "contracts/CCIP/CCIP chainlink local/MessageSender.sol:MessageSender",
						"label": "s_router",
						"offset": 0,
						"slot": "1",
						"type": "t_contract(IRouterClient)42"
					},
					{
						"astId": 417,
						"contract": "contracts/CCIP/CCIP chainlink local/MessageSender.sol:MessageSender",
						"label": "s_linkToken",
						"offset": 0,
						"slot": "2",
						"type": "t_contract(IERC20)200"
					}
				],
				"types": {
					"t_address": {
						"encoding": "inplace",
						"label": "address",
						"numberOfBytes": "20"
					},
					"t_contract(IERC20)200": {
						"encoding": "inplace",
						"label": "contract IERC20",
						"numberOfBytes": "20"
					},
					"t_contract(IRouterClient)42": {
						"encoding": "inplace",
						"label": "contract IRouterClient",
						"numberOfBytes": "20"
					}
				}
			},
			"userdoc": {
				"kind": "user",
				"methods": {
					"constructor": {
						"notice": "Constructor initializes the contract with the router address."
					},
					"sendMessage(uint64,address)": {
						"notice": "Sends data to receiver on the destination chain."
					}
				},
				"version": 1
			}
		}
	}
}