{
	"contracts/Encoding.sol": {
		"Encoding": {
			"abi": [
				{
					"inputs": [],
					"name": "combineStrings",
					"outputs": [
						{
							"internalType": "string",
							"name": "",
							"type": "string"
						}
					],
					"stateMutability": "pure",
					"type": "function"
				},
				{
					"inputs": [],
					"name": "decodeMultiString",
					"outputs": [
						{
							"internalType": "string",
							"name": "",
							"type": "string"
						},
						{
							"internalType": "string",
							"name": "",
							"type": "string"
						}
					],
					"stateMutability": "pure",
					"type": "function"
				},
				{
					"inputs": [],
					"name": "decodePackedMultiString",
					"outputs": [
						{
							"internalType": "string",
							"name": "",
							"type": "string"
						},
						{
							"internalType": "string",
							"name": "",
							"type": "string"
						}
					],
					"stateMutability": "pure",
					"type": "function"
				},
				{
					"inputs": [],
					"name": "encodeMultiString",
					"outputs": [
						{
							"internalType": "bytes",
							"name": "",
							"type": "bytes"
						}
					],
					"stateMutability": "pure",
					"type": "function"
				},
				{
					"inputs": [],
					"name": "encodePackedMultiString",
					"outputs": [
						{
							"internalType": "bytes",
							"name": "",
							"type": "bytes"
						}
					],
					"stateMutability": "pure",
					"type": "function"
				},
				{
					"inputs": [],
					"name": "encodePackedString",
					"outputs": [
						{
							"internalType": "bytes",
							"name": "",
							"type": "bytes"
						}
					],
					"stateMutability": "pure",
					"type": "function"
				},
				{
					"inputs": [],
					"name": "encodeString",
					"outputs": [
						{
							"internalType": "bytes",
							"name": "",
							"type": "bytes"
						}
					],
					"stateMutability": "pure",
					"type": "function"
				},
				{
					"inputs": [],
					"name": "encodeStringBytes",
					"outputs": [
						{
							"internalType": "bytes",
							"name": "",
							"type": "bytes"
						}
					],
					"stateMutability": "pure",
					"type": "function"
				},
				{
					"inputs": [],
					"name": "multiStringCastPacked",
					"outputs": [
						{
							"internalType": "string",
							"name": "",
							"type": "string"
						}
					],
					"stateMutability": "pure",
					"type": "function"
				}
			],
			"devdoc": {
				"kind": "dev",
				"methods": {},
				"version": 1
			},
			"evm": {
				"assembly": "    /* \"contracts/Encoding.sol\":61:1942  contract Encoding {... */\n  mstore(0x40, 0x80)\n  callvalue\n  dup1\n  iszero\n  tag_1\n  jumpi\n  revert(0x00, 0x00)\ntag_1:\n  pop\n  dataSize(sub_0)\n  dup1\n  dataOffset(sub_0)\n  0x00\n  codecopy\n  0x00\n  return\nstop\n\nsub_0: assembly {\n        /* \"contracts/Encoding.sol\":61:1942  contract Encoding {... */\n      mstore(0x40, 0x80)\n      callvalue\n      dup1\n      iszero\n      tag_1\n      jumpi\n      revert(0x00, 0x00)\n    tag_1:\n      pop\n      jumpi(tag_2, lt(calldatasize, 0x04))\n      shr(0xe0, calldataload(0x00))\n      dup1\n      0x60ee46c3\n      gt\n      tag_12\n      jumpi\n      dup1\n      0x60ee46c3\n      eq\n      tag_7\n      jumpi\n      dup1\n      0x717757c8\n      eq\n      tag_8\n      jumpi\n      dup1\n      0xcedb985e\n      eq\n      tag_9\n      jumpi\n      dup1\n      0xed5df365\n      eq\n      tag_10\n      jumpi\n      dup1\n      0xf1c287ef\n      eq\n      tag_11\n      jumpi\n      jump(tag_2)\n    tag_12:\n      dup1\n      0x0c9b8a8f\n      eq\n      tag_3\n      jumpi\n      dup1\n      0x114a7610\n      eq\n      tag_4\n      jumpi\n      dup1\n      0x37d0a3c8\n      eq\n      tag_5\n      jumpi\n      dup1\n      0x406ec9f2\n      eq\n      tag_6\n      jumpi\n    tag_2:\n      revert(0x00, 0x00)\n        /* \"contracts/Encoding.sol\":1577:1799  function decodePackedMultiString() public pure returns(string memory, string memory){... */\n    tag_3:\n      tag_13\n      tag_14\n      jump\t// in\n    tag_13:\n      mload(0x40)\n      tag_15\n      swap3\n      swap2\n      swap1\n      tag_16\n      jump\t// in\n    tag_15:\n      mload(0x40)\n      dup1\n      swap2\n      sub\n      swap1\n      return\n        /* \"contracts/Encoding.sol\":86:255  function combineStrings() public pure returns(string memory){... */\n    tag_4:\n      tag_17\n      tag_18\n      jump\t// in\n    tag_17:\n      mload(0x40)\n      tag_19\n      swap2\n      swap1\n      tag_20\n      jump\t// in\n    tag_19:\n      mload(0x40)\n      dup1\n      swap2\n      sub\n      swap1\n      return\n        /* \"contracts/Encoding.sol\":962:1094  function encodeMultiString() public pure returns(bytes memory){... */\n    tag_5:\n      tag_21\n      tag_22\n      jump\t// in\n    tag_21:\n      mload(0x40)\n      tag_23\n      swap2\n      swap1\n      tag_24\n      jump\t// in\n    tag_23:\n      mload(0x40)\n      dup1\n      swap2\n      sub\n      swap1\n      return\n        /* \"contracts/Encoding.sol\":754:954  function encodeStringBytes() public pure returns(bytes memory){... */\n    tag_6:\n      tag_25\n      tag_26\n      jump\t// in\n    tag_25:\n      mload(0x40)\n      tag_27\n      swap2\n      swap1\n      tag_24\n      jump\t// in\n    tag_27:\n      mload(0x40)\n      dup1\n      swap2\n      sub\n      swap1\n      return\n        /* \"contracts/Encoding.sol\":1811:1939  function multiStringCastPacked() public pure returns (string memory) {... */\n    tag_7:\n      tag_28\n      tag_29\n      jump\t// in\n    tag_28:\n      mload(0x40)\n      tag_30\n      swap2\n      swap1\n      tag_20\n      jump\t// in\n    tag_30:\n      mload(0x40)\n      dup1\n      swap2\n      sub\n      swap1\n      return\n        /* \"contracts/Encoding.sol\":587:746  function encodePackedString() public pure returns(bytes memory){... */\n    tag_8:\n      tag_31\n      tag_32\n      jump\t// in\n    tag_31:\n      mload(0x40)\n      tag_33\n      swap2\n      swap1\n      tag_24\n      jump\t// in\n    tag_33:\n      mload(0x40)\n      dup1\n      swap2\n      sub\n      swap1\n      return\n        /* \"contracts/Encoding.sol\":1320:1464  function encodePackedMultiString() public pure returns(bytes memory){... */\n    tag_9:\n      tag_34\n      tag_35\n      jump\t// in\n    tag_34:\n      mload(0x40)\n      tag_36\n      swap2\n      swap1\n      tag_24\n      jump\t// in\n    tag_36:\n      mload(0x40)\n      dup1\n      swap2\n      sub\n      swap1\n      return\n        /* \"contracts/Encoding.sol\":263:579  function encodeString() public pure returns(bytes memory){... */\n    tag_10:\n      tag_37\n      tag_38\n      jump\t// in\n    tag_37:\n      mload(0x40)\n      tag_39\n      swap2\n      swap1\n      tag_24\n      jump\t// in\n    tag_39:\n      mload(0x40)\n      dup1\n      swap2\n      sub\n      swap1\n      return\n        /* \"contracts/Encoding.sol\":1102:1312  function decodeMultiString() public pure returns(string memory, string memory){... */\n    tag_11:\n      tag_40\n      tag_41\n      jump\t// in\n    tag_40:\n      mload(0x40)\n      tag_42\n      swap3\n      swap2\n      swap1\n      tag_16\n      jump\t// in\n    tag_42:\n      mload(0x40)\n      dup1\n      swap2\n      sub\n      swap1\n      return\n        /* \"contracts/Encoding.sol\":1577:1799  function decodePackedMultiString() public pure returns(string memory, string memory){... */\n    tag_14:\n        /* \"contracts/Encoding.sol\":1632:1645  string memory */\n      0x60\n        /* \"contracts/Encoding.sol\":1647:1660  string memory */\n      dup1\n        /* \"contracts/Encoding.sol\":1673:1689  string memory s1 */\n      0x00\n        /* \"contracts/Encoding.sol\":1691:1707  string memory s2 */\n      0x00\n        /* \"contracts/Encoding.sol\":1722:1747  encodePackedMultiString() */\n      tag_44\n        /* \"contracts/Encoding.sol\":1722:1745  encodePackedMultiString */\n      tag_35\n        /* \"contracts/Encoding.sol\":1722:1747  encodePackedMultiString() */\n      jump\t// in\n    tag_44:\n        /* \"contracts/Encoding.sol\":1711:1764  abi.decode(encodePackedMultiString(),(string,string)) */\n      dup1\n      0x20\n      add\n      swap1\n      mload\n      dup2\n      add\n      swap1\n      tag_45\n      swap2\n      swap1\n      tag_46\n      jump\t// in\n    tag_45:\n        /* \"contracts/Encoding.sol\":1672:1764  (string memory s1, string memory s2) = abi.decode(encodePackedMultiString(),(string,string)) */\n      swap2\n      pop\n      swap2\n      pop\n        /* \"contracts/Encoding.sol\":1783:1785  s1 */\n      dup2\n        /* \"contracts/Encoding.sol\":1788:1790  s2 */\n      dup2\n        /* \"contracts/Encoding.sol\":1775:1791  return (s1 , s2) */\n      swap4\n      pop\n      swap4\n      pop\n      pop\n      pop\n        /* \"contracts/Encoding.sol\":1577:1799  function decodePackedMultiString() public pure returns(string memory, string memory){... */\n      swap1\n      swap2\n      jump\t// out\n        /* \"contracts/Encoding.sol\":86:255  function combineStrings() public pure returns(string memory){... */\n    tag_18:\n        /* \"contracts/Encoding.sol\":132:145  string memory */\n      0x60\n        /* \"contracts/Encoding.sol\":171:207  abi.encodePacked(\"Hello \", \"World!\") */\n      add(0x20, mload(0x40))\n      tag_48\n      swap1\n      tag_49\n      jump\t// in\n    tag_48:\n      mload(0x40)\n      0x20\n      dup2\n      dup4\n      sub\n      sub\n      dup2\n      mstore\n      swap1\n      0x40\n      mstore\n        /* \"contracts/Encoding.sol\":157:208  return string(abi.encodePacked(\"Hello \", \"World!\")) */\n      swap1\n      pop\n        /* \"contracts/Encoding.sol\":86:255  function combineStrings() public pure returns(string memory){... */\n      swap1\n      jump\t// out\n        /* \"contracts/Encoding.sol\":962:1094  function encodeMultiString() public pure returns(bytes memory){... */\n    tag_22:\n        /* \"contracts/Encoding.sol\":1011:1023  bytes memory */\n      0x60\n        /* \"contracts/Encoding.sol\":1042:1085  abi.encode(\"Hello World!\",\"I am Sudhanshu\") */\n      add(0x20, mload(0x40))\n      tag_51\n      swap1\n      tag_52\n      jump\t// in\n    tag_51:\n      mload(0x40)\n      0x20\n      dup2\n      dup4\n      sub\n      sub\n      dup2\n      mstore\n      swap1\n      0x40\n      mstore\n        /* \"contracts/Encoding.sol\":1035:1085  return abi.encode(\"Hello World!\",\"I am Sudhanshu\") */\n      swap1\n      pop\n        /* \"contracts/Encoding.sol\":962:1094  function encodeMultiString() public pure returns(bytes memory){... */\n      swap1\n      jump\t// out\n        /* \"contracts/Encoding.sol\":754:954  function encodeStringBytes() public pure returns(bytes memory){... */\n    tag_26:\n        /* \"contracts/Encoding.sol\":803:815  bytes memory */\n      0x60\n        /* \"contracts/Encoding.sol\":827:844  bytes memory Byte */\n      0x00\n        /* \"contracts/Encoding.sol\":847:870  bytes(\"Hello \"\"World!\") */\n      mload(0x40)\n      dup1\n      0x40\n      add\n      0x40\n      mstore\n      dup1\n      0x0c\n      dup2\n      mstore\n      0x20\n      add\n      0x48656c6c6f20576f726c64210000000000000000000000000000000000000000\n      dup2\n      mstore\n      pop\n        /* \"contracts/Encoding.sol\":827:870  bytes memory Byte = bytes(\"Hello \"\"World!\") */\n      swap1\n      pop\n        /* \"contracts/Encoding.sol\":926:930  Byte */\n      dup1\n        /* \"contracts/Encoding.sol\":919:930  return Byte */\n      swap2\n      pop\n      pop\n        /* \"contracts/Encoding.sol\":754:954  function encodeStringBytes() public pure returns(bytes memory){... */\n      swap1\n      jump\t// out\n        /* \"contracts/Encoding.sol\":1811:1939  function multiStringCastPacked() public pure returns (string memory) {... */\n    tag_29:\n        /* \"contracts/Encoding.sol\":1865:1878  string memory */\n      0x60\n        /* \"contracts/Encoding.sol\":1905:1930  encodePackedMultiString() */\n      tag_55\n        /* \"contracts/Encoding.sol\":1905:1928  encodePackedMultiString */\n      tag_35\n        /* \"contracts/Encoding.sol\":1905:1930  encodePackedMultiString() */\n      jump\t// in\n    tag_55:\n        /* \"contracts/Encoding.sol\":1891:1931  return string(encodePackedMultiString()) */\n      swap1\n      pop\n        /* \"contracts/Encoding.sol\":1811:1939  function multiStringCastPacked() public pure returns (string memory) {... */\n      swap1\n      jump\t// out\n        /* \"contracts/Encoding.sol\":587:746  function encodePackedString() public pure returns(bytes memory){... */\n    tag_32:\n        /* \"contracts/Encoding.sol\":637:649  bytes memory */\n      0x60\n        /* \"contracts/Encoding.sol\":668:700  abi.encodePacked(\"Hello World!\") */\n      add(0x20, mload(0x40))\n      tag_57\n      swap1\n      tag_58\n      jump\t// in\n    tag_57:\n      mload(0x40)\n      0x20\n      dup2\n      dup4\n      sub\n      sub\n      dup2\n      mstore\n      swap1\n      0x40\n      mstore\n        /* \"contracts/Encoding.sol\":661:700  return abi.encodePacked(\"Hello World!\") */\n      swap1\n      pop\n        /* \"contracts/Encoding.sol\":587:746  function encodePackedString() public pure returns(bytes memory){... */\n      swap1\n      jump\t// out\n        /* \"contracts/Encoding.sol\":1320:1464  function encodePackedMultiString() public pure returns(bytes memory){... */\n    tag_35:\n        /* \"contracts/Encoding.sol\":1375:1387  bytes memory */\n      0x60\n        /* \"contracts/Encoding.sol\":1406:1455  abi.encodePacked(\"Hello World!\",\"I am Sudhanshu\") */\n      add(0x20, mload(0x40))\n      tag_60\n      swap1\n      tag_61\n      jump\t// in\n    tag_60:\n      mload(0x40)\n      0x20\n      dup2\n      dup4\n      sub\n      sub\n      dup2\n      mstore\n      swap1\n      0x40\n      mstore\n        /* \"contracts/Encoding.sol\":1399:1455  return abi.encodePacked(\"Hello World!\",\"I am Sudhanshu\") */\n      swap1\n      pop\n        /* \"contracts/Encoding.sol\":1320:1464  function encodePackedMultiString() public pure returns(bytes memory){... */\n      swap1\n      jump\t// out\n        /* \"contracts/Encoding.sol\":263:579  function encodeString() public pure returns(bytes memory){... */\n    tag_38:\n        /* \"contracts/Encoding.sol\":307:319  bytes memory */\n      0x60\n        /* \"contracts/Encoding.sol\":338:364  abi.encode(\"Hello World!\") */\n      add(0x20, mload(0x40))\n      tag_63\n      swap1\n      tag_64\n      jump\t// in\n    tag_63:\n      mload(0x40)\n      0x20\n      dup2\n      dup4\n      sub\n      sub\n      dup2\n      mstore\n      swap1\n      0x40\n      mstore\n        /* \"contracts/Encoding.sol\":331:364  return abi.encode(\"Hello World!\") */\n      swap1\n      pop\n        /* \"contracts/Encoding.sol\":263:579  function encodeString() public pure returns(bytes memory){... */\n      swap1\n      jump\t// out\n        /* \"contracts/Encoding.sol\":1102:1312  function decodeMultiString() public pure returns(string memory, string memory){... */\n    tag_41:\n        /* \"contracts/Encoding.sol\":1151:1164  string memory */\n      0x60\n        /* \"contracts/Encoding.sol\":1166:1179  string memory */\n      dup1\n        /* \"contracts/Encoding.sol\":1192:1208  string memory s1 */\n      0x00\n        /* \"contracts/Encoding.sol\":1210:1226  string memory s2 */\n      0x00\n        /* \"contracts/Encoding.sol\":1241:1260  encodeMultiString() */\n      tag_66\n        /* \"contracts/Encoding.sol\":1241:1258  encodeMultiString */\n      tag_22\n        /* \"contracts/Encoding.sol\":1241:1260  encodeMultiString() */\n      jump\t// in\n    tag_66:\n        /* \"contracts/Encoding.sol\":1230:1277  abi.decode(encodeMultiString(),(string,string)) */\n      dup1\n      0x20\n      add\n      swap1\n      mload\n      dup2\n      add\n      swap1\n      tag_67\n      swap2\n      swap1\n      tag_46\n      jump\t// in\n    tag_67:\n        /* \"contracts/Encoding.sol\":1191:1277  (string memory s1, string memory s2) = abi.decode(encodeMultiString(),(string,string)) */\n      swap2\n      pop\n      swap2\n      pop\n        /* \"contracts/Encoding.sol\":1296:1298  s1 */\n      dup2\n        /* \"contracts/Encoding.sol\":1301:1303  s2 */\n      dup2\n        /* \"contracts/Encoding.sol\":1288:1304  return (s1 , s2) */\n      swap4\n      pop\n      swap4\n      pop\n      pop\n      pop\n        /* \"contracts/Encoding.sol\":1102:1312  function decodeMultiString() public pure returns(string memory, string memory){... */\n      swap1\n      swap2\n      jump\t// out\n        /* \"#utility.yul\":7:106   */\n    tag_68:\n        /* \"#utility.yul\":59:65   */\n      0x00\n        /* \"#utility.yul\":93:98   */\n      dup2\n        /* \"#utility.yul\":87:99   */\n      mload\n        /* \"#utility.yul\":77:99   */\n      swap1\n      pop\n        /* \"#utility.yul\":7:106   */\n      swap2\n      swap1\n      pop\n      jump\t// out\n        /* \"#utility.yul\":112:281   */\n    tag_69:\n        /* \"#utility.yul\":196:207   */\n      0x00\n        /* \"#utility.yul\":230:236   */\n      dup3\n        /* \"#utility.yul\":225:228   */\n      dup3\n        /* \"#utility.yul\":218:237   */\n      mstore\n        /* \"#utility.yul\":270:274   */\n      0x20\n        /* \"#utility.yul\":265:268   */\n      dup3\n        /* \"#utility.yul\":261:275   */\n      add\n        /* \"#utility.yul\":246:275   */\n      swap1\n      pop\n        /* \"#utility.yul\":112:281   */\n      swap3\n      swap2\n      pop\n      pop\n      jump\t// out\n        /* \"#utility.yul\":287:426   */\n    tag_70:\n        /* \"#utility.yul\":376:382   */\n      dup3\n        /* \"#utility.yul\":371:374   */\n      dup2\n        /* \"#utility.yul\":366:369   */\n      dup4\n        /* \"#utility.yul\":360:383   */\n      mcopy\n        /* \"#utility.yul\":417:418   */\n      0x00\n        /* \"#utility.yul\":408:414   */\n      dup4\n        /* \"#utility.yul\":403:406   */\n      dup4\n        /* \"#utility.yul\":399:415   */\n      add\n        /* \"#utility.yul\":392:419   */\n      mstore\n        /* \"#utility.yul\":287:426   */\n      pop\n      pop\n      pop\n      jump\t// out\n        /* \"#utility.yul\":432:534   */\n    tag_71:\n        /* \"#utility.yul\":473:479   */\n      0x00\n        /* \"#utility.yul\":524:526   */\n      0x1f\n        /* \"#utility.yul\":520:527   */\n      not\n        /* \"#utility.yul\":515:517   */\n      0x1f\n        /* \"#utility.yul\":508:513   */\n      dup4\n        /* \"#utility.yul\":504:518   */\n      add\n        /* \"#utility.yul\":500:528   */\n      and\n        /* \"#utility.yul\":490:528   */\n      swap1\n      pop\n        /* \"#utility.yul\":432:534   */\n      swap2\n      swap1\n      pop\n      jump\t// out\n        /* \"#utility.yul\":540:917   */\n    tag_72:\n        /* \"#utility.yul\":628:631   */\n      0x00\n        /* \"#utility.yul\":656:695   */\n      tag_104\n        /* \"#utility.yul\":689:694   */\n      dup3\n        /* \"#utility.yul\":656:695   */\n      tag_68\n      jump\t// in\n    tag_104:\n        /* \"#utility.yul\":711:782   */\n      tag_105\n        /* \"#utility.yul\":775:781   */\n      dup2\n        /* \"#utility.yul\":770:773   */\n      dup6\n        /* \"#utility.yul\":711:782   */\n      tag_69\n      jump\t// in\n    tag_105:\n        /* \"#utility.yul\":704:782   */\n      swap4\n      pop\n        /* \"#utility.yul\":791:856   */\n      tag_106\n        /* \"#utility.yul\":849:855   */\n      dup2\n        /* \"#utility.yul\":844:847   */\n      dup6\n        /* \"#utility.yul\":837:841   */\n      0x20\n        /* \"#utility.yul\":830:835   */\n      dup7\n        /* \"#utility.yul\":826:842   */\n      add\n        /* \"#utility.yul\":791:856   */\n      tag_70\n      jump\t// in\n    tag_106:\n        /* \"#utility.yul\":881:910   */\n      tag_107\n        /* \"#utility.yul\":903:909   */\n      dup2\n        /* \"#utility.yul\":881:910   */\n      tag_71\n      jump\t// in\n    tag_107:\n        /* \"#utility.yul\":876:879   */\n      dup5\n        /* \"#utility.yul\":872:911   */\n      add\n        /* \"#utility.yul\":865:911   */\n      swap2\n      pop\n        /* \"#utility.yul\":632:917   */\n      pop\n        /* \"#utility.yul\":540:917   */\n      swap3\n      swap2\n      pop\n      pop\n      jump\t// out\n        /* \"#utility.yul\":923:1437   */\n    tag_16:\n        /* \"#utility.yul\":1084:1088   */\n      0x00\n        /* \"#utility.yul\":1122:1124   */\n      0x40\n        /* \"#utility.yul\":1111:1120   */\n      dup3\n        /* \"#utility.yul\":1107:1125   */\n      add\n        /* \"#utility.yul\":1099:1125   */\n      swap1\n      pop\n        /* \"#utility.yul\":1171:1180   */\n      dup2\n        /* \"#utility.yul\":1165:1169   */\n      dup2\n        /* \"#utility.yul\":1161:1181   */\n      sub\n        /* \"#utility.yul\":1157:1158   */\n      0x00\n        /* \"#utility.yul\":1146:1155   */\n      dup4\n        /* \"#utility.yul\":1142:1159   */\n      add\n        /* \"#utility.yul\":1135:1182   */\n      mstore\n        /* \"#utility.yul\":1199:1277   */\n      tag_109\n        /* \"#utility.yul\":1272:1276   */\n      dup2\n        /* \"#utility.yul\":1263:1269   */\n      dup6\n        /* \"#utility.yul\":1199:1277   */\n      tag_72\n      jump\t// in\n    tag_109:\n        /* \"#utility.yul\":1191:1277   */\n      swap1\n      pop\n        /* \"#utility.yul\":1324:1333   */\n      dup2\n        /* \"#utility.yul\":1318:1322   */\n      dup2\n        /* \"#utility.yul\":1314:1334   */\n      sub\n        /* \"#utility.yul\":1309:1311   */\n      0x20\n        /* \"#utility.yul\":1298:1307   */\n      dup4\n        /* \"#utility.yul\":1294:1312   */\n      add\n        /* \"#utility.yul\":1287:1335   */\n      mstore\n        /* \"#utility.yul\":1352:1430   */\n      tag_110\n        /* \"#utility.yul\":1425:1429   */\n      dup2\n        /* \"#utility.yul\":1416:1422   */\n      dup5\n        /* \"#utility.yul\":1352:1430   */\n      tag_72\n      jump\t// in\n    tag_110:\n        /* \"#utility.yul\":1344:1430   */\n      swap1\n      pop\n        /* \"#utility.yul\":923:1437   */\n      swap4\n      swap3\n      pop\n      pop\n      pop\n      jump\t// out\n        /* \"#utility.yul\":1443:1756   */\n    tag_20:\n        /* \"#utility.yul\":1556:1560   */\n      0x00\n        /* \"#utility.yul\":1594:1596   */\n      0x20\n        /* \"#utility.yul\":1583:1592   */\n      dup3\n        /* \"#utility.yul\":1579:1597   */\n      add\n        /* \"#utility.yul\":1571:1597   */\n      swap1\n      pop\n        /* \"#utility.yul\":1643:1652   */\n      dup2\n        /* \"#utility.yul\":1637:1641   */\n      dup2\n        /* \"#utility.yul\":1633:1653   */\n      sub\n        /* \"#utility.yul\":1629:1630   */\n      0x00\n        /* \"#utility.yul\":1618:1627   */\n      dup4\n        /* \"#utility.yul\":1614:1631   */\n      add\n        /* \"#utility.yul\":1607:1654   */\n      mstore\n        /* \"#utility.yul\":1671:1749   */\n      tag_112\n        /* \"#utility.yul\":1744:1748   */\n      dup2\n        /* \"#utility.yul\":1735:1741   */\n      dup5\n        /* \"#utility.yul\":1671:1749   */\n      tag_72\n      jump\t// in\n    tag_112:\n        /* \"#utility.yul\":1663:1749   */\n      swap1\n      pop\n        /* \"#utility.yul\":1443:1756   */\n      swap3\n      swap2\n      pop\n      pop\n      jump\t// out\n        /* \"#utility.yul\":1762:1860   */\n    tag_73:\n        /* \"#utility.yul\":1813:1819   */\n      0x00\n        /* \"#utility.yul\":1847:1852   */\n      dup2\n        /* \"#utility.yul\":1841:1853   */\n      mload\n        /* \"#utility.yul\":1831:1853   */\n      swap1\n      pop\n        /* \"#utility.yul\":1762:1860   */\n      swap2\n      swap1\n      pop\n      jump\t// out\n        /* \"#utility.yul\":1866:2034   */\n    tag_74:\n        /* \"#utility.yul\":1949:1960   */\n      0x00\n        /* \"#utility.yul\":1983:1989   */\n      dup3\n        /* \"#utility.yul\":1978:1981   */\n      dup3\n        /* \"#utility.yul\":1971:1990   */\n      mstore\n        /* \"#utility.yul\":2023:2027   */\n      0x20\n        /* \"#utility.yul\":2018:2021   */\n      dup3\n        /* \"#utility.yul\":2014:2028   */\n      add\n        /* \"#utility.yul\":1999:2028   */\n      swap1\n      pop\n        /* \"#utility.yul\":1866:2034   */\n      swap3\n      swap2\n      pop\n      pop\n      jump\t// out\n        /* \"#utility.yul\":2040:2413   */\n    tag_75:\n        /* \"#utility.yul\":2126:2129   */\n      0x00\n        /* \"#utility.yul\":2154:2192   */\n      tag_116\n        /* \"#utility.yul\":2186:2191   */\n      dup3\n        /* \"#utility.yul\":2154:2192   */\n      tag_73\n      jump\t// in\n    tag_116:\n        /* \"#utility.yul\":2208:2278   */\n      tag_117\n        /* \"#utility.yul\":2271:2277   */\n      dup2\n        /* \"#utility.yul\":2266:2269   */\n      dup6\n        /* \"#utility.yul\":2208:2278   */\n      tag_74\n      jump\t// in\n    tag_117:\n        /* \"#utility.yul\":2201:2278   */\n      swap4\n      pop\n        /* \"#utility.yul\":2287:2352   */\n      tag_118\n        /* \"#utility.yul\":2345:2351   */\n      dup2\n        /* \"#utility.yul\":2340:2343   */\n      dup6\n        /* \"#utility.yul\":2333:2337   */\n      0x20\n        /* \"#utility.yul\":2326:2331   */\n      dup7\n        /* \"#utility.yul\":2322:2338   */\n      add\n        /* \"#utility.yul\":2287:2352   */\n      tag_70\n      jump\t// in\n    tag_118:\n        /* \"#utility.yul\":2377:2406   */\n      tag_119\n        /* \"#utility.yul\":2399:2405   */\n      dup2\n        /* \"#utility.yul\":2377:2406   */\n      tag_71\n      jump\t// in\n    tag_119:\n        /* \"#utility.yul\":2372:2375   */\n      dup5\n        /* \"#utility.yul\":2368:2407   */\n      add\n        /* \"#utility.yul\":2361:2407   */\n      swap2\n      pop\n        /* \"#utility.yul\":2130:2413   */\n      pop\n        /* \"#utility.yul\":2040:2413   */\n      swap3\n      swap2\n      pop\n      pop\n      jump\t// out\n        /* \"#utility.yul\":2419:2728   */\n    tag_24:\n        /* \"#utility.yul\":2530:2534   */\n      0x00\n        /* \"#utility.yul\":2568:2570   */\n      0x20\n        /* \"#utility.yul\":2557:2566   */\n      dup3\n        /* \"#utility.yul\":2553:2571   */\n      add\n        /* \"#utility.yul\":2545:2571   */\n      swap1\n      pop\n        /* \"#utility.yul\":2617:2626   */\n      dup2\n        /* \"#utility.yul\":2611:2615   */\n      dup2\n        /* \"#utility.yul\":2607:2627   */\n      sub\n        /* \"#utility.yul\":2603:2604   */\n      0x00\n        /* \"#utility.yul\":2592:2601   */\n      dup4\n        /* \"#utility.yul\":2588:2605   */\n      add\n        /* \"#utility.yul\":2581:2628   */\n      mstore\n        /* \"#utility.yul\":2645:2721   */\n      tag_121\n        /* \"#utility.yul\":2716:2720   */\n      dup2\n        /* \"#utility.yul\":2707:2713   */\n      dup5\n        /* \"#utility.yul\":2645:2721   */\n      tag_75\n      jump\t// in\n    tag_121:\n        /* \"#utility.yul\":2637:2721   */\n      swap1\n      pop\n        /* \"#utility.yul\":2419:2728   */\n      swap3\n      swap2\n      pop\n      pop\n      jump\t// out\n        /* \"#utility.yul\":2734:2809   */\n    tag_76:\n        /* \"#utility.yul\":2767:2773   */\n      0x00\n        /* \"#utility.yul\":2800:2802   */\n      0x40\n        /* \"#utility.yul\":2794:2803   */\n      mload\n        /* \"#utility.yul\":2784:2803   */\n      swap1\n      pop\n        /* \"#utility.yul\":2734:2809   */\n      swap1\n      jump\t// out\n        /* \"#utility.yul\":2815:2932   */\n    tag_77:\n        /* \"#utility.yul\":2924:2925   */\n      0x00\n        /* \"#utility.yul\":2921:2922   */\n      0x00\n        /* \"#utility.yul\":2914:2926   */\n      revert\n        /* \"#utility.yul\":2938:3055   */\n    tag_78:\n        /* \"#utility.yul\":3047:3048   */\n      0x00\n        /* \"#utility.yul\":3044:3045   */\n      0x00\n        /* \"#utility.yul\":3037:3049   */\n      revert\n        /* \"#utility.yul\":3061:3178   */\n    tag_79:\n        /* \"#utility.yul\":3170:3171   */\n      0x00\n        /* \"#utility.yul\":3167:3168   */\n      0x00\n        /* \"#utility.yul\":3160:3172   */\n      revert\n        /* \"#utility.yul\":3184:3301   */\n    tag_80:\n        /* \"#utility.yul\":3293:3294   */\n      0x00\n        /* \"#utility.yul\":3290:3291   */\n      0x00\n        /* \"#utility.yul\":3283:3295   */\n      revert\n        /* \"#utility.yul\":3307:3487   */\n    tag_81:\n        /* \"#utility.yul\":3355:3432   */\n      0x4e487b7100000000000000000000000000000000000000000000000000000000\n        /* \"#utility.yul\":3352:3353   */\n      0x00\n        /* \"#utility.yul\":3345:3433   */\n      mstore\n        /* \"#utility.yul\":3452:3456   */\n      0x41\n        /* \"#utility.yul\":3449:3450   */\n      0x04\n        /* \"#utility.yul\":3442:3457   */\n      mstore\n        /* \"#utility.yul\":3476:3480   */\n      0x24\n        /* \"#utility.yul\":3473:3474   */\n      0x00\n        /* \"#utility.yul\":3466:3481   */\n      revert\n        /* \"#utility.yul\":3493:3774   */\n    tag_82:\n        /* \"#utility.yul\":3576:3603   */\n      tag_129\n        /* \"#utility.yul\":3598:3602   */\n      dup3\n        /* \"#utility.yul\":3576:3603   */\n      tag_71\n      jump\t// in\n    tag_129:\n        /* \"#utility.yul\":3568:3574   */\n      dup2\n        /* \"#utility.yul\":3564:3604   */\n      add\n        /* \"#utility.yul\":3706:3712   */\n      dup2\n        /* \"#utility.yul\":3694:3704   */\n      dup2\n        /* \"#utility.yul\":3691:3713   */\n      lt\n        /* \"#utility.yul\":3670:3688   */\n      0xffffffffffffffff\n        /* \"#utility.yul\":3658:3668   */\n      dup3\n        /* \"#utility.yul\":3655:3689   */\n      gt\n        /* \"#utility.yul\":3652:3714   */\n      or\n        /* \"#utility.yul\":3649:3737   */\n      iszero\n      tag_130\n      jumpi\n        /* \"#utility.yul\":3717:3735   */\n      tag_131\n      tag_81\n      jump\t// in\n    tag_131:\n        /* \"#utility.yul\":3649:3737   */\n    tag_130:\n        /* \"#utility.yul\":3757:3767   */\n      dup1\n        /* \"#utility.yul\":3753:3755   */\n      0x40\n        /* \"#utility.yul\":3746:3768   */\n      mstore\n        /* \"#utility.yul\":3536:3774   */\n      pop\n        /* \"#utility.yul\":3493:3774   */\n      pop\n      pop\n      jump\t// out\n        /* \"#utility.yul\":3780:3909   */\n    tag_83:\n        /* \"#utility.yul\":3814:3820   */\n      0x00\n        /* \"#utility.yul\":3841:3861   */\n      tag_133\n      tag_76\n      jump\t// in\n    tag_133:\n        /* \"#utility.yul\":3831:3861   */\n      swap1\n      pop\n        /* \"#utility.yul\":3870:3903   */\n      tag_134\n        /* \"#utility.yul\":3898:3902   */\n      dup3\n        /* \"#utility.yul\":3890:3896   */\n      dup3\n        /* \"#utility.yul\":3870:3903   */\n      tag_82\n      jump\t// in\n    tag_134:\n        /* \"#utility.yul\":3780:3909   */\n      swap2\n      swap1\n      pop\n      jump\t// out\n        /* \"#utility.yul\":3915:4223   */\n    tag_84:\n        /* \"#utility.yul\":3977:3981   */\n      0x00\n        /* \"#utility.yul\":4067:4085   */\n      0xffffffffffffffff\n        /* \"#utility.yul\":4059:4065   */\n      dup3\n        /* \"#utility.yul\":4056:4086   */\n      gt\n        /* \"#utility.yul\":4053:4109   */\n      iszero\n      tag_136\n      jumpi\n        /* \"#utility.yul\":4089:4107   */\n      tag_137\n      tag_81\n      jump\t// in\n    tag_137:\n        /* \"#utility.yul\":4053:4109   */\n    tag_136:\n        /* \"#utility.yul\":4127:4156   */\n      tag_138\n        /* \"#utility.yul\":4149:4155   */\n      dup3\n        /* \"#utility.yul\":4127:4156   */\n      tag_71\n      jump\t// in\n    tag_138:\n        /* \"#utility.yul\":4119:4156   */\n      swap1\n      pop\n        /* \"#utility.yul\":4211:4215   */\n      0x20\n        /* \"#utility.yul\":4205:4209   */\n      dup2\n        /* \"#utility.yul\":4201:4216   */\n      add\n        /* \"#utility.yul\":4193:4216   */\n      swap1\n      pop\n        /* \"#utility.yul\":3915:4223   */\n      swap2\n      swap1\n      pop\n      jump\t// out\n        /* \"#utility.yul\":4229:4663   */\n    tag_85:\n        /* \"#utility.yul\":4318:4323   */\n      0x00\n        /* \"#utility.yul\":4343:4409   */\n      tag_140\n        /* \"#utility.yul\":4359:4408   */\n      tag_141\n        /* \"#utility.yul\":4401:4407   */\n      dup5\n        /* \"#utility.yul\":4359:4408   */\n      tag_84\n      jump\t// in\n    tag_141:\n        /* \"#utility.yul\":4343:4409   */\n      tag_83\n      jump\t// in\n    tag_140:\n        /* \"#utility.yul\":4334:4409   */\n      swap1\n      pop\n        /* \"#utility.yul\":4432:4438   */\n      dup3\n        /* \"#utility.yul\":4425:4430   */\n      dup2\n        /* \"#utility.yul\":4418:4439   */\n      mstore\n        /* \"#utility.yul\":4470:4474   */\n      0x20\n        /* \"#utility.yul\":4463:4468   */\n      dup2\n        /* \"#utility.yul\":4459:4475   */\n      add\n        /* \"#utility.yul\":4508:4511   */\n      dup5\n        /* \"#utility.yul\":4499:4505   */\n      dup5\n        /* \"#utility.yul\":4494:4497   */\n      dup5\n        /* \"#utility.yul\":4490:4506   */\n      add\n        /* \"#utility.yul\":4487:4512   */\n      gt\n        /* \"#utility.yul\":4484:4596   */\n      iszero\n      tag_142\n      jumpi\n        /* \"#utility.yul\":4515:4594   */\n      tag_143\n      tag_80\n      jump\t// in\n    tag_143:\n        /* \"#utility.yul\":4484:4596   */\n    tag_142:\n        /* \"#utility.yul\":4605:4657   */\n      tag_144\n        /* \"#utility.yul\":4650:4656   */\n      dup5\n        /* \"#utility.yul\":4645:4648   */\n      dup3\n        /* \"#utility.yul\":4640:4643   */\n      dup6\n        /* \"#utility.yul\":4605:4657   */\n      tag_70\n      jump\t// in\n    tag_144:\n        /* \"#utility.yul\":4324:4663   */\n      pop\n        /* \"#utility.yul\":4229:4663   */\n      swap4\n      swap3\n      pop\n      pop\n      pop\n      jump\t// out\n        /* \"#utility.yul\":4683:5038   */\n    tag_86:\n        /* \"#utility.yul\":4750:4755   */\n      0x00\n        /* \"#utility.yul\":4799:4802   */\n      dup3\n        /* \"#utility.yul\":4792:4796   */\n      0x1f\n        /* \"#utility.yul\":4784:4790   */\n      dup4\n        /* \"#utility.yul\":4780:4797   */\n      add\n        /* \"#utility.yul\":4776:4803   */\n      slt\n        /* \"#utility.yul\":4766:4888   */\n      tag_146\n      jumpi\n        /* \"#utility.yul\":4807:4886   */\n      tag_147\n      tag_79\n      jump\t// in\n    tag_147:\n        /* \"#utility.yul\":4766:4888   */\n    tag_146:\n        /* \"#utility.yul\":4917:4923   */\n      dup2\n        /* \"#utility.yul\":4911:4924   */\n      mload\n        /* \"#utility.yul\":4942:5032   */\n      tag_148\n        /* \"#utility.yul\":5028:5031   */\n      dup5\n        /* \"#utility.yul\":5020:5026   */\n      dup3\n        /* \"#utility.yul\":5013:5017   */\n      0x20\n        /* \"#utility.yul\":5005:5011   */\n      dup7\n        /* \"#utility.yul\":5001:5018   */\n      add\n        /* \"#utility.yul\":4942:5032   */\n      tag_85\n      jump\t// in\n    tag_148:\n        /* \"#utility.yul\":4933:5032   */\n      swap2\n      pop\n        /* \"#utility.yul\":4756:5038   */\n      pop\n        /* \"#utility.yul\":4683:5038   */\n      swap3\n      swap2\n      pop\n      pop\n      jump\t// out\n        /* \"#utility.yul\":5044:5897   */\n    tag_46:\n        /* \"#utility.yul\":5143:5149   */\n      0x00\n        /* \"#utility.yul\":5151:5157   */\n      0x00\n        /* \"#utility.yul\":5200:5202   */\n      0x40\n        /* \"#utility.yul\":5188:5197   */\n      dup4\n        /* \"#utility.yul\":5179:5186   */\n      dup6\n        /* \"#utility.yul\":5175:5198   */\n      sub\n        /* \"#utility.yul\":5171:5203   */\n      slt\n        /* \"#utility.yul\":5168:5287   */\n      iszero\n      tag_150\n      jumpi\n        /* \"#utility.yul\":5206:5285   */\n      tag_151\n      tag_77\n      jump\t// in\n    tag_151:\n        /* \"#utility.yul\":5168:5287   */\n    tag_150:\n        /* \"#utility.yul\":5347:5348   */\n      0x00\n        /* \"#utility.yul\":5336:5345   */\n      dup4\n        /* \"#utility.yul\":5332:5349   */\n      add\n        /* \"#utility.yul\":5326:5350   */\n      mload\n        /* \"#utility.yul\":5377:5395   */\n      0xffffffffffffffff\n        /* \"#utility.yul\":5369:5375   */\n      dup2\n        /* \"#utility.yul\":5366:5396   */\n      gt\n        /* \"#utility.yul\":5363:5480   */\n      iszero\n      tag_152\n      jumpi\n        /* \"#utility.yul\":5399:5478   */\n      tag_153\n      tag_78\n      jump\t// in\n    tag_153:\n        /* \"#utility.yul\":5363:5480   */\n    tag_152:\n        /* \"#utility.yul\":5504:5578   */\n      tag_154\n        /* \"#utility.yul\":5570:5577   */\n      dup6\n        /* \"#utility.yul\":5561:5567   */\n      dup3\n        /* \"#utility.yul\":5550:5559   */\n      dup7\n        /* \"#utility.yul\":5546:5568   */\n      add\n        /* \"#utility.yul\":5504:5578   */\n      tag_86\n      jump\t// in\n    tag_154:\n        /* \"#utility.yul\":5494:5578   */\n      swap3\n      pop\n        /* \"#utility.yul\":5297:5588   */\n      pop\n        /* \"#utility.yul\":5648:5650   */\n      0x20\n        /* \"#utility.yul\":5637:5646   */\n      dup4\n        /* \"#utility.yul\":5633:5651   */\n      add\n        /* \"#utility.yul\":5627:5652   */\n      mload\n        /* \"#utility.yul\":5679:5697   */\n      0xffffffffffffffff\n        /* \"#utility.yul\":5671:5677   */\n      dup2\n        /* \"#utility.yul\":5668:5698   */\n      gt\n        /* \"#utility.yul\":5665:5782   */\n      iszero\n      tag_155\n      jumpi\n        /* \"#utility.yul\":5701:5780   */\n      tag_156\n      tag_78\n      jump\t// in\n    tag_156:\n        /* \"#utility.yul\":5665:5782   */\n    tag_155:\n        /* \"#utility.yul\":5806:5880   */\n      tag_157\n        /* \"#utility.yul\":5872:5879   */\n      dup6\n        /* \"#utility.yul\":5863:5869   */\n      dup3\n        /* \"#utility.yul\":5852:5861   */\n      dup7\n        /* \"#utility.yul\":5848:5870   */\n      add\n        /* \"#utility.yul\":5806:5880   */\n      tag_86\n      jump\t// in\n    tag_157:\n        /* \"#utility.yul\":5796:5880   */\n      swap2\n      pop\n        /* \"#utility.yul\":5598:5890   */\n      pop\n        /* \"#utility.yul\":5044:5897   */\n      swap3\n      pop\n      swap3\n      swap1\n      pop\n      jump\t// out\n        /* \"#utility.yul\":5903:6051   */\n    tag_87:\n        /* \"#utility.yul\":6005:6016   */\n      0x00\n        /* \"#utility.yul\":6042:6045   */\n      dup2\n        /* \"#utility.yul\":6027:6045   */\n      swap1\n      pop\n        /* \"#utility.yul\":5903:6051   */\n      swap3\n      swap2\n      pop\n      pop\n      jump\t// out\n        /* \"#utility.yul\":6057:6213   */\n    tag_88:\n        /* \"#utility.yul\":6197:6205   */\n      0x48656c6c6f200000000000000000000000000000000000000000000000000000\n        /* \"#utility.yul\":6193:6194   */\n      0x00\n        /* \"#utility.yul\":6185:6191   */\n      dup3\n        /* \"#utility.yul\":6181:6195   */\n      add\n        /* \"#utility.yul\":6174:6206   */\n      mstore\n        /* \"#utility.yul\":6057:6213   */\n      pop\n      jump\t// out\n        /* \"#utility.yul\":6219:6619   */\n    tag_89:\n        /* \"#utility.yul\":6379:6382   */\n      0x00\n        /* \"#utility.yul\":6400:6484   */\n      tag_161\n        /* \"#utility.yul\":6482:6483   */\n      0x06\n        /* \"#utility.yul\":6477:6480   */\n      dup4\n        /* \"#utility.yul\":6400:6484   */\n      tag_87\n      jump\t// in\n    tag_161:\n        /* \"#utility.yul\":6393:6484   */\n      swap2\n      pop\n        /* \"#utility.yul\":6493:6586   */\n      tag_162\n        /* \"#utility.yul\":6582:6585   */\n      dup3\n        /* \"#utility.yul\":6493:6586   */\n      tag_88\n      jump\t// in\n    tag_162:\n        /* \"#utility.yul\":6611:6612   */\n      0x06\n        /* \"#utility.yul\":6606:6609   */\n      dup3\n        /* \"#utility.yul\":6602:6613   */\n      add\n        /* \"#utility.yul\":6595:6613   */\n      swap1\n      pop\n        /* \"#utility.yul\":6219:6619   */\n      swap2\n      swap1\n      pop\n      jump\t// out\n        /* \"#utility.yul\":6625:6781   */\n    tag_90:\n        /* \"#utility.yul\":6765:6773   */\n      0x576f726c64210000000000000000000000000000000000000000000000000000\n        /* \"#utility.yul\":6761:6762   */\n      0x00\n        /* \"#utility.yul\":6753:6759   */\n      dup3\n        /* \"#utility.yul\":6749:6763   */\n      add\n        /* \"#utility.yul\":6742:6774   */\n      mstore\n        /* \"#utility.yul\":6625:6781   */\n      pop\n      jump\t// out\n        /* \"#utility.yul\":6787:7187   */\n    tag_91:\n        /* \"#utility.yul\":6947:6950   */\n      0x00\n        /* \"#utility.yul\":6968:7052   */\n      tag_165\n        /* \"#utility.yul\":7050:7051   */\n      0x06\n        /* \"#utility.yul\":7045:7048   */\n      dup4\n        /* \"#utility.yul\":6968:7052   */\n      tag_87\n      jump\t// in\n    tag_165:\n        /* \"#utility.yul\":6961:7052   */\n      swap2\n      pop\n        /* \"#utility.yul\":7061:7154   */\n      tag_166\n        /* \"#utility.yul\":7150:7153   */\n      dup3\n        /* \"#utility.yul\":7061:7154   */\n      tag_90\n      jump\t// in\n    tag_166:\n        /* \"#utility.yul\":7179:7180   */\n      0x06\n        /* \"#utility.yul\":7174:7177   */\n      dup3\n        /* \"#utility.yul\":7170:7181   */\n      add\n        /* \"#utility.yul\":7163:7181   */\n      swap1\n      pop\n        /* \"#utility.yul\":6787:7187   */\n      swap2\n      swap1\n      pop\n      jump\t// out\n        /* \"#utility.yul\":7193:7840   */\n    tag_49:\n        /* \"#utility.yul\":7479:7482   */\n      0x00\n        /* \"#utility.yul\":7501:7649   */\n      tag_168\n        /* \"#utility.yul\":7645:7648   */\n      dup3\n        /* \"#utility.yul\":7501:7649   */\n      tag_89\n      jump\t// in\n    tag_168:\n        /* \"#utility.yul\":7494:7649   */\n      swap2\n      pop\n        /* \"#utility.yul\":7666:7814   */\n      tag_169\n        /* \"#utility.yul\":7810:7813   */\n      dup3\n        /* \"#utility.yul\":7666:7814   */\n      tag_91\n      jump\t// in\n    tag_169:\n        /* \"#utility.yul\":7659:7814   */\n      swap2\n      pop\n        /* \"#utility.yul\":7831:7834   */\n      dup2\n        /* \"#utility.yul\":7824:7834   */\n      swap1\n      pop\n        /* \"#utility.yul\":7193:7840   */\n      swap2\n      swap1\n      pop\n      jump\t// out\n        /* \"#utility.yul\":7846:8008   */\n    tag_92:\n        /* \"#utility.yul\":7986:8000   */\n      0x48656c6c6f20576f726c64210000000000000000000000000000000000000000\n        /* \"#utility.yul\":7982:7983   */\n      0x00\n        /* \"#utility.yul\":7974:7980   */\n      dup3\n        /* \"#utility.yul\":7970:7984   */\n      add\n        /* \"#utility.yul\":7963:8001   */\n      mstore\n        /* \"#utility.yul\":7846:8008   */\n      pop\n      jump\t// out\n        /* \"#utility.yul\":8014:8380   */\n    tag_93:\n        /* \"#utility.yul\":8156:8159   */\n      0x00\n        /* \"#utility.yul\":8177:8244   */\n      tag_172\n        /* \"#utility.yul\":8241:8243   */\n      0x0c\n        /* \"#utility.yul\":8236:8239   */\n      dup4\n        /* \"#utility.yul\":8177:8244   */\n      tag_69\n      jump\t// in\n    tag_172:\n        /* \"#utility.yul\":8170:8244   */\n      swap2\n      pop\n        /* \"#utility.yul\":8253:8346   */\n      tag_173\n        /* \"#utility.yul\":8342:8345   */\n      dup3\n        /* \"#utility.yul\":8253:8346   */\n      tag_92\n      jump\t// in\n    tag_173:\n        /* \"#utility.yul\":8371:8373   */\n      0x20\n        /* \"#utility.yul\":8366:8369   */\n      dup3\n        /* \"#utility.yul\":8362:8374   */\n      add\n        /* \"#utility.yul\":8355:8374   */\n      swap1\n      pop\n        /* \"#utility.yul\":8014:8380   */\n      swap2\n      swap1\n      pop\n      jump\t// out\n        /* \"#utility.yul\":8386:8550   */\n    tag_94:\n        /* \"#utility.yul\":8526:8542   */\n      0x4920616d2053756468616e736875000000000000000000000000000000000000\n        /* \"#utility.yul\":8522:8523   */\n      0x00\n        /* \"#utility.yul\":8514:8520   */\n      dup3\n        /* \"#utility.yul\":8510:8524   */\n      add\n        /* \"#utility.yul\":8503:8543   */\n      mstore\n        /* \"#utility.yul\":8386:8550   */\n      pop\n      jump\t// out\n        /* \"#utility.yul\":8556:8922   */\n    tag_95:\n        /* \"#utility.yul\":8698:8701   */\n      0x00\n        /* \"#utility.yul\":8719:8786   */\n      tag_176\n        /* \"#utility.yul\":8783:8785   */\n      0x0e\n        /* \"#utility.yul\":8778:8781   */\n      dup4\n        /* \"#utility.yul\":8719:8786   */\n      tag_69\n      jump\t// in\n    tag_176:\n        /* \"#utility.yul\":8712:8786   */\n      swap2\n      pop\n        /* \"#utility.yul\":8795:8888   */\n      tag_177\n        /* \"#utility.yul\":8884:8887   */\n      dup3\n        /* \"#utility.yul\":8795:8888   */\n      tag_94\n      jump\t// in\n    tag_177:\n        /* \"#utility.yul\":8913:8915   */\n      0x20\n        /* \"#utility.yul\":8908:8911   */\n      dup3\n        /* \"#utility.yul\":8904:8916   */\n      add\n        /* \"#utility.yul\":8897:8916   */\n      swap1\n      pop\n        /* \"#utility.yul\":8556:8922   */\n      swap2\n      swap1\n      pop\n      jump\t// out\n        /* \"#utility.yul\":8928:9654   */\n    tag_52:\n        /* \"#utility.yul\":9195:9199   */\n      0x00\n        /* \"#utility.yul\":9233:9235   */\n      0x40\n        /* \"#utility.yul\":9222:9231   */\n      dup3\n        /* \"#utility.yul\":9218:9236   */\n      add\n        /* \"#utility.yul\":9210:9236   */\n      swap1\n      pop\n        /* \"#utility.yul\":9282:9291   */\n      dup2\n        /* \"#utility.yul\":9276:9280   */\n      dup2\n        /* \"#utility.yul\":9272:9292   */\n      sub\n        /* \"#utility.yul\":9268:9269   */\n      0x00\n        /* \"#utility.yul\":9257:9266   */\n      dup4\n        /* \"#utility.yul\":9253:9270   */\n      add\n        /* \"#utility.yul\":9246:9293   */\n      mstore\n        /* \"#utility.yul\":9310:9441   */\n      tag_179\n        /* \"#utility.yul\":9436:9440   */\n      dup2\n        /* \"#utility.yul\":9310:9441   */\n      tag_93\n      jump\t// in\n    tag_179:\n        /* \"#utility.yul\":9302:9441   */\n      swap1\n      pop\n        /* \"#utility.yul\":9488:9497   */\n      dup2\n        /* \"#utility.yul\":9482:9486   */\n      dup2\n        /* \"#utility.yul\":9478:9498   */\n      sub\n        /* \"#utility.yul\":9473:9475   */\n      0x20\n        /* \"#utility.yul\":9462:9471   */\n      dup4\n        /* \"#utility.yul\":9458:9476   */\n      add\n        /* \"#utility.yul\":9451:9499   */\n      mstore\n        /* \"#utility.yul\":9516:9647   */\n      tag_180\n        /* \"#utility.yul\":9642:9646   */\n      dup2\n        /* \"#utility.yul\":9516:9647   */\n      tag_95\n      jump\t// in\n    tag_180:\n        /* \"#utility.yul\":9508:9647   */\n      swap1\n      pop\n        /* \"#utility.yul\":8928:9654   */\n      swap2\n      swap1\n      pop\n      jump\t// out\n        /* \"#utility.yul\":9660:10062   */\n    tag_96:\n        /* \"#utility.yul\":9820:9823   */\n      0x00\n        /* \"#utility.yul\":9841:9926   */\n      tag_182\n        /* \"#utility.yul\":9923:9925   */\n      0x0c\n        /* \"#utility.yul\":9918:9921   */\n      dup4\n        /* \"#utility.yul\":9841:9926   */\n      tag_87\n      jump\t// in\n    tag_182:\n        /* \"#utility.yul\":9834:9926   */\n      swap2\n      pop\n        /* \"#utility.yul\":9935:10028   */\n      tag_183\n        /* \"#utility.yul\":10024:10027   */\n      dup3\n        /* \"#utility.yul\":9935:10028   */\n      tag_92\n      jump\t// in\n    tag_183:\n        /* \"#utility.yul\":10053:10055   */\n      0x0c\n        /* \"#utility.yul\":10048:10051   */\n      dup3\n        /* \"#utility.yul\":10044:10056   */\n      add\n        /* \"#utility.yul\":10037:10056   */\n      swap1\n      pop\n        /* \"#utility.yul\":9660:10062   */\n      swap2\n      swap1\n      pop\n      jump\t// out\n        /* \"#utility.yul\":10068:10449   */\n    tag_58:\n        /* \"#utility.yul\":10253:10256   */\n      0x00\n        /* \"#utility.yul\":10275:10423   */\n      tag_185\n        /* \"#utility.yul\":10419:10422   */\n      dup3\n        /* \"#utility.yul\":10275:10423   */\n      tag_96\n      jump\t// in\n    tag_185:\n        /* \"#utility.yul\":10268:10423   */\n      swap2\n      pop\n        /* \"#utility.yul\":10440:10443   */\n      dup2\n        /* \"#utility.yul\":10433:10443   */\n      swap1\n      pop\n        /* \"#utility.yul\":10068:10449   */\n      swap2\n      swap1\n      pop\n      jump\t// out\n        /* \"#utility.yul\":10455:10857   */\n    tag_97:\n        /* \"#utility.yul\":10615:10618   */\n      0x00\n        /* \"#utility.yul\":10636:10721   */\n      tag_187\n        /* \"#utility.yul\":10718:10720   */\n      0x0e\n        /* \"#utility.yul\":10713:10716   */\n      dup4\n        /* \"#utility.yul\":10636:10721   */\n      tag_87\n      jump\t// in\n    tag_187:\n        /* \"#utility.yul\":10629:10721   */\n      swap2\n      pop\n        /* \"#utility.yul\":10730:10823   */\n      tag_188\n        /* \"#utility.yul\":10819:10822   */\n      dup3\n        /* \"#utility.yul\":10730:10823   */\n      tag_94\n      jump\t// in\n    tag_188:\n        /* \"#utility.yul\":10848:10850   */\n      0x0e\n        /* \"#utility.yul\":10843:10846   */\n      dup3\n        /* \"#utility.yul\":10839:10851   */\n      add\n        /* \"#utility.yul\":10832:10851   */\n      swap1\n      pop\n        /* \"#utility.yul\":10455:10857   */\n      swap2\n      swap1\n      pop\n      jump\t// out\n        /* \"#utility.yul\":10863:11510   */\n    tag_61:\n        /* \"#utility.yul\":11149:11152   */\n      0x00\n        /* \"#utility.yul\":11171:11319   */\n      tag_190\n        /* \"#utility.yul\":11315:11318   */\n      dup3\n        /* \"#utility.yul\":11171:11319   */\n      tag_96\n      jump\t// in\n    tag_190:\n        /* \"#utility.yul\":11164:11319   */\n      swap2\n      pop\n        /* \"#utility.yul\":11336:11484   */\n      tag_191\n        /* \"#utility.yul\":11480:11483   */\n      dup3\n        /* \"#utility.yul\":11336:11484   */\n      tag_97\n      jump\t// in\n    tag_191:\n        /* \"#utility.yul\":11329:11484   */\n      swap2\n      pop\n        /* \"#utility.yul\":11501:11504   */\n      dup2\n        /* \"#utility.yul\":11494:11504   */\n      swap1\n      pop\n        /* \"#utility.yul\":10863:11510   */\n      swap2\n      swap1\n      pop\n      jump\t// out\n        /* \"#utility.yul\":11516:11935   */\n    tag_64:\n        /* \"#utility.yul\":11682:11686   */\n      0x00\n        /* \"#utility.yul\":11720:11722   */\n      0x20\n        /* \"#utility.yul\":11709:11718   */\n      dup3\n        /* \"#utility.yul\":11705:11723   */\n      add\n        /* \"#utility.yul\":11697:11723   */\n      swap1\n      pop\n        /* \"#utility.yul\":11769:11778   */\n      dup2\n        /* \"#utility.yul\":11763:11767   */\n      dup2\n        /* \"#utility.yul\":11759:11779   */\n      sub\n        /* \"#utility.yul\":11755:11756   */\n      0x00\n        /* \"#utility.yul\":11744:11753   */\n      dup4\n        /* \"#utility.yul\":11740:11757   */\n      add\n        /* \"#utility.yul\":11733:11780   */\n      mstore\n        /* \"#utility.yul\":11797:11928   */\n      tag_193\n        /* \"#utility.yul\":11923:11927   */\n      dup2\n        /* \"#utility.yul\":11797:11928   */\n      tag_93\n      jump\t// in\n    tag_193:\n        /* \"#utility.yul\":11789:11928   */\n      swap1\n      pop\n        /* \"#utility.yul\":11516:11935   */\n      swap2\n      swap1\n      pop\n      jump\t// out\n\n    auxdata: 0xa2646970667358221220cfcbf2c6464fa75734746a9804f8049f423443664dd359b8728a7671a839ef3464736f6c634300081f0033\n}\n",
				"bytecode": {
					"linkReferences": {},
					"object": "6080604052348015600e575f5ffd5b506108388061001c5f395ff3fe608060405234801561000f575f5ffd5b5060043610610091575f3560e01c806360ee46c31161006457806360ee46c31461010e578063717757c81461012c578063cedb985e1461014a578063ed5df36514610168578063f1c287ef1461018657610091565b80630c9b8a8f14610095578063114a7610146100b457806337d0a3c8146100d2578063406ec9f2146100f0575b5f5ffd5b61009d6101a5565b6040516100ab92919061037f565b60405180910390f35b6100bc6101d5565b6040516100c991906103b4565b60405180910390f35b6100da6101fa565b6040516100e79190610426565b60405180910390f35b6100f861021f565b6040516101059190610426565b60405180910390f35b610116610261565b60405161012391906103b4565b60405180910390f35b610134610270565b6040516101419190610426565b60405180910390f35b610152610295565b60405161015f9190610426565b60405180910390f35b6101706102ba565b60405161017d9190610426565b60405180910390f35b61018e6102df565b60405161019c92919061037f565b60405180910390f35b6060805f5f6101b2610295565b8060200190518101906101c59190610575565b9150915081819350935050509091565b60606040516020016101e690610689565b604051602081830303815290604052905090565b606060405160200161020b9061073c565b604051602081830303815290604052905090565b60605f6040518060400160405280600c81526020017f48656c6c6f20576f726c6421000000000000000000000000000000000000000081525090508091505090565b606061026b610295565b905090565b60606040516020016102819061078f565b604051602081830303815290604052905090565b60606040516020016102a6906107c5565b604051602081830303815290604052905090565b60606040516020016102cb906107e4565b604051602081830303815290604052905090565b6060805f5f6102ec6101fa565b8060200190518101906102ff9190610575565b9150915081819350935050509091565b5f81519050919050565b5f82825260208201905092915050565b8281835e5f83830152505050565b5f601f19601f8301169050919050565b5f6103518261030f565b61035b8185610319565b935061036b818560208601610329565b61037481610337565b840191505092915050565b5f6040820190508181035f8301526103978185610347565b905081810360208301526103ab8184610347565b90509392505050565b5f6020820190508181035f8301526103cc8184610347565b905092915050565b5f81519050919050565b5f82825260208201905092915050565b5f6103f8826103d4565b61040281856103de565b9350610412818560208601610329565b61041b81610337565b840191505092915050565b5f6020820190508181035f83015261043e81846103ee565b905092915050565b5f604051905090565b5f5ffd5b5f5ffd5b5f5ffd5b5f5ffd5b7f4e487b71000000000000000000000000000000000000000000000000000000005f52604160045260245ffd5b61049582610337565b810181811067ffffffffffffffff821117156104b4576104b361045f565b5b80604052505050565b5f6104c6610446565b90506104d2828261048c565b919050565b5f67ffffffffffffffff8211156104f1576104f061045f565b5b6104fa82610337565b9050602081019050919050565b5f610519610514846104d7565b6104bd565b9050828152602081018484840111156105355761053461045b565b5b610540848285610329565b509392505050565b5f82601f83011261055c5761055b610457565b5b815161056c848260208601610507565b91505092915050565b5f5f6040838503121561058b5761058a61044f565b5b5f83015167ffffffffffffffff8111156105a8576105a7610453565b5b6105b485828601610548565b925050602083015167ffffffffffffffff8111156105d5576105d4610453565b5b6105e185828601610548565b9150509250929050565b5f81905092915050565b7f48656c6c6f2000000000000000000000000000000000000000000000000000005f82015250565b5f6106296006836105eb565b9150610634826105f5565b600682019050919050565b7f576f726c642100000000000000000000000000000000000000000000000000005f82015250565b5f6106736006836105eb565b915061067e8261063f565b600682019050919050565b5f6106938261061d565b915061069e82610667565b9150819050919050565b7f48656c6c6f20576f726c642100000000000000000000000000000000000000005f82015250565b5f6106dc600c83610319565b91506106e7826106a8565b602082019050919050565b7f4920616d2053756468616e7368750000000000000000000000000000000000005f82015250565b5f610726600e83610319565b9150610731826106f2565b602082019050919050565b5f6040820190508181035f830152610753816106d0565b905081810360208301526107668161071a565b9050919050565b5f610779600c836105eb565b9150610784826106a8565b600c82019050919050565b5f6107998261076d565b9150819050919050565b5f6107af600e836105eb565b91506107ba826106f2565b600e82019050919050565b5f6107cf8261076d565b91506107da826107a3565b9150819050919050565b5f6020820190508181035f8301526107fb816106d0565b905091905056fea2646970667358221220cfcbf2c6464fa75734746a9804f8049f423443664dd359b8728a7671a839ef3464736f6c634300081f0033",
					"opcodes": "PUSH1 0x80 PUSH1 0x40 MSTORE CALLVALUE DUP1 ISZERO PUSH1 0xE JUMPI PUSH0 PUSH0 REVERT JUMPDEST POP PUSH2 0x838 DUP1 PUSH2 0x1C PUSH0 CODECOPY PUSH0 RETURN INVALID PUSH1 0x80 PUSH1 0x40 MSTORE CALLVALUE DUP1 ISZERO PUSH2 0xF JUMPI PUSH0 PUSH0 REVERT JUMPDEST POP PUSH1 0x4 CALLDATASIZE LT PUSH2 0x91 JUMPI PUSH0 CALLDATALOAD PUSH1 0xE0 SHR DUP1 PUSH4 0x60EE46C3 GT PUSH2 0x64 JUMPI DUP1 PUSH4 0x60EE46C3 EQ PUSH2 0x10E JUMPI DUP1 PUSH4 0x717757C8 EQ PUSH2 0x12C JUMPI DUP1 PUSH4 0xCEDB985E EQ PUSH2 0x14A JUMPI DUP1 PUSH4 0xED5DF365 EQ PUSH2 0x168 JUMPI DUP1 PUSH4 0xF1C287EF EQ PUSH2 0x186 JUMPI PUSH2 0x91 JUMP JUMPDEST DUP1 PUSH4 0xC9B8A8F EQ PUSH2 0x95 JUMPI DUP1 PUSH4 0x114A7610 EQ PUSH2 0xB4 JUMPI DUP1 PUSH4 0x37D0A3C8 EQ PUSH2 0xD2 JUMPI DUP1 PUSH4 0x406EC9F2 EQ PUSH2 0xF0 JUMPI JUMPDEST PUSH0 PUSH0 REVERT JUMPDEST PUSH2 0x9D PUSH2 0x1A5 JUMP JUMPDEST PUSH1 0x40 MLOAD PUSH2 0xAB SWAP3 SWAP2 SWAP1 PUSH2 0x37F JUMP JUMPDEST PUSH1 0x40 MLOAD DUP1 SWAP2 SUB SWAP1 RETURN JUMPDEST PUSH2 0xBC PUSH2 0x1D5 JUMP JUMPDEST PUSH1 0x40 MLOAD PUSH2 0xC9 SWAP2 SWAP1 PUSH2 0x3B4 JUMP JUMPDEST PUSH1 0x40 MLOAD DUP1 SWAP2 SUB SWAP1 RETURN JUMPDEST PUSH2 0xDA PUSH2 0x1FA JUMP JUMPDEST PUSH1 0x40 MLOAD PUSH2 0xE7 SWAP2 SWAP1 PUSH2 0x426 JUMP JUMPDEST PUSH1 0x40 MLOAD DUP1 SWAP2 SUB SWAP1 RETURN JUMPDEST PUSH2 0xF8 PUSH2 0x21F JUMP JUMPDEST PUSH1 0x40 MLOAD PUSH2 0x105 SWAP2 SWAP1 PUSH2 0x426 JUMP JUMPDEST PUSH1 0x40 MLOAD DUP1 SWAP2 SUB SWAP1 RETURN JUMPDEST PUSH2 0x116 PUSH2 0x261 JUMP JUMPDEST PUSH1 0x40 MLOAD PUSH2 0x123 SWAP2 SWAP1 PUSH2 0x3B4 JUMP JUMPDEST PUSH1 0x40 MLOAD DUP1 SWAP2 SUB SWAP1 RETURN JUMPDEST PUSH2 0x134 PUSH2 0x270 JUMP JUMPDEST PUSH1 0x40 MLOAD PUSH2 0x141 SWAP2 SWAP1 PUSH2 0x426 JUMP JUMPDEST PUSH1 0x40 MLOAD DUP1 SWAP2 SUB SWAP1 RETURN JUMPDEST PUSH2 0x152 PUSH2 0x295 JUMP JUMPDEST PUSH1 0x40 MLOAD PUSH2 0x15F SWAP2 SWAP1 PUSH2 0x426 JUMP JUMPDEST PUSH1 0x40 MLOAD DUP1 SWAP2 SUB SWAP1 RETURN JUMPDEST PUSH2 0x170 PUSH2 0x2BA JUMP JUMPDEST PUSH1 0x40 MLOAD PUSH2 0x17D SWAP2 SWAP1 PUSH2 0x426 JUMP JUMPDEST PUSH1 0x40 MLOAD DUP1 SWAP2 SUB SWAP1 RETURN JUMPDEST PUSH2 0x18E PUSH2 0x2DF JUMP JUMPDEST PUSH1 0x40 MLOAD PUSH2 0x19C SWAP3 SWAP2 SWAP1 PUSH2 0x37F JUMP JUMPDEST PUSH1 0x40 MLOAD DUP1 SWAP2 SUB SWAP1 RETURN JUMPDEST PUSH1 0x60 DUP1 PUSH0 PUSH0 PUSH2 0x1B2 PUSH2 0x295 JUMP JUMPDEST DUP1 PUSH1 0x20 ADD SWAP1 MLOAD DUP2 ADD SWAP1 PUSH2 0x1C5 SWAP2 SWAP1 PUSH2 0x575 JUMP JUMPDEST SWAP2 POP SWAP2 POP DUP2 DUP2 SWAP4 POP SWAP4 POP POP POP SWAP1 SWAP2 JUMP JUMPDEST PUSH1 0x60 PUSH1 0x40 MLOAD PUSH1 0x20 ADD PUSH2 0x1E6 SWAP1 PUSH2 0x689 JUMP JUMPDEST PUSH1 0x40 MLOAD PUSH1 0x20 DUP2 DUP4 SUB SUB DUP2 MSTORE SWAP1 PUSH1 0x40 MSTORE SWAP1 POP SWAP1 JUMP JUMPDEST PUSH1 0x60 PUSH1 0x40 MLOAD PUSH1 0x20 ADD PUSH2 0x20B SWAP1 PUSH2 0x73C JUMP JUMPDEST PUSH1 0x40 MLOAD PUSH1 0x20 DUP2 DUP4 SUB SUB DUP2 MSTORE SWAP1 PUSH1 0x40 MSTORE SWAP1 POP SWAP1 JUMP JUMPDEST PUSH1 0x60 PUSH0 PUSH1 0x40 MLOAD DUP1 PUSH1 0x40 ADD PUSH1 0x40 MSTORE DUP1 PUSH1 0xC DUP2 MSTORE PUSH1 0x20 ADD PUSH32 0x48656C6C6F20576F726C64210000000000000000000000000000000000000000 DUP2 MSTORE POP SWAP1 POP DUP1 SWAP2 POP POP SWAP1 JUMP JUMPDEST PUSH1 0x60 PUSH2 0x26B PUSH2 0x295 JUMP JUMPDEST SWAP1 POP SWAP1 JUMP JUMPDEST PUSH1 0x60 PUSH1 0x40 MLOAD PUSH1 0x20 ADD PUSH2 0x281 SWAP1 PUSH2 0x78F JUMP JUMPDEST PUSH1 0x40 MLOAD PUSH1 0x20 DUP2 DUP4 SUB SUB DUP2 MSTORE SWAP1 PUSH1 0x40 MSTORE SWAP1 POP SWAP1 JUMP JUMPDEST PUSH1 0x60 PUSH1 0x40 MLOAD PUSH1 0x20 ADD PUSH2 0x2A6 SWAP1 PUSH2 0x7C5 JUMP JUMPDEST PUSH1 0x40 MLOAD PUSH1 0x20 DUP2 DUP4 SUB SUB DUP2 MSTORE SWAP1 PUSH1 0x40 MSTORE SWAP1 POP SWAP1 JUMP JUMPDEST PUSH1 0x60 PUSH1 0x40 MLOAD PUSH1 0x20 ADD PUSH2 0x2CB SWAP1 PUSH2 0x7E4 JUMP JUMPDEST PUSH1 0x40 MLOAD PUSH1 0x20 DUP2 DUP4 SUB SUB DUP2 MSTORE SWAP1 PUSH1 0x40 MSTORE SWAP1 POP SWAP1 JUMP JUMPDEST PUSH1 0x60 DUP1 PUSH0 PUSH0 PUSH2 0x2EC PUSH2 0x1FA JUMP JUMPDEST DUP1 PUSH1 0x20 ADD SWAP1 MLOAD DUP2 ADD SWAP1 PUSH2 0x2FF SWAP2 SWAP1 PUSH2 0x575 JUMP JUMPDEST SWAP2 POP SWAP2 POP DUP2 DUP2 SWAP4 POP SWAP4 POP POP POP SWAP1 SWAP2 JUMP JUMPDEST PUSH0 DUP2 MLOAD SWAP1 POP SWAP2 SWAP1 POP JUMP JUMPDEST PUSH0 DUP3 DUP3 MSTORE PUSH1 0x20 DUP3 ADD SWAP1 POP SWAP3 SWAP2 POP POP JUMP JUMPDEST DUP3 DUP2 DUP4 MCOPY PUSH0 DUP4 DUP4 ADD MSTORE POP POP POP JUMP JUMPDEST PUSH0 PUSH1 0x1F NOT PUSH1 0x1F DUP4 ADD AND SWAP1 POP SWAP2 SWAP1 POP JUMP JUMPDEST PUSH0 PUSH2 0x351 DUP3 PUSH2 0x30F JUMP JUMPDEST PUSH2 0x35B DUP2 DUP6 PUSH2 0x319 JUMP JUMPDEST SWAP4 POP PUSH2 0x36B DUP2 DUP6 PUSH1 0x20 DUP7 ADD PUSH2 0x329 JUMP JUMPDEST PUSH2 0x374 DUP2 PUSH2 0x337 JUMP JUMPDEST DUP5 ADD SWAP2 POP POP SWAP3 SWAP2 POP POP JUMP JUMPDEST PUSH0 PUSH1 0x40 DUP3 ADD SWAP1 POP DUP2 DUP2 SUB PUSH0 DUP4 ADD MSTORE PUSH2 0x397 DUP2 DUP6 PUSH2 0x347 JUMP JUMPDEST SWAP1 POP DUP2 DUP2 SUB PUSH1 0x20 DUP4 ADD MSTORE PUSH2 0x3AB DUP2 DUP5 PUSH2 0x347 JUMP JUMPDEST SWAP1 POP SWAP4 SWAP3 POP POP POP JUMP JUMPDEST PUSH0 PUSH1 0x20 DUP3 ADD SWAP1 POP DUP2 DUP2 SUB PUSH0 DUP4 ADD MSTORE PUSH2 0x3CC DUP2 DUP5 PUSH2 0x347 JUMP JUMPDEST SWAP1 POP SWAP3 SWAP2 POP POP JUMP JUMPDEST PUSH0 DUP2 MLOAD SWAP1 POP SWAP2 SWAP1 POP JUMP JUMPDEST PUSH0 DUP3 DUP3 MSTORE PUSH1 0x20 DUP3 ADD SWAP1 POP SWAP3 SWAP2 POP POP JUMP JUMPDEST PUSH0 PUSH2 0x3F8 DUP3 PUSH2 0x3D4 JUMP JUMPDEST PUSH2 0x402 DUP2 DUP6 PUSH2 0x3DE JUMP JUMPDEST SWAP4 POP PUSH2 0x412 DUP2 DUP6 PUSH1 0x20 DUP7 ADD PUSH2 0x329 JUMP JUMPDEST PUSH2 0x41B DUP2 PUSH2 0x337 JUMP JUMPDEST DUP5 ADD SWAP2 POP POP SWAP3 SWAP2 POP POP JUMP JUMPDEST PUSH0 PUSH1 0x20 DUP3 ADD SWAP1 POP DUP2 DUP2 SUB PUSH0 DUP4 ADD MSTORE PUSH2 0x43E DUP2 DUP5 PUSH2 0x3EE JUMP JUMPDEST SWAP1 POP SWAP3 SWAP2 POP POP JUMP JUMPDEST PUSH0 PUSH1 0x40 MLOAD SWAP1 POP SWAP1 JUMP JUMPDEST PUSH0 PUSH0 REVERT JUMPDEST PUSH0 PUSH0 REVERT JUMPDEST PUSH0 PUSH0 REVERT JUMPDEST PUSH0 PUSH0 REVERT JUMPDEST PUSH32 0x4E487B7100000000000000000000000000000000000000000000000000000000 PUSH0 MSTORE PUSH1 0x41 PUSH1 0x4 MSTORE PUSH1 0x24 PUSH0 REVERT JUMPDEST PUSH2 0x495 DUP3 PUSH2 0x337 JUMP JUMPDEST DUP2 ADD DUP2 DUP2 LT PUSH8 0xFFFFFFFFFFFFFFFF DUP3 GT OR ISZERO PUSH2 0x4B4 JUMPI PUSH2 0x4B3 PUSH2 0x45F JUMP JUMPDEST JUMPDEST DUP1 PUSH1 0x40 MSTORE POP POP POP JUMP JUMPDEST PUSH0 PUSH2 0x4C6 PUSH2 0x446 JUMP JUMPDEST SWAP1 POP PUSH2 0x4D2 DUP3 DUP3 PUSH2 0x48C JUMP JUMPDEST SWAP2 SWAP1 POP JUMP JUMPDEST PUSH0 PUSH8 0xFFFFFFFFFFFFFFFF DUP3 GT ISZERO PUSH2 0x4F1 JUMPI PUSH2 0x4F0 PUSH2 0x45F JUMP JUMPDEST JUMPDEST PUSH2 0x4FA DUP3 PUSH2 0x337 JUMP JUMPDEST SWAP1 POP PUSH1 0x20 DUP2 ADD SWAP1 POP SWAP2 SWAP1 POP JUMP JUMPDEST PUSH0 PUSH2 0x519 PUSH2 0x514 DUP5 PUSH2 0x4D7 JUMP JUMPDEST PUSH2 0x4BD JUMP JUMPDEST SWAP1 POP DUP3 DUP2 MSTORE PUSH1 0x20 DUP2 ADD DUP5 DUP5 DUP5 ADD GT ISZERO PUSH2 0x535 JUMPI PUSH2 0x534 PUSH2 0x45B JUMP JUMPDEST JUMPDEST PUSH2 0x540 DUP5 DUP3 DUP6 PUSH2 0x329 JUMP JUMPDEST POP SWAP4 SWAP3 POP POP POP JUMP JUMPDEST PUSH0 DUP3 PUSH1 0x1F DUP4 ADD SLT PUSH2 0x55C JUMPI PUSH2 0x55B PUSH2 0x457 JUMP JUMPDEST JUMPDEST DUP2 MLOAD PUSH2 0x56C DUP5 DUP3 PUSH1 0x20 DUP7 ADD PUSH2 0x507 JUMP JUMPDEST SWAP2 POP POP SWAP3 SWAP2 POP POP JUMP JUMPDEST PUSH0 PUSH0 PUSH1 0x40 DUP4 DUP6 SUB SLT ISZERO PUSH2 0x58B JUMPI PUSH2 0x58A PUSH2 0x44F JUMP JUMPDEST JUMPDEST PUSH0 DUP4 ADD MLOAD PUSH8 0xFFFFFFFFFFFFFFFF DUP2 GT ISZERO PUSH2 0x5A8 JUMPI PUSH2 0x5A7 PUSH2 0x453 JUMP JUMPDEST JUMPDEST PUSH2 0x5B4 DUP6 DUP3 DUP7 ADD PUSH2 0x548 JUMP JUMPDEST SWAP3 POP POP PUSH1 0x20 DUP4 ADD MLOAD PUSH8 0xFFFFFFFFFFFFFFFF DUP2 GT ISZERO PUSH2 0x5D5 JUMPI PUSH2 0x5D4 PUSH2 0x453 JUMP JUMPDEST JUMPDEST PUSH2 0x5E1 DUP6 DUP3 DUP7 ADD PUSH2 0x548 JUMP JUMPDEST SWAP2 POP POP SWAP3 POP SWAP3 SWAP1 POP JUMP JUMPDEST PUSH0 DUP2 SWAP1 POP SWAP3 SWAP2 POP POP JUMP JUMPDEST PUSH32 0x48656C6C6F200000000000000000000000000000000000000000000000000000 PUSH0 DUP3 ADD MSTORE POP JUMP JUMPDEST PUSH0 PUSH2 0x629 PUSH1 0x6 DUP4 PUSH2 0x5EB JUMP JUMPDEST SWAP2 POP PUSH2 0x634 DUP3 PUSH2 0x5F5 JUMP JUMPDEST PUSH1 0x6 DUP3 ADD SWAP1 POP SWAP2 SWAP1 POP JUMP JUMPDEST PUSH32 0x576F726C64210000000000000000000000000000000000000000000000000000 PUSH0 DUP3 ADD MSTORE POP JUMP JUMPDEST PUSH0 PUSH2 0x673 PUSH1 0x6 DUP4 PUSH2 0x5EB JUMP JUMPDEST SWAP2 POP PUSH2 0x67E DUP3 PUSH2 0x63F JUMP JUMPDEST PUSH1 0x6 DUP3 ADD SWAP1 POP SWAP2 SWAP1 POP JUMP JUMPDEST PUSH0 PUSH2 0x693 DUP3 PUSH2 0x61D JUMP JUMPDEST SWAP2 POP PUSH2 0x69E DUP3 PUSH2 0x667 JUMP JUMPDEST SWAP2 POP DUP2 SWAP1 POP SWAP2 SWAP1 POP JUMP JUMPDEST PUSH32 0x48656C6C6F20576F726C64210000000000000000000000000000000000000000 PUSH0 DUP3 ADD MSTORE POP JUMP JUMPDEST PUSH0 PUSH2 0x6DC PUSH1 0xC DUP4 PUSH2 0x319 JUMP JUMPDEST SWAP2 POP PUSH2 0x6E7 DUP3 PUSH2 0x6A8 JUMP JUMPDEST PUSH1 0x20 DUP3 ADD SWAP1 POP SWAP2 SWAP1 POP JUMP JUMPDEST PUSH32 0x4920616D2053756468616E736875000000000000000000000000000000000000 PUSH0 DUP3 ADD MSTORE POP JUMP JUMPDEST PUSH0 PUSH2 0x726 PUSH1 0xE DUP4 PUSH2 0x319 JUMP JUMPDEST SWAP2 POP PUSH2 0x731 DUP3 PUSH2 0x6F2 JUMP JUMPDEST PUSH1 0x20 DUP3 ADD SWAP1 POP SWAP2 SWAP1 POP JUMP JUMPDEST PUSH0 PUSH1 0x40 DUP3 ADD SWAP1 POP DUP2 DUP2 SUB PUSH0 DUP4 ADD MSTORE PUSH2 0x753 DUP2 PUSH2 0x6D0 JUMP JUMPDEST SWAP1 POP DUP2 DUP2 SUB PUSH1 0x20 DUP4 ADD MSTORE PUSH2 0x766 DUP2 PUSH2 0x71A JUMP JUMPDEST SWAP1 POP SWAP2 SWAP1 POP JUMP JUMPDEST PUSH0 PUSH2 0x779 PUSH1 0xC DUP4 PUSH2 0x5EB JUMP JUMPDEST SWAP2 POP PUSH2 0x784 DUP3 PUSH2 0x6A8 JUMP JUMPDEST PUSH1 0xC DUP3 ADD SWAP1 POP SWAP2 SWAP1 POP JUMP JUMPDEST PUSH0 PUSH2 0x799 DUP3 PUSH2 0x76D JUMP JUMPDEST SWAP2 POP DUP2 SWAP1 POP SWAP2 SWAP1 POP JUMP JUMPDEST PUSH0 PUSH2 0x7AF PUSH1 0xE DUP4 PUSH2 0x5EB JUMP JUMPDEST SWAP2 POP PUSH2 0x7BA DUP3 PUSH2 0x6F2 JUMP JUMPDEST PUSH1 0xE DUP3 ADD SWAP1 POP SWAP2 SWAP1 POP JUMP JUMPDEST PUSH0 PUSH2 0x7CF DUP3 PUSH2 0x76D JUMP JUMPDEST SWAP2 POP PUSH2 0x7DA DUP3 PUSH2 0x7A3 JUMP JUMPDEST SWAP2 POP DUP2 SWAP1 POP SWAP2 SWAP1 POP JUMP JUMPDEST PUSH0 PUSH1 0x20 DUP3 ADD SWAP1 POP DUP2 DUP2 SUB PUSH0 DUP4 ADD MSTORE PUSH2 0x7FB DUP2 PUSH2 0x6D0 JUMP JUMPDEST SWAP1 POP SWAP2 SWAP1 POP JUMP INVALID LOG2 PUSH5 0x6970667358 0x22 SLT KECCAK256 0xCF 0xCB CALLCODE 0xC6 CHAINID 0x4F 0xA7 JUMPI CALLVALUE PUSH21 0x6A9804F8049F423443664DD359B8728A7671A839EF CALLVALUE PUSH5 0x736F6C6343 STOP ADDMOD 0x1F STOP CALLER "
				},
				"gasEstimates": {
					"creation": {
						"codeDepositCost": "420800",
						"executionCost": "453",
						"totalCost": "421253"
					},
					"external": {
						"combineStrings()": "infinite",
						"decodeMultiString()": "infinite",
						"decodePackedMultiString()": "infinite",
						"encodeMultiString()": "infinite",
						"encodePackedMultiString()": "infinite",
						"encodePackedString()": "infinite",
						"encodeString()": "infinite",
						"encodeStringBytes()": "infinite",
						"multiStringCastPacked()": "infinite"
					}
				},
				"methodIdentifiers": {
					"combineStrings()": "114a7610",
					"decodeMultiString()": "f1c287ef",
					"decodePackedMultiString()": "0c9b8a8f",
					"encodeMultiString()": "37d0a3c8",
					"encodePackedMultiString()": "cedb985e",
					"encodePackedString()": "717757c8",
					"encodeString()": "ed5df365",
					"encodeStringBytes()": "406ec9f2",
					"multiStringCastPacked()": "60ee46c3"
				}
			},
			"storageLayout": {
				"storage": [],
				"types": null
			},
			"userdoc": {
				"kind": "user",
				"methods": {},
				"version": 1
			}
		}
	}
}